:020000040800F2
:10000000000001208DBB000865B2000873B2000833
:1000100079B200087FB2000885B200080000000035
:100020000000000000000000000000008BB200088B
:1000300099B2000800000000A7B20008B5B200089D
:10004000DDBB0008DDBB0008DDBB0008DDBB000830
:10005000DDBB0008DDBB0008DDBB0008DDBB000820
:10006000DDBB0008DDBB0008DDBB0008DDBB000810
:10007000DDBB0008C1B20008DDBB0008D5B2000836
:10008000E9B20008DDBB0008DDBB0008DDBB0008ED
:10009000DDBB0008DDBB0008DDBB0008DDBB0008E0
:1000A000DDBB0008FDB20008DDBB0008DDBB0008B9
:1000B000DDBB00080000000000000000DDBB000800
:1000C000DDBB0008DDBB0008DDBB0008DDBB0008B0
:1000D000DDBB000811B3000825B3000839B30008E0
:1000E000DDBB0008DDBB00080000000000000000D0
:1000F0000000000000000000000000000000000000
:1001000000000000DDBB000800000000DDBB0008AF
:100110000000000000000000DDBB00084DB3000837
:10012000DDBB0008DDBB0008DDBB0008DDBB00084F
:10013000DDBB00080000000000000000000000001F
:10014000DDBB0008DDBB0008DDBB000861B30008B3
:10015000DDBB0008DDBB0008DDBB0008DDBB00081F
:10016000DDBB0008DDBB0008DDBB000800000000AF
:10017000DDBB0008DDBB0008DDBB0008000000009F
:0C018000DDBB0008DDBB0008DDBB000893
:1001900010B5054C237833B9044B13B10448AFF3C1
:1001A00000800123237010BD180B00200000000008
:1001B000F8B5010808B5034B1BB103490348AFF379
:1001C000008008BD000000001C0B0020F8B50108ED
:1001D000034613F8012B002AFBD1181A0138704787
:1001E00001F0FF01102A2BDB10F0070F08D010F8E8
:1001F000013B013A8B422DD010F0070F42B3F6D1EC
:10020000F0B441EA012141EA014122F007047FF004
:1002100000070023F0E80256083C85EA010586EA5B
:10022000010685FA47F5A3FA87F586FA47F6A5FA97
:1002300087F68EB9EED1F0BC01F0FF0102F00702A3
:1002400032B110F8013B013A83EA010313B1F8D14E
:100250000020704701387047002D06BF354603382F
:10026000073815F0010F07D1013015F4807F02BF68
:10027000013015F4C03F0130F0BC0138704700BFB9
:1002800081F0004102E000BF83F0004330B54FEA47
:1002900041044FEA430594EA050F08BF90EA020FB4
:1002A0001FBF54EA000C55EA020C7FEA645C7FEA47
:1002B000655C00F0E2804FEA5454D4EB5555B8BF6A
:1002C0006D420CDD2C4480EA020281EA030382EADB
:1002D000000083EA010180EA020281EA0303362D6D
:1002E00088BF30BD11F0004F4FEA01314FF4801C40
:1002F0004CEA113102D0404261EB410113F0004F52
:100300004FEA03334CEA133302D0524263EB430308
:1003100094EA050F00F0A780A4F10104D5F1200EA6
:100320000DDB02FA0EFC22FA05F2801841F1000101
:1003300003FA0EF2801843FA05F359410EE0A5F1D5
:1003400020050EF1200E012A03FA0EFC28BF4CF006
:10035000020C43FA05F3C01851EBE37101F00045BC
:1003600007D54FF0000EDCF1000C7EEB00006EEBC9
:100370000101B1F5801F1BD3B1F5001F0CD3490853
:100380005FEA30004FEA3C0C04F101044FEA4452AA
:1003900012F5800F80F09A80BCF1004F08BF5FEA31
:1003A000500C50F1000041EB045141EA050130BD11
:1003B0005FEA4C0C404141EB0101013C28BFB1F523
:1003C000801FE9D291F0000F04BF01460020B1FA6E
:1003D00081F308BF2033A3F10B03B3F120020CDA41
:1003E0000C3208DD02F1140CC2F10C0201FA0CF01F
:1003F00021FA02F10CE002F11402D8BFC2F1200C84
:1004000001FA02F120FA0CFCDCBF41EA0C01904039
:10041000E41AA2BF01EB0451294330BD6FEA040482
:100420001F3C1CDA0C340EDC04F11404C4F120026D
:1004300020FA04F001FA02F340EA030021FA04F37F
:1004400045EA030130BDC4F10C04C4F1200220FAD6
:1004500002F001FA04F340EA0300294630BD21FA14
:1004600004F0294630BD94F0000F83F4801306BFDA
:1004700081F480110134013D4EE77FEA645C18BFCE
:100480007FEA655C29D094EA050F08BF90EA020F65
:1004900005D054EA000C04BF1946104630BD91EA5D
:1004A000030F1EBF0021002030BD5FEA545C05D160
:1004B0004000494128BF41F0004130BD14F580049F
:1004C0003CBF01F5801130BD01F0004545F0FE4113
:1004D00041F470014FF0000030BD7FEA645C1ABF48
:1004E000194610467FEA655C1CBF0B46024650EA7F
:1004F000013406BF52EA033591EA030F41F40021AB
:1005000030BD00BF90F0000F04BF0021704730B530
:100510004FF4806404F132044FF000054FF0000105
:1005200050E700BF90F0000F04BF0021704730B5C6
:100530004FF4806404F1320410F0004548BF40429B
:100540004FF000013EE700BF42004FEAE2014FEAF0
:1005500031014FEA02701FBF12F07F4393F07F4FCB
:1005600081F06051704732F07F4208BF704793F0CE
:100570007F4F04BF41F40021704730B54FF46074E1
:1005800001F0004521F000411CE700BF50EA0102E4
:1005900008BF704730B54FF000050AE050EA01028D
:1005A00008BF704730B511F0004502D5404261EBFD
:1005B00041014FF4806404F132045FEA915C3FF43E
:1005C000D8AE4FF003025FEADC0C18BF03325FEADB
:1005D000DC0C18BF033202EBDC02C2F1200300FA8C
:1005E00003FC20FA02F001FA03FE40EA0E0021FAB1
:1005F00002F11444BDE600BF70B54FF0FF0C4CF49F
:10060000E06C1CEA11541DBF1CEA135594EA0C0F50
:1006100095EA0C0F00F0DEF82C4481EA030621EA8B
:100620004C5123EA4C5350EA013518BF52EA0335C6
:1006300041F4801143F4801338D0A0FB02CE4FF078
:100640000005E1FB02E506F00042E0FB03E54FF0A8
:100650000006E1FB03569CF0000F18BF4EF0010EA0
:10066000A4F1FF04B6F5007F64F5407404D25FEA9C
:100670004E0E6D4146EB060642EAC62141EA55514F
:100680004FEAC52040EA5E504FEACE2EB4F1FD0C91
:1006900088BFBCF5E06F1ED8BEF1004F08BF5FEA0F
:1006A000500E50F1000041EB045170BD06F00046C1
:1006B00046EA010140EA020081EA0301B4EB5C046E
:1006C000C2BFD4EB0C0541EA045170BD41F4801166
:1006D0004FF0000E013C00F3AB8014F1360FDEBF8B
:1006E000002001F0004170BDC4F10004203C35DA67
:1006F0000C341BDC04F11404C4F1200500FA05F3EA
:1007000020FA04F001FA05F240EA020001F000428A
:1007100021F0004110EBD37021FA04F642EB060100
:100720005EEA430E08BF20EAD37070BDC4F10C042A
:10073000C4F1200500FA04F320FA05F001FA04F2EE
:1007400040EA020001F0004110EBD37041F10001DA
:100750005EEA430E08BF20EAD37070BDC4F12005E5
:1007600000FA05F24EEA020E20FA04F301FA05F24D
:1007700043EA020321FA04F001F0004121FA04F2F5
:1007800020EA020000EBD3705EEA430E08BF20EAC5
:10079000D37070BD94F0000F0FD101F000464000FF
:1007A00041EB010111F4801F08BF013CF7D041EA81
:1007B000060195F0000F18BF704703F00046520085
:1007C00043EB030313F4801F08BF013DF7D043EA56
:1007D0000603704794EA0C0F0CEA135518BF95EA0C
:1007E0000C0F0CD050EA410618BF52EA4306D1D193
:1007F00081EA030101F000414FF0000070BD50EAB2
:10080000410606BF1046194652EA430619D094EA3B
:100810000C0F02D150EA013613D195EA0C0F05D125
:1008200052EA03361CBF104619460AD181EA030179
:1008300001F0004141F0FE4141F470014FF0000031
:1008400070BD41F0FE4141F4780170BD70B54FF0CC
:10085000FF0C4CF4E06C1CEA11541DBF1CEA13554C
:1008600094EA0C0F95EA0C0F00F0A7F8A4EB05042E
:1008700081EA030E52EA03354FEA013100F0888025
:100880004FEA03334FF0805545EA131343EA1263EE
:100890004FEA022245EA111545EA10654FEA0026A3
:1008A0000EF000419D4208BF964244F1FD0404F55C
:1008B000407402D25B084FEA3202B61A65EB0305B8
:1008C0005B084FEA32024FF480104FF4002CB6EB75
:1008D000020E75EB030E22BFB61A754640EA0C00F5
:1008E0005B084FEA3202B6EB020E75EB030E22BF35
:1008F000B61A754640EA5C005B084FEA3202B6EB76
:10090000020E75EB030E22BFB61A754640EA9C0034
:100910005B084FEA3202B6EB020E75EB030E22BF04
:10092000B61A754640EADC0055EA060E18D04FEAC2
:10093000051545EA16754FEA06164FEAC30343EA62
:1009400052734FEAC2025FEA1C1CC0D111F4801F2F
:100950000BD141EA00014FF000004FF0004CB6E728
:1009600011F4801F04BF01430020B4F1FD0C88BFC7
:10097000BCF5E06F3FF6AFAEB5EB030C04BFB6EBD2
:10098000020C5FEA500C50F1000041EB045170BDC5
:100990000EF0004E4EEA113114EB5C04C2BFD4EBF2
:1009A0000C0541EA045170BD41F480114FF0000E76
:1009B000013C90E645EA060E8DE60CEA135594EAF2
:1009C0000C0F08BF95EA0C0F3FF43BAF94EA0C0FF5
:1009D0000AD150EA01347FF434AF95EA0C0F7FF46A
:1009E00025AF104619462CE795EA0C0F06D152EABE
:1009F00003353FF4FDAE1046194622E750EA4106A2
:100A000018BF52EA43067FF4C5AE50EA41047FF4B2
:100A10000DAF52EA43057FF4EBAE12E74FF0FF3C17
:100A200006E000BF4FF0010C02E000BF4FF0010CE8
:100A30004DF804CD4FEA410C7FEA6C5C4FEA430C61
:100A400018BF7FEA6C5C1BD001B050EA410C0CBFB0
:100A500052EA430C91EA030F02BF90EA020F002012
:100A6000704710F1000F91EA030F58BF994208BF79
:100A700090422CBFD8176FEAE37040F00100704736
:100A80004FEA410C7FEA6C5C02D150EA013C07D18D
:100A90004FEA430C7FEA6C5CD6D152EA033CD3D0D8
:100AA0005DF8040B704700BF8446104662468C46D2
:100AB0001946634600E000BF01B5FFF7B7FF002805
:100AC00048BF10F1000F01BD4DF808EDFFF7F4FF2E
:100AD0000CBF012000205DF808FB00BF4DF808EDB9
:100AE000FFF7EAFF34BF012000205DF808FB00BFDC
:100AF0004DF808EDFFF7E0FF94BF012000205DF8FE
:100B000008FB00BF4DF808EDFFF7CEFF94BF0120B2
:100B100000205DF808FB00BF4DF808EDFFF7C4FFAB
:100B200034BF012000205DF808FB00BF4FEA410CF4
:100B30007FEA6C5C02D150EA013C0AD14FEA430CD7
:100B40007FEA6C5C02D152EA033C02D14FF0000014
:100B500070474FF0010070474FEA410212F5001252
:100B600015D211D56FF47873B3EB625212D94FEAF4
:100B7000C12343F0004343EA505311F0004F23FADE
:100B800002F018BF404270474FF00000704750EA33
:100B9000013005D111F0004008BF6FF000407047F0
:100BA0004FF00000704700BF4A0011D212F500124A
:100BB00011D20DD56FF47873B3EB62520ED44FEAB5
:100BC000C12343F0004343EA505323FA02F0704735
:100BD0004FF00000704750EA013002D14FF0FF3073
:100BE00070474FF0000070474FEA4102B2F1E04316
:100BF00024BFB3F5001CDCF1FE5C0DD901F0004C04
:100C00004FEAC0024CEA5070B2F1004F40EB830053
:100C100008BF20F00100704711F0804F21D113F17F
:100C20003872BCBF01F00040704741F480114FEAB8
:100C30005252C2F11802C2F1200C10FA0CF320FA41
:100C400002F018BF40F001004FEAC1234FEAD3235E
:100C500003FA0CFC40EA0C0023FA02F34FEA4303C8
:100C6000CCE77FEA625307D150EA01331EBF4FF051
:100C7000FE4040F44000704701F0004040F0FE406C
:100C800040F40000704700BF53B94AB9002908BFBB
:100C900000281CBF4FF0FF314FF0FF3000F06EB95D
:100CA000ADF1080C6DE904CE00F006F8DDF804E0C3
:100CB000DDE9022304B070472DE9F047089D0446A2
:100CC0008C46002B40F083808A42174647D9B2FAFF
:100CD00082F242B1C2F1200024FA00F09140974024
:100CE00040EA010C94404FEA1748230CBCFBF8F68D
:100CF0001FFA87FE08FB16C143EA014306FB0EF10B
:100D0000994209D9FB1806F1FF3080F01981994208
:100D100040F21681023E3B445B1AA4B2B3FBF8F0EA
:100D200008FB103344EA034400FB0EFEA64509D934
:100D30003C1900F1FF3380F00581A64540F20281A5
:100D400002383C4440EA0640A4EB0E0400261DB1E4
:100D5000D4400023C5E900433146BDE8F08702B91D
:100D6000FFDEB2FA82F2002A50D1CB1B4FEA174EB7
:100D70001FFA87F80126B3FBFEFC210C0EFB1C3387
:100D800041EA034108FB0CF38B4207D979180CF1B7
:100D9000FF3002D28B4200F2E9808446C91AA3B226
:100DA000B1FBFEF00EFB101143EA014408FB00F812
:100DB000A04507D93C1900F1FF3302D2A04500F24B
:100DC000D9801846A4EB080440EA0C40BFE78B42E8
:100DD00009D9002D00F0B1800026C5E90001304698
:100DE0003146BDE8F087B3FA83F6002E4AD18B4234
:100DF00002D3824200F2B880841A61EB0301012021
:100E00008C46002DA8D0C5E9004CA5E7C2F120030F
:100E100020FA03F6974001FA02F04FEA174ED94044
:100E20003043030CB1FBFEF61FFA87F80EFB1611D8
:100E300043EA014306FB08F1994204FA02F409D996
:100E4000FB1806F1FF3C80F08D80994240F28A80C9
:100E5000023E3B445B1A81B2B3FBFEF00EFB103343
:100E600041EA034100FB08F38B4207D9791800F1EE
:100E7000FF3C73D28B4271D902383944CB1A40EA15
:100E8000064678E7C6F1200C03FA06F422FA0CF3C2
:100E90001C4320FA0CF701FA06F34FEA144E21FA2C
:100EA0000CF11F433B0CB1FBFEF91FFA84F80EFB5B
:100EB000191143EA014109FB08FA8A4502FA06F2D0
:100EC00000FA06F308D9611809F1FF3048D28A45C3
:100ED00046D9A9F102092144A1EB0A01BFB2B1FB35
:100EE000FEF00EFB101147EA014700FB08F8B84579
:100EF00007D9E71900F1FF312ED2B8452CD90238B5
:100F0000274440EA0940A7EB0807A0FB02894F45A8
:100F1000C64649461AD317D05DB1B3EB0E0267EB54
:100F2000010707FA0CFCF2404CEA0202F740C5E95F
:100F3000002700263146BDE8F0872E4628460BE7FD
:100F40000646E9E61846FDE64345E5D2B8EB020E53
:100F500069EB04010138DFE70846D2E760468DE718
:100F60008146B9E7664675E730464AE7ACF1020CC0
:100F7000394413E702383C4424E700BF704700BF00
:100F800080B584B000AF78600B46FB704FF40770FB
:100F900017F028F8F860FB68002B05D17B68002269
:100FA000C3F8BC22022366E07B68FA68C3F8BC225F
:100FB0007B681B7C002B19D14FF400730222812126
:100FC000786816F011FE7B6801221A874FF40073CF
:100FD00002220121786816F007FE7B680122A3F83F
:100FE00078217B681022A3F84E2016E040230222CD
:100FF0008121786816F0F8FD7B6801221A8740236A
:1010000002220121786816F0EFFD7B680122A3F827
:1010100078217B681022A3F84E2008230322822126
:10102000786816F0E1FD7B680122A3F84C207B680C
:10103000D3F8C0321B689847FB680022C3F814221B
:10104000FB680022C3F818227B681B7C002B09D1A7
:10105000FB68D3F804224FF400730121786816F07E
:101060003FFF07E0FB68D3F80422402301217868A2
:1010700016F036FF002318461037BD4680BD80B5F8
:1010800082B000AF78600B46FB708121786816F063
:10109000E9FD7B6800221A870121786816F0E2FDDD
:1010A0007B680022A3F878218221786816F0DAFDA7
:1010B0007B680022A3F84C207B680022A3F84E2016
:1010C0007B68D3F8BC32002B0ED07B68D3F8C032DB
:1010D0005B6898477B68D3F8BC32184616F090FFDF
:1010E0007B680022C3F8BC22002318460837BD469F
:1010F00080BD000080B586B000AF786039607B6845
:10110000D3F8BC323B6100237B7300237B81002337
:10111000FB753B69002B01D10323AFE03B681B78D3
:1011200003F06003002B3FD0202B40F09F803B68F2
:10113000DB88002B2ED03B681B785BB2002B16DAC5
:101140007B68D3F8C0329B683A68507839693A684E
:10115000D28898473B68DB88072B28BF0723FB8191
:101160003B69FA891946786816F0ABF885E03B6868
:101170005A783B6983F800223B68DB88DAB23B6926
:1011800083F8012239693B68DB881A46786816F0D3
:10119000C4F872E07B68D3F8C0329B683A68507834
:1011A00000223968984768E03B685B780B2B52D87F
:1011B00001A252F823F000BFE911000865120008EF
:1011C000571200085712000857120008571200085B
:1011D000571200085712000857120008571200084B
:1011E000131200083D1200087B6893F89C32DBB2B2
:1011F000032B07D107F10A0302221946786816F07B
:1012000060F832E03968786815F0EAFF0323FB756F
:101210002BE07B6893F89C32DBB2032B07D107F1FC
:101220000D0301221946786816F04BF81DE0396865
:10123000786815F0D5FF0323FB7516E07B6893F8FB
:101240009C32DBB2032B0FD03968786815F0C8FFE9
:101250000323FB7508E03968786815F0C1FF0323A4
:10126000FB7502E000BF08E000BF06E0396878685F
:1012700015F0B6FF0323FB7500BFFB7D184618373A
:10128000BD4680BD80B584B000AF78600B46FB7072
:101290007B68D3F8C432FB607B68D3F8BC32002B88
:1012A00001D103234FE07B68D3F8BC32BB60FA78EE
:1012B000796813469B0013449B000B4418331B684A
:1012C000002B29D0FA78796813469B0013449B00C1
:1012D0000B4418331A68F978F8680B469B000B44E6
:1012E000DB00034438331B68B2FBF3F103FB01F36B
:1012F000D31A002B10D1FA78796813469B00134457
:101300009B000B44183300221A60F9780023002256
:10131000786816F0ADFD15E0BB680022C3F8142212
:101320007B68D3F8C0321B69002B0BD07B68D3F8E5
:10133000C0321B69BA68D2F80802BA6802F50471B3
:10134000FA789847002318461037BD4680BD80B50F
:1013500084B000AF78600B46FB707B68D3F8BC327A
:10136000FB607B68D3F8BC32002B01D1032315E06E
:10137000FB781946786816F0EBFD0246FB68C3F867
:101380000C227B68D3F8C032DB68FA68D2F804021A
:10139000FA6802F503721146984700231846103781
:1013A000BD4680BD80B584B000AF78607B68D3F85F
:1013B000BC32FB60FB68002B01D103231BE07B6880
:1013C000D3F8C032002B15D0FB6893F80032FF2B06
:1013D00010D07B68D3F8C0329B68FA6892F800029C
:1013E000F968FA6892F8012292B29847FB68FF22E6
:1013F00083F80022002318461037BD4680BD000048
:1014000080B483B000AF78607B6843221A80034BBE
:1014100018460C37BD465DF8047B70478C000020F1
:1014200080B483B000AF78607B6843221A80034B9E
:1014300018460C37BD465DF8047B70474800002015
:1014400080B483B000AF78607B6843221A80034B7E
:1014500018460C37BD465DF8047B7047D00000206D
:1014600080B483B000AF78607B680A221A80034B97
:1014700018460C37BD465DF8047B7047000000201D
:1014800080B483B000AF786039603B68002B01D135
:10149000032304E07B683A68C3F8C022002318469F
:1014A0000C37BD465DF8047B704780B487B000AF51
:1014B000F860B9607A60FB68D3F8BC327B617B6905
:1014C000002B01D1032308E07B69BA68C3F8082226
:1014D0007B697A68C3F81022002318461C37BD4682
:1014E0005DF8047B704780B485B000AF78603960E8
:1014F0007B68D3F8BC32FB60FB68002B01D103236F
:1015000004E0FB683A68C3F8042200231846143745
:10151000BD465DF8047B704780B584B000AF78604D
:101520007B68D3F8BC32BB600123FB737B68D3F8C4
:10153000BC32002B01D103231AE0BB68D3F814326C
:10154000002B14D1BB680122C3F81422BB68D3F866
:1015500010227B68DA62BB68D3F80822BB68D3F834
:1015600010328121786816F083FC0023FB73FB7B2B
:1015700018461037BD4680BD80B584B000AF786096
:101580007B68D3F8BC32FB607B68D3F8BC32002B9D
:1015900001D1032316E07B681B7C002B09D1FB687B
:1015A000D3F804224FF400730121786816F098FCF8
:1015B00007E0FB68D3F8042240230121786816F085
:1015C0008FFC002318461037BD4680BD80B500AFA4
:1015D000002205490548FFF768FF05490348FFF762
:1015E00082FF0023184680BD8011002004360020B1
:1015F000A815002080B400AF00231846BD465DF852
:10160000047B704780B483B000AF03463960FB7140
:101610001346BB80FB79232B4AD801A252F823F052
:10162000B1160008B1160008B1160008B11600087E
:10163000B1160008B1160008B1160008B11600086E
:10164000B1160008B1160008B1160008B11600085E
:10165000B1160008B1160008B1160008B11600084E
:10166000B1160008B1160008B1160008B11600083E
:10167000B1160008B1160008B1160008B11600082E
:10168000B1160008B1160008B1160008B11600081E
:10169000B1160008B1160008B1160008B11600080E
:1016A000B1160008B1160008B1160008B1160008FE
:1016B00000BF002318460C37BD465DF8047B704719
:1016C00080B584B000AF7860396079680F48FFF763
:1016D0000AFF0E48FFF750FF402200210C4816F089
:1016E000DBFC3B681B68FB73FB7B1A467968084888
:1016F00016F0C4FCFB7B1A460021786816F0CCFC7F
:10170000002318461037BD4680BD00BF04360020B8
:101710006815002080B584B000AF78600B467B80F0
:101720000023FB730D4BD3F8BC32BB60BB68D3F80E
:101730001432002B01D001230BE07B881A46796814
:101740000648FFF7B2FE0548FFF7E6FE0346FB73C7
:10175000FB7B18461037BD4680BD00BF0436002015
:1017600080B487B000AFF860B9601346FB71002306
:10177000FB7597F9173018461C37BD465DF8047B9A
:101780007047000080B582B000AF0346FB710E4B7E
:101790000E4A0F490F4806F0C1FE0E4808F0D6FA6F
:1017A00000210C4808F0E1FA0A4806F091FEFB79A6
:1017B000002B01D000F050FB064806F047FE00BFAA
:1017C0000837BD4680BD00BF99280008D92700080A
:1017D000F8D20108F826002080B500AF084B094A6E
:1017E00009490A4806F09AFE084808F0AFFA0021B5
:1017F000064808F0BAFA054806F06AFE00BF80BD48
:1018000099280008D9270008F8D20108F8260020F6
:1018100080B5B8B000AF78613961FA60BB60B04A9A
:1018200007F1D80392E80300186004331970AD4A39
:1018300007F1D4031268114619800233120C1A7092
:10184000A94A07F1CC0392E8030018600433197029
:10185000A64BC7F8C830A64BC7F8C430A54A07F155
:10186000BC0392E80300186004331980A24BC7F848
:10187000B8300023C7F8983007F19C0300221A60A3
:101880005A609A60DA601A615A611A830023BB6752
:1018900007F17C0300221A605A609A60DA601A61CC
:1018A0005A611A830023BB6507F15C0300221A60AA
:1018B0005A609A60DA601A615A611A830023BB6326
:1018C00007F13C0300221A605A609A60DA601A61DC
:1018D0005A611A8300233B630023BB8607F19803F8
:1018E0008649184617F0D8F807F19803D7F8EC1096
:1018F000184617F0D1F807F1D80207F198031146FE
:10190000184617F0C9F83B6920331B68012B08D132
:1019100007F1BC0207F198031146184617F0BCF80E
:101920000CE03B691C331B68012B07D107F1CC028B
:1019300007F198031146184617F0AEF807F178033F
:101940006F49184617F0A8F807F17803D7F8F01098
:10195000184617F0A1F807F1D40207F178031146F1
:10196000184617F099F83B6924331B68012B07D1FF
:1019700007F1C80207F178031146184617F08CF8F2
:1019800007F158035F49184617F086F807F1580326
:10199000D7F8F410184617F07FF807F1D80207F1CE
:1019A00058031146184617F077F83B692C331B682B
:1019B000012B08D107F1BC0207F158031146184664
:1019C00017F06AF80CE03B6928331B68012B07D13C
:1019D00007F1CC0207F158031146184617F05CF8DE
:1019E00007F138034849184617F056F807F138034D
:1019F000D7F8F810184617F04FF807F1D40207F19E
:101A000038031146184617F047F83B6930331B6816
:101A1000012B07D107F1C40207F13803114618461C
:101A200017F03AF87B691033D3ED007AFCEEE77AD1
:101A3000C7ED017A3B79DBB20A33DAB2334B1A7065
:101A4000324B1B781A4607F130033149184617F01C
:101A500003F807F1B80207F130031146184617F0F2
:101A60001BF82C4806F0F2FC2B492A4807F0ECFA48
:101A70002A4B1B78642B06D1294B08222D2125489F
:101A800007F040FA09E0FB6803F5B4731A6807F140
:101A90001C032449184616F0DFFF234B9B79012BCA
:101AA00002D1F86800F044F91F4BDB79012B03D019
:101AB0001D4B1B7A012B3ED10AF0FAF80246BB6897
:101AC0000C331B68D31A44F62062934230D8BB68AB
:101AD0000C331B68002B2BD0144B01221A702AE008
:101AE00024B601082CB6010830B60108203C3C00A1
:101AF000203E3E0038B60108206442008C070020DA
:101B0000940700209C070020A40700200F0C002051
:101B100010B60108F8260020BCBE0108240C0020E5
:101B200014B601081CB6010858110020340B00201F
:101B3000174B00221A70174B5B7A012B0AD1144BFA
:101B40001B78002B06D1144B1B78FA68B96818462D
:101B500000F02CF8114B1B7800226C21184600F085
:101B60001DFF0F490F4807F06FFA0F4B1B781946FE
:101B7000F86800F00FFB0B4806F07CFC0346002BD6
:101B80007FF472AF00BF00BFE037BD4680BD00BF2D
:101B9000340B0020581100200D0C00200C0C0020EC
:101BA000B8C60108F82600200E0C002080B58EB0C3
:101BB00002AF0346B9607A60FB730023FB627B6867
:101BC00004331B68012B0AD17B6803F580731A6804
:101BD00007F114034A49184616F03EFF01E02E2390
:101BE000BB82BB6808331B68002B02D10023FB6259
:101BF00065E00AF05DF80246BB6808331B68D31A3B
:101C0000404AA2FB03239B0B0133FB62FB6AB3F543
:101C1000F07F09D907F118033B4A12681146198071
:101C20000233120C1A7031E0FB6A3B2B1AD9FB6AA3
:101C3000364AA2FB03235A0907F118033449184610
:101C400016F00AFF07F118031846FEF7C1FA03461B
:101C50001A4607F1180313442E491A460B461B88EF
:101C6000138013E007F11803FA6A2949184616F0A1
:101C7000F3FE07F118031846FEF7AAFA03461A46C0
:101C800007F118031344244A1068186023492448B4
:101C900007F0DAF907F120032249184616F0DCFEB6
:101CA00007F1180207F120031146184616F0F4FE5A
:101CB00007F1200308220021194807F023F9FB6AE5
:101CC000002B0DD0FB6A012B0AD8174B01930C2374
:101CD00000930C2300225A21114806F0E9FA0AE089
:101CE000124B01930C2300930C2300225A210C4821
:101CF00006F0DEFA00BF00BF3037BD4680BD00BF32
:101D000044B6010873B2E74548B601088988888857
:101D10004CB6010850B6010854B60108BCBE010813
:101D2000F826002058B60108740700205C07002040
:101D300080B58AB002AF78602B492C4807F084F94F
:101D40007B6803F5A8731B68012B3BD17B6803F507
:101D5000A6731B68DBB21A46920013449B00DBB2E9
:101D600000220021184600F019FE7B6803F5AA73D3
:101D70001A6807F10C031E49184616F06DFE07F1AC
:101D80000C030B221821194807F0BCF87B6803F5F7
:101D9000AC731B68012B0AD1164B01930C230093E3
:101DA0000C2300225A21114806F082FA17E0124B48
:101DB00001930C2300930C2300225A210B4806F0B8
:101DC00077FA0CE007F10C030C49184616F044FEB4
:101DD00007F10C030B220221044807F093F800BF1F
:101DE0002037BD4680BD00BFBCBE0108F8260020DC
:101DF000B0B60108740700205C070020BCB60108DB
:101E000080B584B002AF0346FB710B46BB7113462D
:101E10007B71FB79012B0AD17A79B9790B4B01934C
:101E20000D2300930D230A4806F042FA09E07A795F
:101E3000B979084B01930D2300930D23044806F054
:101E400037FA00BF0837BD4680BD00BF40070020FD
:101E5000F82600202407002080B58AB000AF1D4A74
:101E60003B4692E8030018600433198002330A0CE1
:101E70001A70FB1D00221A605A609A601A73164885
:101E800006F0E4FA1549144807F0DEF83B46142240
:101E90003221114807F036F811490F4807F0D4F8FD
:101EA00007F114030F4A1049184616F0D5FD07F143
:101EB00014031E220021084807F024F8064806F003
:101EC000D9FA0346002BDDD100BF00BF2837BD463D
:101ED00080BD00BFD4B60108F826002034C2010836
:101EE000BCBE0108F4070020CCB60108B0B58AB02A
:101EF00002AFF860B9607A60FB6890331B68002B12
:101F000000F0E780754806F0A1FA7B68002B0AD143
:101F1000734B0193202300932023002205216F4857
:101F200006F0C6F909E06F4B0193202300932023AC
:101F300000220521694806F0BBF96B49674807F0A4
:101F400083F86A4B1B791A464FF47A7303FB02F34A
:101F50001D46BB681C6809F0ABFE0346E31A2B4420
:101F600003F5FA73FB61FB69614AA2FB03239B093A
:101F7000FB6107F11003FA695E49184616F06CFD23
:101F80002D23BB6100237B61BB69D9B25A4B0D2263
:101F9000524806F0B7FF07F11003192250214F48AD
:101FA00006F0B0FFFB6890331B680D2B06D1BB69B0
:101FB000D9B2524B0D22494806F0A4FFFB6890337A
:101FC0001B68012B06D1BB69D9B24D4B0D2243488A
:101FD00006F098FFFB6890331B68022B06D1BB69A3
:101FE000D9B2484B0D223D4806F08CFFFB68903378
:101FF0001B68032B06D1BB69D9B2434B0D2237486E
:1020000006F080FFFB6890331B68072B05D13F4B20
:102010000D223221314806F075FFFB6890331B68B2
:10202000082B0BD1394B0D2232212C4806F06AFFC8
:10203000374B1E226421294806F064FFFB68903369
:102040001B68092B0BD1334B0D223221234806F09C
:1020500059FF314B1E226421204806F053FFFB68D4
:1020600090331B680A2B0BD12C4B0D2232211B48BD
:1020700006F048FF2A4B1E226421184806F042FF52
:10208000FB6890331B680B2B0BD1244B0D223221A4
:10209000124806F037FF1E4B1E2264210F4806F03F
:1020A00031FFFB6890331B680C2B0BD11D4B0D22AD
:1020B00032210A4806F026FF1B4B1E2264210748E6
:1020C00006F020FF054806F0D5F90346002B7FF403
:1020D0001CAF00BF2037BD46B0BD00BFF8260020B2
:1020E00028010020A8010020B8C6010858110020CE
:1020F000D34D62104CB60108E8B60108F0B60108ED
:1021000000B701080CB701081CB7010828B701087F
:102110002CB7010834B701083CB7010840B70108E3
:1021200044B7010848B7010850B7010880B582B02C
:1021300002AF134806F08AF9124B01932023009353
:102140002023002205210E4806F0B2F80E490C4863
:1021500006F07AFF0D4B0D223221094806F0D2FE1F
:102160000B4B1E223221064806F0CCFE044806F036
:1021700081F90346002BDFD100BF00BFBD4680BD03
:10218000F826002028010020B8C6010854B701082D
:10219000E8B6010880B5A6B000AF78600B46FB70CA
:1021A000A549A64806F050FFA54B5B7A012B40F0ED
:1021B000F380A44B1B78012B6FD1A14B1B7A012B11
:1021C0004AD19F4BDB79012B46D19B499B4806F0B6
:1021D0003BFF7B6803F59C731B68002B10D07B686A
:1021E00003F59C731A6807F17C039749184616F0AB
:1021F00033FC07F17C0314220021904806F082FE94
:102200007B6803F59E731B68002B10D07B6803F579
:102210009E731A6807F17C038C49184616F01CFC63
:1022200007F17C031E220021844806F06BFE7B68C8
:1022300003F59A731B68022B40F0518107F17C0370
:102240008349184616F008FC07F17C031E22002182
:102250007A4806F057FE42E1794BDB79012B40F0DA
:102260003F817549754806F0EFFE7A4B1422002134
:10227000724806F047FE7B6803F59C731A6807F105
:1022800060037549184616F0E7FB07F160031E224C
:1022900000216A4806F036FE22E17B68AC331B68F9
:1022A000012B13D16D4B1E220121644806F02AFE3A
:1022B00007F144036A49184616F0CEFB07F14403C0
:1022C000122201215D4806F01DFE09E17B68A8335A
:1022D0001B680E2B15DC7B68A8331B68052B10DDF3
:1022E00009F0E6FC02465F4B5B69D31A42F20F72BB
:1022F000934206D85C4B1E220221504806F002FE93
:10230000EEE07B68A8331B68042B10DC09F0D0FCDE
:102310000246544B5B69D31A42F20F72934206D8BD
:10232000524B1E220221454806F0ECFDD8E07B68A6
:10233000A0331B68012B06D14D4B1E2202213F48C2
:1023400006F0E0FDCCE07B6804331B68012B04D071
:102350007B68F0331B68012B06D1464B1E220221FD
:10236000364806F0CFFDBBE07B6804331B68002BCA
:102370000BD17B688C331B68002B06D13E4B1E2291
:1023800002212E4806F0BEFDAAE03C4B1E2202218F
:102390002A4806F0B7FDA3E07B6803F5A8731B6825
:1023A000002B0AD1264B9B79012B06D1344B1E22E0
:1023B0000221224806F0A6FD92E07B6803F5AE7389
:1023C0001B6840F29A2293420AD11D4B9B79012B44
:1023D00006D12C4B1E220221184806F093FD7FE007
:1023E000184B1B78012B1BD11349144806F02CFE07
:1023F000184B14220021114806F084FD7B6803F578
:102400009C731A6807F108031349184616F024FB59
:1024100007F108031E220021084806F073FD5FE063
:102420007B68AC331B68012B2ED10C4B1E22022182
:10243000024806F067FD53E0B8C60108F826002000
:1024400058110020340B00205CB7010870B7010858
:1024500084B7010890B70108A4B70108B8B701080C
:10246000CCB70108B0280020DCB70108ECB70108A0
:1024700004B8010818B801082CB8010834B80108DC
:102480003CB801084CB801087B6803F5AE731B68C3
:10249000002B0BD17B6803F59C731B68002B05D1C7
:1024A0007B6803F59E731B68002B11D00E4B1E2218
:1024B00002210E4806F026FD7B6803F5AE731B680B
:1024C000002B0DD0002246210120FFF799FC07E0E8
:1024D000074B1E220221054806F014FD00E000BF54
:1024E00000BF9837BD4680BD04B80108F82600201B
:1024F00064B8010880B584B002AF0346FB71FB7974
:10250000013B072B00F2288101A252F823F000BF03
:102510003125000879250008C12500080926000892
:102520005126000899260008E12600081D2700080A
:102530008B4805F08BFF8B4B0193202300932023C6
:1025400000220021864805F0B3FE8749844806F042
:102550007BFD864B0C222D21814806F0D3FC844B59
:102560001C2232217E4806F0CDFC7D4805F082FF1A
:102570000346002BDFD1EFE0794805F067FF7D4B84
:10258000019320230093202300220021744805F0AA
:102590008FFE7549724806F057FD744B0C222D21B1
:1025A0006F4806F0AFFC724B1C2232216C4806F0DB
:1025B000A9FC6B4805F05EFF0346002BDFD1CBE0A2
:1025C000674805F043FF6C4B0193202300932023C1
:1025D00000220021624805F06BFE6349604806F066
:1025E00033FD624B0C222D215D4806F08BFC634BC2
:1025F0001C2232215A4806F085FC594805F03AFF62
:102600000346002BDFD1A7E0554805F01FFF5C4BC8
:10261000019320230093202300220021504805F03D
:1026200047FE51494E4806F00FFD504B0C222D211C
:102630004B4806F067FC514B1C223221484806F0FB
:1026400061FC474805F016FF0346002BDFD183E00D
:10265000434805F0FBFE4B4B0193202300932023BE
:10266000002200213E4805F023FE3F493C4806F089
:10267000EBFC3E4B0C222D21394806F043FC424B2B
:102680001C223221364806F03DFC354805F0F2FEAA
:102690000346002BDFD15FE0314805F0D7FE3B4B0E
:1026A0000193202300932023002200212C4805F0D1
:1026B000FFFD2D492A4806F0C7FC2C4B0C222D218A
:1026C000274806F01FFC304B1C223221244806F01C
:1026D00019FC234805F0CEFE0346002BDFD13BE07A
:1026E0001F4805F0B3FE2A4B0193202300932023BB
:1026F000002200211A4805F0DBFD1B49184806F0AE
:10270000A3FC1A4B14222821154806F0FBFB1448A1
:1027100005F0B0FE0346002BE5D11DE0104805F0A2
:1027200095FE1C4B019320230093202300220021BF
:102730000B4805F0BDFD0C49094806F085FC0B4B24
:1027400014222821064806F0DDFB054805F092FE1C
:102750000346002BE5D100BF00BF0837BD4680BD52
:10276000F826002028020020B8C601087CB801081D
:1027700088B80108A80200202803002094B80108A6
:10278000A803002028040020A0B80108A804002005
:1027900028050020A805002080B582B000AF786031
:1027A0000B4805F053FE0B49094806F04DFC7B68C9
:1027B0000F220021064806F0A5FB054805F05AFE49
:1027C0000346002BEFD100BF00BF0837BD4680BDD8
:1027D000F8260020A4CA010880B588B002AFF860CE
:1027E0007B600B46FB721346BB72FB7A143B0C2BCF
:1027F00044D801A252F823F0812800087D2800085F
:102800007D2800082D2800085D280008652800089C
:102810007D2800087D2800087D2800087D28000804
:102820007D2800087D280008812800087B687B61DE
:1028300010E0164B1B785A1CD1B2144A11701A467C
:102840007B691978124B99547B6901337B61BB7AA0
:10285000013BBB72BB7A002BEBD112E00B4B002289
:102860001A700EE0094B1B789BB24FF47A720092FB
:10287000074A782107480AF05FFB02E0002301E0E5
:1028800000BF012318461837BD4680BD350B002018
:10289000380B0020901D002080B584B000AFF86098
:1028A0007B600B46FB721346BB72FB7A283B252BE1
:1028B00067D801A252F823F05129000859290008CD
:1028C0008329000883290008832900088D2900082E
:1028D0008329000883290008832900088329000828
:1028E0008329000883290008832900088329000818
:1028F0008329000883290008832900088329000808
:1029000083290008832900088329000883290008F7
:1029100083290008832900088329000883290008E7
:1029200083290008832900088329000883290008D7
:1029300083290008832900088329000883290008C7
:1029400083290008832900086329000873290008E7
:10295000012009F0B9F91AE0BB7A184609F0B4F978
:1029600015E0BB7A1A464FF400510B480AF03CFAC6
:102970000DE0BB7A1A464FF4804107480AF034FA5A
:1029800005E0FB68012283F8282000E000BF012356
:1029900018461037BD4680BD0004004880B584B09D
:1029A00002AF0346FB710B46BB7113467B71FB798B
:1029B0000A2B0AD8B979374B01930C2300931423BF
:1029C0000022354805F074FC5FE0FB790A2B0DD935
:1029D000FB791D2B0AD8B979304B01930C23009356
:1029E000142300222C4805F063FC4EE0FB791D2BDC
:1029F0000DD9FB79312B0AD8B979294B01930C23D6
:102A0000009314230022244805F052FC3DE0FB799A
:102A1000312B0DD9FB79452B0AD8B979214B01937C
:102A20000C230093142300221B4805F041FC2CE0EA
:102A3000FB79452B0DD9FB79592B0AD8B9791A4B5B
:102A400001930C23009314230022134805F030FC5B
:102A50001BE0FB79592B0DD9FB79642B0AD8B97986
:102A6000124B01930C230093142300220A4805F013
:102A70001FFC0AE0B9790E4B01930C230093142339
:102A80000022054805F014FCFFE700BF0837BD46EB
:102A900080BD00BF28060020F82600204C0600203C
:102AA0007006002094060020B8060020DC060020F6
:102AB0000007002080B582B000AF786001F0BEF85A
:102AC000012001F05DF8786809F0FEF801F0C0F827
:102AD000002001F055F800BF0837BD4680BD80B525
:102AE00082B000AF7860012001F04AF8786809F000
:102AF000EBF8002001F044F800BF0837BD4680BD68
:102B000080B58AB004AFF860B9607A600023FB75C5
:102B1000164B1B78002B10D16423029301230193E1
:102B200007F117030093012301228E2110480AF0B8
:102B30000BFC03461A460D4B1A70FB7D03F0100385
:102B4000002B00DA0F331B111A46FB681A60FB7D5D
:102B500003F00803002B00DA0733DB101A46BB68CA
:102B60001A6000BF1837BD4680BD00BF080C0020AA
:102B7000DC1D00200000000080B592B004AFF860BA
:102B8000B9607A603B603B68EC331B68002B40F017
:102B90003D8100237B7500233B753B68EC330122AC
:102BA0001A609F4B1B78002B40F0868064230293B1
:102BB0000223019307F114030093012319226C21CE
:102BC00098480AF0C1FB03461A46954B1A707B7D64
:102BD0003B633B6B1B023B63386BFDF793FC4FF091
:102BE0000002914BFDF732FE02460B461046194695
:102BF000FDF7DAFF03463B63386BFDF783FC4FF0CC
:102C000000028A4BFDF7F8FC02460B4610461946B7
:102C1000FDF7A2FF0346FB623B6803F5B673FA6A51
:102C20001A60FB6A40F6E342934219DDFB6A41F207
:102C30000302934211DCFB6AA3F6E4433B633B6B64
:102C4000642202FB03F33B633B6B794AA2FB032341
:102C50001B0A3B633B6B7B630CE064237B6309E0F3
:102C6000FB6A40F61B42934202DCFF237B6301E0D8
:102C700001237B63FB6A40F6D762934205DC3B6825
:102C800003F5A47301221A6004E03B6803F5A47302
:102C900000221A60FB681B687A6B9A4208DBBB68EB
:102CA000012B05D07B68012B02D07B6BFF2B08D159
:102CB000FB687A6B1A6004E03B68D3F8A820FB68D5
:102CC0001A603B68EC3300221A6000237B857B7D11
:102CD0009BB21A461202D31A9AB23B7D9BB213449E
:102CE0007B857B8D1846FDF71DFC4FF00002514B94
:102CF000FDF782FC02460B46104619464FF00002D3
:102D00004D4BFDF7A3FD02460B4610461946FDF755
:102D10006BFF03467B6200237B847B7D9BB21A465C
:102D20001202D31A9AB23B7D9BB213447B840023D8
:102D30003B840023FB830023BB837B7DBB83BB8B56
:102D40001B02BB833B7D9AB2BB8B1344BB83BB8B03
:102D5000FB83B7F91E301846FDF7E4FB2EA3D3E939
:102D60000023FDF749FC02460B46104619464FF07A
:102D70000002314BFDF76AFD02460B46104619462C
:102D8000FDF7EAFE0346FB83B7F91E30002BB8BF00
:102D90005B429AB23B6803F5B4731A6000237B83ED
:102DA0007B7D7B833B7D3B833B8BFB830023FB82D3
:102DB0007B7D9BB21A461202D31A9AB23B7D9BB21C
:102DC0001344FB82FB8A1D4AA2FB03235B09FB829F
:102DD000FB8A1A4AA2FB03235B09FB820023FB82C6
:102DE0007B7D9BB21A461202D31A9AB23B7D9BB2EC
:102DF0001344FB82FB8A114AA2FB03235B09FB827B
:102E0000FB8A0E4AA2FB03235B09FB8200BF383713
:102E1000BD4680BDAFF30080000000000088634025
:102E2000080C0020DC1D0020000030400000F43FB2
:102E30001F85EB5100407F4000408F408988888883
:102E400080B500AF00224FF48061002000F03EF812
:102E50000346184680BD000080B588B000AF034629
:102E6000FB7109F049FB0123BB617F237B610023D8
:102E7000FB6001233B6107F11C0207F10C031146C3
:102E8000184609F01FFC0346002B15D109F056FB2C
:102E9000FB69B3F1FF3F01D0002310E0FB7983F021
:102EA0000103DBB2002B05D04FF48062FF210648FE
:102EB00015F0F2F8012302E009F040FB0023184668
:102EC0002037BD4680BD00BF9019002080B487B078
:102ED00000AFF860B9607A60FA68BB681344B3F574
:102EE000006F01D900232BE0FB687B6121E07B6848
:102EF000002B0BD07B6903F1006303F57E331B7855
:102F0000DAB27B681A707B6801337B607B69B3F54A
:102F1000806F0BD27B6903F1006303F57E331B786E
:102F2000D9B20A4A7B6913440A461A707B69013395
:102F30007B61BA68FB6813447A699A42D7D301234C
:102F400018461C37BD465DF8047B70479019002079
:102F50002DE9F04F91B000AFF862B9627A62FA6A77
:102F6000BB6A1344B3F5006F01D90023C2E07B6A4A
:102F7000002B01D10023BDE009F0BEFA0023FB6362
:102F8000B0E07A6AFB6B13441B78DAB24FF00003AF
:102F9000C7E90C23FB6B5A1C7B6A13441B781B028A
:102FA00018464FEAE071D7E90C23141843EB0105EA
:102FB000C7E90C45FB6B9A1C7B6A13441B781B0406
:102FC00018464FEAE071D7E90C2312EB000843EBF7
:102FD0000109C7E90C89FB6BDA1C7B6A13441B7877
:102FE0001B0618464FEAE071D7E90C2312EB000AE2
:102FF00043EB010BC7E90CABFB6B1A1D7B6A134457
:103000001B78DAB24FF000034FF000004FF00001E0
:1030100011000020D7E90C231618BE614B41FB615B
:10302000D7E90623C7E90C23FB6B5A1D7B6A1344BF
:103030001B78DAB24FF000034FF000004FF00001B0
:1030400011020020D7E90C2316183E614B417B6129
:10305000D7E90423C7E90C23FB6B9A1D7B6A134451
:103060001B78DAB24FF000034FF000004FF0000180
:1030700011040020D7E90C231618BE604B41FB60F9
:10308000D7E90223C7E90C23FB6BDA1D7B6A1344E3
:103090001B78DAB24FF000034FF000004FF0000150
:1030A00011060020D7E90C2316183E604B417B60C7
:1030B000D7E90023C7E90C23FA6BFB6A134403F139
:1030C000006101F57E31D7E90C23002009F0A8F951
:1030D0000346002B03D009F031FA00230AE0FB6B12
:1030E0000833FB63FA6BBB6A9A42FFF44AAF09F0FC
:1030F00025FA012318464437BD46BDE8F08F00008D
:1031000080B584B000AFF860B9607A60FA68BB68D7
:103110001344B3F5806F01D900230DE07B68002BC9
:1031200001D1002308E0FB68054A1344BA687968B6
:10313000184614F0A3FF012318461037BD4680BD82
:103140009019002080B500AF0120FFF785FE0346EF
:1031500083F00103DBB2002B01D0002306E0044A18
:103160004FF480610020FFF7F3FE0346184680BD50
:103170009019002080B485B000AF78600B467B804A
:103180000023FB81134A7B8813800FE0114B1B88BF
:103190001A467B6813441B789AB2FB891344FB815F
:1031A0000C4B1B8801339AB20A4B1A80094B1B88BF
:1031B0001A467B880A339A42E8DDFB89064AA2FB5D
:1031C0000323DB08FB81FB8918461437BD465DF8F5
:1031D000047B70471C0C0020A38B2EBA80B586B0F0
:1031E00000AF7860396008F063FDF8600023FB826F
:1031F00000237B7551E0FB8A5B007A6813441B88CF
:10320000982B47D801237B75FB8A7B820CE07B8A55
:103210005B007A6813441B88992B02D900237B75C5
:1032200007E07B8A01337B827A8AFB8A02339A42E7
:10323000EDDD7B7D012B16D1FB8A3B820EE03B8AC4
:103240005B007A6813441B88CE2B02D901237B755F
:1032500009E000237B753B8A01333B823A8AFB8A73
:103260003A339A42EBDD7B7D012B13D1FB8A6D3320
:103270009BB219463868FFF77DFF03467B817B8947
:103280008C2B05D87B89712B02D901237B750BE030
:1032900000237B75FB8A0133FB82FB8AB3F58D7FAC
:1032A00002D87B7D002BA6D07B7D18461837BD4603
:1032B00080BD80B586B000AF786000237B610023BD
:1032C0003B610123FB6007F1100107F114037A68E9
:1032D0001846FFF715FC07F10C007B68012201215D
:1032E000FFF74AFCFB68FF2B06D17B6864220021B4
:1032F000002001F0CDF92CE03B69012B02D07B6965
:10330000012B09D1FB68632B06DC7B6800220021BE
:10331000322001F0BDF91CE03B69012B02D07B6932
:10332000012B09D1FB68642B06D17B6800220021A8
:10333000002001F0ADF90CE03B69002B09D17B695D
:10334000002B06D17B6800220021002001F0A0F9AB
:10335000FFE700BF1837BD4680BD00000000000039
:1033600080B586B000AF87ED050AC7ED040AF860A6
:10337000B96087ED011A5C4BDB7A012B31D197EDF7
:10338000057AD7ED017AB4EEE77AF1EE10FA24D59A
:10339000FB6808331B68002B1FD1BB682C331B68EC
:1033A000002B1AD1FB6834331B68002B15D1BB6886
:1033B0003C331A6801321A60BB683C331A68BB6838
:1033C00030331B689A420CDBFB68083301221A6019
:1033D000BB683C3300221A6003E0BB683C33002228
:1033E0001A60414B9B7A012B3ED13869FDF7ACF84E
:1033F0004FF033323D4BFDF771FB0346002B2FD0CE
:103400003869FDF7A1F836A3D3E90023FDF784FB63
:103410000346002B24D0FB6808331B68002B1FD108
:10342000BB682C331B68002B1AD1FB6834331B6834
:10343000002B15D1BB6840331A6801321A60BB6893
:1034400040331A68BB6834331B689A420CDBFB6854
:10345000083301221A60BB68403300221A6003E07F
:10346000BB68403300221A601F4B5B79012B32D1BD
:1034700097ED057AD7ED017AB4EEE77AF1EE10FA1E
:1034800020D5BB6828331B68012B1BD1FB68083390
:103490001B68002B16D1FB6834331B68002B11D13D
:1034A000BB6844331A6801321A60BB6844331A6837
:1034B000BB6838331B689A420DDBBB682C33012292
:1034C0001A6008E0BB682C3300221A60BB684433E2
:1034D00000221A60FFE700BF1837BD4680BD00BF5D
:1034E0009A9999999999E93F581100203333F33FFC
:1034F00080B582B000AF0346FB7110E000F088FB9E
:103500000346012B09D14FF47A72FA21012007F00A
:1035100025FEFB79013BFB7101E0002303E0FB7911
:10352000002BEBD1012318460837BD4680BD0000B3
:10353000B0B58AB000AF6B461D46604B1C78234681
:10354000013BFB61E0B24FF000014FF000024FF091
:103550000003CB0043EA5073C200E0B24FF0000119
:103560004FF000024FF00003CB0043EA5073C2005B
:1035700023460733DB08DB00ADEB030D6B4600335E
:10358000BB61002387F82330FFF75AFC2146BB6953
:103590001A460020FFF79AFC00237B620DE0BA690F
:1035A0007B6A13441B78FF2B04D197F82330013337
:1035B00087F823307B6A01337B6222467B6A9A421A
:1035C000EDD297F82330002B73D03D4B0F221A70A9
:1035D0003B4B0A225A703A4B01229A70384B012217
:1035E000DA70374B1E221A71354B01225A71344B57
:1035F00000229A71324B0122DA71314B00221A7289
:103600002F4B01225A722E4B01229A722C4B01220F
:10361000DA722B4B00221A73294B14225A73284B4F
:103620000F229A73264B0022DA73254B00221A745C
:10363000234B1B783B71224B5B787B71204B9B7833
:10364000BB711F4BDB78FB711D4B1B793B721C4B15
:103650005B797B721A4B9B79BB72194BDB79FB72DE
:10366000174B1B7A3B73164B5B7A7B73144B9B7A1D
:10367000BB73134BDB7AFB73114B1B7B3B74104BFF
:103680005B7B7B740E4B9B7BBB740D4BDB7BFB74BA
:103690000B4B1B7C3B753B1D1A4611210020FFF78D
:1036A0002FFDFFF74FFD4FF4C872C821022007F02D
:1036B00055FDAD4600BF2837BD46B0BDF007002020
:1036C0006C110020B0B582B000AF6B461D46394B7F
:1036D0001C782346013B7B60E0B24FF000014FF0C5
:1036E00000024FF00003CB0043EA5073C200E0B287
:1036F0004FF000014FF000024FF00003CB0043EA0F
:103700005073C20023460733DB08DB00ADEB030D2B
:103710006B4600333B6021463B681A460020FFF7AA
:10372000D5FB3B681A78244B1A703B685A78224BB9
:103730005A703B689A78204B9A703B68DA781E4B37
:10374000DA703B681A791C4B1A713B685A791A4B2C
:103750005A713B689A79184B9A713B68DA79164B23
:10376000DA713B681A7A144B1A723B685A7A124B18
:103770005A723B689A7A104B9A723B68DA7A0E4B0F
:10378000DA723B681A7B0C4B1A733B685A7B0A4B04
:103790005A733B689A7B084B9A733B68DA7B064BFB
:1037A000DA733B681A7C044B1A74AD4600BF0837C5
:1037B000BD46B0BDF00700205811002080B588B08C
:1037C00000AF0346FB71FB79012B6CD10023FB7723
:1037D0000023BB77C823FB754CE0FB7F364AD35CE4
:1037E0004E2B44D1FB7F0433334AD35C532B3ED161
:1037F000FB7F0833304AD35C4C2B38D10023FB7756
:1038000030E0FB7F2C4AD35C2C2B19D1BB7F022BE1
:1038100016D10023BB610DE0FA7FBB69134401336D
:10382000254AD15C254ABB6913440A461A70BB6914
:103830000133BB61BB69082BEEDDD223FB7711E0BE
:10384000FB7F1D4AD35C2C2B09D1BB7F022B06D0FA
:10385000BB7F0133BB77FB7F0133FB7702E0FB7F4C
:103860000133FB77FA7FFB7D9A42CAD302E0FB7FEC
:103870000133FB77FA7FFB7D9A42AED307F10C034D
:10388000102219460D4815F0F7F938613A690C49CC
:103890000A4815F0E1F8094A08216020FFF730FCDA
:1038A000FFF750FC04E0054A08216020FFF70EFBFB
:1038B00000BF2037BD4680BD441E0020F407002015
:1038C000ACB8010880B584B000AF0023FB733B4661
:1038D0001A4608216020FFF7F9FA0023BB602CE0AC
:1038E0003A46BB6813441B78FF2B20D03A46BB688E
:1038F00013441B78302B1DD1BB68013307F1100234
:10390000134413F8103C302B14D1BB68023307F179
:103910001002134413F8103C302B0BD1BB68033357
:1039200007F11002134413F8103C302B02D1FB7B3B
:103930000133FB73BB680133BB60BB68082BCFD975
:10394000FB7B002B09D007F0EDFB01F093F94FF45E
:10395000967008F0B9F9012300E0002318461037EB
:10396000BD4680BD80B483B000AF124B1B7BFB71A2
:10397000FB79002B01D1104B12E0FB79002B0ED00C
:10398000FB79012B01D10D4B0AE0FB79022B01D110
:10399000094B05E0FB79032B01D1094B00E001E065
:1039A00007EE903AB0EE670A0C37BD465DF8047B2F
:1039B000704700BF581100200000C8410000A0411E
:1039C0000000F04180B582B000AF78607B68012BC9
:1039D00005D101222021064809F006FA04E0002260
:1039E0002021034809F000FA00BF0837BD4680BD1A
:1039F0000004004880B582B000AF78607B68012B7E
:103A000005D101221021064809F0EEF904E0002258
:103A10001021034809F0E8F900BF0837BD4680BD12
:103A20000004004880B582B000AF78607B68012B4D
:103A300005D101220821064809F0D6F904E0002248
:103A40000821034809F0D0F900BF0837BD4680BD02
:103A50000004004880B582B000AF78607B68012B1D
:103A600007D101224FF480714FF0904009F0BCF96A
:103A700006E000224FF480714FF0904009F0B4F955
:103A800000BF0837BD4680BD80B582B000AF78600A
:103A90007B68012B06D101224FF40041064809F052
:103AA000A3F905E000224FF40041034809F09CF916
:103AB00000BF0837BD4680BD0004004880B582B015
:103AC00000AF78607B68012B06D101224FF4805152
:103AD000064809F089F905E000224FF480510348B7
:103AE00009F082F900BF0837BD4680BD00040048D8
:103AF00080B582B000AF78607B68012B05D10122D0
:103B00000421064809F070F904E00022042103486A
:103B100009F06AF900BF0837BD4680BD00040048BF
:103B200080B582B000AF78607B68012B05D101229F
:103B30000221064809F058F904E000220221034856
:103B400009F052F900BF0837BD4680BD00040048A7
:103B500080B582B000AF78607B68012B05D101226F
:103B60000121064809F040F904E000220121034840
:103B700009F03AF900BF0837BD4680BD000400488F
:103B800080B582B000AF78607B68012B06D101223E
:103B900008214FF0904009F027F905E000220821A4
:103BA0004FF0904009F020F900BF0837BD4680BDB6
:103BB00080B582B000AF78607B68012B06D101220E
:103BC0004FF40051064809F00FF905E000224FF4C8
:103BD0000051034809F008F900BF0837BD4680BD11
:103BE0000008004880B582B000AF00237B604FF42E
:103BF0008071064809F0E0F80346002B01D101234B
:103C00007B607B6818460837BD4680BD00040048CD
:103C100080B582B000AF00237B604FF4007106488E
:103C200009F0CAF80346002B01D101237B607B68B1
:103C300018460837BD4680BD0004004880B500AF77
:103C4000002102480DF02CF800BF80BD0433002095
:103C500080B500AF002102480DF000F900BF80BD23
:103C60000433002080B586B000AF0120FFF758FF75
:103C7000012008F029F8114A07F10C0307CA83E86C
:103C800007000F4A3B1D92E8030083E8030007F199
:103C90000C030C2219460B480EF0A6F8142008F06D
:103CA00013F83B1D0822194606480EF09DF8142013
:103CB00008F00AF800BF1837BD4680BDB4B8010847
:103CC000C0B80108B034002080B485B000AF78607F
:103CD0000B46FB700023FB730023BB730223BB6006
:103CE0000DE0BB687A6813441A78FB7B1344FB73BE
:103CF000BA7BFB7B1344BB73BB680133BB60FB78AF
:103D0000023BBA689A42ECDBBB687A681344FA7BE0
:103D10001A70BB680133BB60BB687A681344BA7B16
:103D20001A7000BF1437BD465DF8047B7047000071
:103D300090B5B7B000AF634A07F1CC0307CA83E878
:103D40000700614A07F1C40392E8030083E8030017
:103D50005E4B07F1B4040FCB84E80F005C4B07F116
:103D6000A4040FCB84E80F005A4B07F194040FCB47
:103D700084E80F00584B07F184040FCB84E80F0050
:103D8000564B07F174040FCB84E80F00544B07F136
:103D900064040FCB84E80F00524B07F154040FCB9F
:103DA00084E80F00504B07F144040FCB84E80F0068
:103DB0004E4A3B4611464422184614F05FF93B46F2
:103DC00044211846FFF780FF07F1440310211846ED
:103DD000FFF77AFF0120FFF7A3FE012007F074FF31
:103DE00007F1CC030C22194641480DF0FDFF1E20BF
:103DF00007F06AFF07F1C403082219463C480DF09A
:103E0000F3FF1E2007F060FF07F1B40310221946EC
:103E100037480DF0E9FF1E2007F056FF07F1A40315
:103E20001022194632480DF0DFFF1E2007F04CFF2C
:103E300007F19403102219462D480DF0D5FF1E20DE
:103E400007F042FF07F184031022194628480DF0BD
:103E5000CBFF1E2007F038FF07F17403102219462C
:103E600023480DF0C1FF1E2007F02EFF07F1540379
:103E7000102219461E480DF0B7FF1E2007F024FF40
:103E800007F164031022194619480DF0ADFF1E20FA
:103E900007F01AFF3B464422194615480DF0A4FFCF
:103EA0001E2007F011FF07F14403102219461048A5
:103EB0000DF09AFF1E2007F007FF00BFDC37BD465C
:103EC00090BD00BFC8B80108C0B80108D4B8010847
:103ED000E4B80108F4B8010804B9010814B90108EC
:103EE00024B9010834B9010844B9010854B90108DA
:103EF000B034002080B586B004AF514B00221A7058
:103F0000504B1B78322B3DD10023FB710023BB713A
:103F10004FF47A73029301230193BB1D0093012395
:103F200007229821484809F0FBF80923BB714FF498
:103F30007A73029301230193BB1D0093012308228E
:103F40009821414809F0ECF82323BB714FF47A73B0
:103F5000029301230193BB1D00930123202298218A
:103F6000394809F0DDF80123BB714FF47A730293ED
:103F700001230193BB1D009301230722982132489E
:103F800009F0CEF82F4B1B78312B39D14FF47A73CF
:103F90000293012301937B1D009301237522D021FD
:103FA000294809F0D1F900233B714FF47A73029349
:103FB000012301933B1D009301236B22D021224852
:103FC00009F0AEF807233B714FF47A730293012393
:103FD00001933B1D009301231922D0211A4809F0B7
:103FE0009FF801233B714FF47A73029301230193ED
:103FF0003B1D009301231C22D021134809F090F8A7
:10400000104B1B78332B17D120233B707F237B7001
:104010003A4614230093022332210B4808F08CFF08
:1040200023233B7018237B703A461423009302230A
:104030003221054808F080FF00BF0837BD4680BD2B
:10404000240C00205C0B0020DC1D002080B58AB011
:1040500004AF7860684B1B78002B40F08E80674B74
:104060001B78322B31D10A230293012301937B6801
:10407000009301230D229821614809F065F9034658
:104080001A465D4B1A707B6802330A2202920122A3
:104090000192009301230F229821594809F054F905
:1040A00003461A46544B1A707B6804330A22029264
:1040B000012201920093012311229821504809F016
:1040C00043F903461A464C4B1A704C4B1B78312B64
:1040D0001BD10023FB820023BB8200237B820123B0
:1040E0000293062301937B68009301233B22D02196
:1040F000434809F029F903461A463F4B1A703B7BA7
:10410000FB82BB7BBB823B7C7B823C4B1B78332B93
:1041100039D17B6801330A22029201220192009375
:10412000012329223321364809F00EF903461A46A5
:10413000314B1A707B6803330A22029201220192EA
:10414000009301232B2233212D4809F0FDF803466B
:104150001A46294B1A707B6805330A220292012203
:104160000192009301232D223321254809F0ECF818
:1041700003461A46204B1A7005E00A2007F0A4FDFA
:104180001D4B00221A701F4B1B78C72B2CD81E4BBF
:104190001B78632B28D81B4B1B780133DAB2194BE1
:1041A0001A707B681B78002B1ED17B6801331B784B
:1041B000002B19D17B6802331B78002B14D17B684C
:1041C00003331B78002B0FD17B6804331B78002B43
:1041D0000AD17B6805331B78002B05D10A4B1B786D
:1041E0000133DAB2084B1A70786800F05BF800BF50
:1041F0001837BD4680BD00BF080C00205C0B0020B6
:10420000DC1D00205A0B0020240C002080B483B059
:1042100000AF87ED010AD7ED017AF5EEC07AF1EE35
:1042200010FA02DBD7ED017A03E0D7ED017AF1EE67
:10423000677AC7ED017A7B6807EE903AB0EE670ABD
:104240000C37BD465DF8047B70470000000000009D
:1042500080B582B000AF87ED000B4FF00002104B2D
:10426000D7E90001FCF7C8F902460B46104619468B
:1042700009A3D3E90023FCF7E9FA02460B461046EE
:104280001946FCF7B1FC034607EE903AB0EE670A18
:104290000837BD4680BD00BF6F1283C0CA210940E8
:1042A0000080664080B52DED028B86B000AF78604F
:1042B000CE4B1B78312B7AD17B681B785BB207EE33
:1042C000903AB8EEE77ADFEDCA6AC7EE267AC94BB4
:1042D000C3ED007A7B6802331B785BB207EE903A3D
:1042E000B8EEE77ADFEDC26AC7EE267AC14BC3EDBE
:1042F000017A7B6804331B785BB207EE903AB8EE24
:10430000E77ADFEDBB6AC7EE267ABA4BC3ED027AD5
:10431000B84BD3ED007AB0EE670AFFF777FFF0EE07
:10432000407AB54BC3ED007AB24BD3ED007AB1EED3
:10433000007A77EE877A9FEDB17A67EE877AFCEEA6
:10434000E77A17EE903A9BB2DB089AB2AC4B1A8030
:10435000A84BD3ED007AB0EE670AFFF757FFB0EE37
:10436000408AA44BD3ED027AB0EE670AFFF74EFF06
:10437000F0EE407A88EE277A17EE100AFCF7E4F8A0
:1043800002460B46C7E9042397ED040B16F07CFEAA
:10439000B0EE407AF0EE607AB0EE470AF0EE670ACF
:1043A000FFF756FFF0EE407A964BC3ED007A8F4B45
:1043B0001B78322B7AD17B681B785BB207EE903A80
:1043C000B8EEE77ADFED8A6AC7EE267A894BC3ED4D
:1043D000007A7B6802331B785BB207EE903AB8EE46
:1043E000E77ADFED836AC7EE267A824BC3ED017A66
:1043F0007B6804331B785BB207EE903AB8EEE77A3D
:10440000DFED7B6AC7EE267A7A4BC3ED027A794BF1
:10441000D3ED007AB0EE670AFFF7F8FEF0EE407ACF
:10442000754BC3ED007A734BD3ED007AB1EE007A91
:1044300077EE677A9FED717A67EE877AFCEEE77A1E
:1044400017EE903A9BB2DB089AB26D4B1A80694B1B
:10445000D3ED007AB0EE670AFFF7D8FEB0EE408ADF
:10446000644BD3ED027AB0EE670AFFF7CFFEF0EEB1
:10447000407A88EE277A17EE100AFCF765F80246B4
:104480000B46C7E9022397ED020B16F0FDFDB0EED7
:10449000407AF0EE607AB0EE470AF0EE670AFFF776
:1044A000D7FEF0EE407A574BC3ED007A4F4B1B78A6
:1044B000332B4CD17B6801331B785BB207EE903A0B
:1044C000B8EEE77ADFED506AC7EE267A494BC3EDC6
:1044D000007A7B6803331B785BB207EE903AB8EE44
:1044E000E77ADFED496AC7EE267A424BC3ED017ADF
:1044F0007B6805331B785BB207EE903AB8EEE77A3B
:10450000DFED416AC7EE267A3A4BC3ED027A394BAA
:10451000D3ED017AB0EE670AFFF778FEF0EE407A4D
:10452000354BC3ED007A334BD3ED017AB1EE007A0F
:1045300077EE677A9FED317A67EE877AFCEEE77A5D
:1045400017EE903A9BB2DB089AB22D4B1A80294B9A
:1045500093ED007A274BD3ED007A27EE277A254B8F
:10456000D3ED016A234BD3ED017A66EEA77A37EEDD
:10457000277A204BD3ED026A1E4BD3ED027A66EE0A
:10458000A77A77EE277A17EE900AFBF7DDFF02464F
:104590000B4643EC102B16F047FF53EC102B104644
:1045A0001946FCF721FB0346124AD360114BDB6826
:1045B000164A13600F4BD3ED037AB1EE007A77EE13
:1045C000877A9FED0E7A27EE877AF2EE006AC7EEC1
:1045D000267AFCEEE77A17EE903A9AB20C4B1A80E4
:1045E00000BF1837BD46BDEC028B80BD5C0B0020C0
:1045F00000008042701F00206820002000007F43E0
:10460000F4260020C8280020000000429C2700203B
:104610008025002080B586B002AF78607B68EC33DF
:104620001B68002B2ED17B68EC3301221A6001201D
:10463000FFF78EFA20233B7340237B736023BB7309
:1046400007F10C020A23009303239A210F4808F074
:1046500073FC80233B73A0237B73C023BB730120B7
:1046600007F032FB07F10C020A23009303239A217F
:10467000064808F061FC0020FFF76AFA7B68EC331B
:1046800000221A6000BF1037BD4680BDDC1D00202F
:1046900080B588B002AFF860B9607A603B603B6873
:1046A000EC331B68002B37D13B68EC3301221A60D6
:1046B0000120FFF74DFA20233B7540237B756023D3
:1046C000BB753A7DFB68002B00DA0733DB10DBB2E9
:1046D0001344DBB23B757A7DBB68002B00DA0733ED
:1046E000DB10DBB21344DBB27B75BA7D7B68002B39
:1046F00000DA0733DB10DBB21344DBB2BB7507F122
:1047000014020A23009303239A21054808F014FC9D
:104710003B68EC3300221A6000BF1837BD4680BDED
:10472000DC1D002080B582B000AF00237B60FFF766
:1047300059FA0346002B0AD10120FFF75BF900204C
:10474000FFF770F901237B60642007F0BDFA7B68F6
:1047500018460837BD4680BD90B58BB004AF034600
:104760003960FB710023FB750023BB753D4A0121B5
:104770004FF48070FEF7AAFB3B4A10214FF488707B
:10478000FEF7A4FBFB791A46364B9A420AD0354A0B
:10479000FB791370334A01214FF48070FEF7B0FCAF
:1047A0000123FB7500233B6110E03B693A68134429
:1047B0001A782D493B690B441B789A4203D0012398
:1047C000BB7510233B613B6901333B613B69102B97
:1047D000EBDDBB7D012B19D10023FB600BE0FB68F7
:1047E0003A6813441978204AFB6813440A461A7041
:1047F000FB680133FB60FB68102BF0DD1A4A1021C7
:104800004FF48870FEF77CFC0123FB75FB7D012BC8
:1048100006D1FEF797FCC822C821022006F09EFCB4
:10482000FB7A1846114BD3F86C21104BD3F8A83003
:104830000D4903910E4902910A49019100931346D3
:104840000C4A0D4914F008F9FC7AFB7A1846FBF77C
:10485000BFFC034619462046FCF75CFF00BF1C372F
:10486000BD4690BD5C0B0020600B0020842500201D
:10487000AC070020F407002098B9010880B582B089
:1048800000AF0023BB712B4A01214FF48070FEF76B
:104890001DFB294A10214FF48870FEF717FB254BAA
:1048A0001B78312B12D0234B1B78322B0ED0214B8F
:1048B0001B78332B0AD01F4B32221A701D4A01215C
:1048C0004FF48070FEF71CFC0123BB7100233B609A
:1048D0000BE0194A3B6813441B78FF2B02D1FB798C
:1048E0000133FB713B6801333B601348FBF770FCFD
:1048F00002463B689A42ECD2FB79002B0BD00F4961
:104900000D4814F0A9F80C4A10214FF48870FEF7F6
:10491000F7FB0123BB71BB79002B07D0FEF712FC1C
:104920004FF4FA720021012006F018FC00BF08378E
:10493000BD4680BD5C0B0020600B0020B0B90108B3
:1049400080B500AF0120FFF7B9F80120FFF730F97B
:104950000020FFF7B3F8012007F0B6F90120FFF7B8
:1049600027F9012007F0B0F900BF80BD80B500AF86
:104970000120FFF7A3F80020FFF71AF900BF80BD60
:1049800080B483B000AF786039607B6801221A6020
:104990007B6804333A681A607B68083301221A6026
:1049A0007B680C3300221A607B68103300221A6087
:1049B00000BF0C37BD465DF8047B704780B584B0FE
:1049C00000AF78600023FB607B681B68012B3ED141
:1049D00007F06EF9B8607B6808331A687B680C339F
:1049E0001B689A422AD17B6810331B68BA68D21AB6
:1049F0007B6808331B6804339B0079680B441B6891
:104A00009A4224D37B6808331B68FB607B680833B9
:104A10001A687B68083301321A607B6808331A68A9
:104A20007B6804331B689A4211D97B6808330122E2
:104A30001A607B680C3300221A6008E07B68103330
:104A4000BA681A607B680C337A6892681A60FB68EF
:104A500018461037BD4680BD80B500AF0120FFF776
:104A600047F8032007F030F90020FFF741F800BFB6
:104A700080BD000090B5A1B01EAF78600A4C6846BA
:104A800004F10C037822194613F0F8FA94E80E00AA
:104A9000064800F09BFD4FF4FA6007F015F900BFDF
:104AA0000C37BD4690BD00BF34350020B8B90108B1
:104AB00090B59FB01EAF2A4C684604F10C037822D3
:104AC000194613F0DBFA94E80E00264800F07EFD4C
:104AD000642007F0F9F8224C684604F10C037822B0
:104AE000194613F0CBFA94E80E001F4800F06EFD53
:104AF000642007F0E9F81A4C684604F10C037822A8
:104B0000194613F0BBFA94E80E00184800F05EFD59
:104B1000642007F0D9F8124C684604F10C0378229F
:104B2000194613F0ABFA94E80E00114800F04EFD60
:104B3000642007F0C9F80A4C684604F10C03782297
:104B4000194613F09BFA94E80E000A4800F03EFD67
:104B5000642007F0B9F800BF0437BD4690BD00BF20
:104B600034350020CCB90108D8B90108E8B90108EA
:104B7000F4B9010800BA010890B59FB01EAF124BFE
:104B80001B7A012B1CD1114C684604F10C037822CE
:104B9000194613F073FA94E80E000D4800F016FD64
:104BA000C82007F091F8094C684604F10C037822FC
:104BB000194613F063FA94E80E00064800F006FD6B
:104BC00000BF0437BD4690BD581100203435002089
:104BD00024BA010848BA010890B59FB01EAF0C4B2B
:104BE0001B7A012B10D14FF47A7007F06DF8094C45
:104BF000684604F10C037822194613F03FFA94E852
:104C00000E00054800F0E2FC00BF0437BD4690BD31
:104C1000581100203435002070BA0108B0B5AAB090
:104C20001EAF7860104B1B7A012B19D107F10803D6
:104C30007A680E49184613F00FFF0D4C07F108056E
:104C4000684604F10C037822194613F017FA94E829
:104C50000E00284600F0BAFC4FF47A7007F034F8E2
:104C600000BF3037BD46B0BD5811002094BA0108CE
:104C70003435002090B59FB01EAF0A4BDB79012B75
:104C80000CD1094C684604F10C037822194613F044
:104C9000F5F994E80E00054800F098FC00BF0437D1
:104CA000BD4690BD5811002034350020ACBA010833
:104CB00090B59FB01EAF0C4BDB79012B10D10B4C84
:104CC000684604F10C037822194613F0D7F994E8EA
:104CD0000E00074800F07AFC4FF47A7006F0F4FFFB
:104CE00000BF0437BD4690BD581100203435002068
:104CF000B8BA0108B0B5AEB01EAF78603960154BD8
:104D0000DB79012B22D17868FBF762FA0346092B85
:104D100006D807F10C031049184613F09DFE06E073
:104D200007F10C037A680D49184613F095FE0C4CF8
:104D300007F10C05684604F10C037822194613F0BC
:104D40009DF994E80E00284600F040FC00BF403773
:104D5000BD46B0BD58110020C4BA0108E4BA01082C
:104D60003435002090B5A1B01EAF0346FB71154B42
:104D7000DB79012B21D14FF4FA7006F0A5FFFB7906
:104D8000012B0DD1104C684604F10C037822194612
:104D900013F074F994E80E000C4800F017FC0CE0D6
:104DA000094C684604F10C037822194613F066F9A1
:104DB00094E80E00064800F009FC00BF0C37BD4621
:104DC00090BD00BF5811002034350020F8BA01080A
:104DD00018BB010890B59FB01EAF174B9B79012BF4
:104DE00026D1164C684604F10C037822194613F0BC
:104DF00045F994E80E00124800F0E8FB0F4C6846B5
:104E000004F10C037822194613F038F994E80E00E7
:104E10000C4800F0DBFB094C684604F10C037822D7
:104E2000194613F02BF994E80E00074800F0CEFB6A
:104E300000BF0437BD4690BD581100203435002016
:104E400040BC01084CBC010874BC0108B0B5AAB054
:104E50001EAF78600E4B9B79012B15D107F10C0327
:104E60007A680C49184613F0F7FD0B4C07F10C0556
:104E7000684604F10C037822194613F0FFF894E811
:104E80000E00284600F0A2FB00BF3037BD46B0BD83
:104E90005811002094BC01083435002090B59FB013
:104EA0001EAF184B9B79012B28D1FFF701FE164C42
:104EB000684604F10C037822194613F0DFF894E8F1
:104EC0000E00124800F082FB0F4C684604F10C0300
:104ED0007822194613F0D2F894E80E000C4800F03E
:104EE00075FB094C684604F10C037822194613F04F
:104EF000C5F894E80E00074800F068FB00BF0437CF
:104F0000BD4690BD58110020343500204CBC01082E
:104F100040BC0108ACBC0108F0B5ADB00EAF786381
:104F20003963FA62BB624FF0FF333B670023FB66D5
:104F300000237B660023BB6600233B660023FB65E2
:104F4000002387F85B30FB6A1833D3ED007AF5EE67
:104F5000C07AF1EE10FA01DD01233B673B6BE033D1
:104F60001B68012B10D13B6F012B06D1302387F832
:104F70007730302387F87630CBE0312387F87730ED
:104F8000302387F87630C4E03B6BE0331B680D2B91
:104F900010D13B6F012B06D1322387F877303023B5
:104FA00087F87630B5E0332387F87730302387F8F9
:104FB0007630AEE03B6BE0331B68062B10D13B6FC5
:104FC000012B06D1342387F87730302387F87630E9
:104FD0009FE0352387F87730302387F8763098E0E4
:104FE0003B6BE0331B68022B10D13B6F012B06D1CA
:104FF000382387F87730302387F8763089E03923F3
:1050000087F87730302387F8763082E03B6BE033E7
:105010001B68092B10D13B6F012B06D1412387F868
:105020007730302387F8763073E0412387F8773084
:10503000312387F876306CE03B6BE0331B68072B3D
:1050400010D13B6F012B06D1412387F877303223F3
:1050500087F876305DE0412387F87730332387F88F
:10506000763056E03B6BE0331B68082B10D13B6F6A
:10507000012B06D1412387F87730342387F8763027
:1050800047E0412387F87730352387F8763040E0D2
:105090003B6BE0331B680A2B10D13B6F012B06D111
:1050A000412387F87730362387F8763031E0412383
:1050B00087F87730372387F876302AE03B6BE03388
:1050C0001B680B2B10D13B6F012B06D1412387F8B6
:1050D0007730382387F876301BE0412387F8773024
:1050E000392387F8763014E03B6BE0331B680C2BD8
:1050F0000FD13B6F012B06D1422387F87730302345
:1051000087F8763005E0422387F87730312387F837
:1051100076303B6BA8331B687B4A82FB03129210EC
:10512000DB17D31ABB66BB6E092B01DD0923BB66F7
:10513000BB6E002B01DA0023BB66FB6A1433D3ED90
:10514000007A9FED727A67EE877AF0EEE77AB0EE3A
:10515000670A16F043F9F0EE407AFDEEE77A17EEB3
:10516000903A3B66FB6A1833D3ED007A9FED687A7C
:1051700067EE877AF0EEE77AB0EE670A16F02EF95E
:10518000F0EE407AFDEEE77A17EE903AFB657B6E23
:10519000DBB21B01DAB2BB6EDBB2134487F85B30C3
:1051A00006F086FD0246BB6A08331B68D31A594ACB
:1051B000A2FB03239B0B0133FB66BB6A08331B680E
:1051C000002B01D10023FB66FB6EB3F5F07F02DDFF
:1051D00040F6FF73FB663B6E07F15401052218464B
:1051E00000F012FAFB6D07F14C010522184600F0A1
:1051F0000BFAFB6E07F138010322184600F004FA9F
:1052000097F8543087F8443097F8553087F8453090
:1052100097F8563087F8463097F8573087F8473078
:1052200097F8583087F8483097F84C3087F83C307A
:1052300097F84D3087F83D3097F84E3087F83E307C
:1052400097F84F3087F83F3097F8503087F8403064
:1052500097F8771097F8760097F844301D4697F83E
:1052600045301E4697F846307B6297F847303B62E0
:1052700097F84830FB6197F83C30BB6197F83D30B8
:105280007B6197F83E303B6197F83F30FB6097F8C1
:105290004030BB6097F838307B6097F839301C4657
:1052A00097F83A301A463B6B03F58A731B680D93E7
:1052B0000C920B947A680A92BA680992FA6808927A
:1052C0003A6907927A690692BA690592FA69049274
:1052D0003A6A03927B6A02930196009503460A4656
:1052E0000D49786B13F0B8FB0C4B1B7A012B07D1DF
:1052F0000A4BDB79012B03D17B6B0F3332221A70FF
:1053000000BF7C37BD46F0BD6766666600401C4640
:105310000050C34773B2E745C4BC010858110020D0
:1053200080B58CB000AFF860B9607A603B604FF038
:10533000FF33BB6200233B620023FB6100237B62DF
:105340000023BB6100237B610023FB747B6818335F
:10535000D3ED007AF5EEC07AF1EE10FA01DD01230B
:10536000BB62BB68E0331B68012B10D1BB6A012B09
:1053700006D1302387F82F30302387F82E30CBE04A
:10538000312387F82F30302387F82E30C4E0BB68F4
:10539000E0331B680D2B10D1BB6A012B06D13223E1
:1053A00087F82F30302387F82E30B5E0332387F885
:1053B0002F30302387F82E30AEE0BB68E0331B6817
:1053C000062B10D1BB6A012B06D1342387F82F306E
:1053D000302387F82E309FE0352387F82F30302395
:1053E00087F82E3098E0BB68E0331B68022B10D1A1
:1053F000BB6A012B06D1382387F82F30302387F87A
:105400002E3089E0392387F82F30302387F82E306B
:1054100082E0BB68E0331B68092B10D1BB6A012B0B
:1054200006D1412387F82F30302387F82E3073E0E0
:10543000412387F82F30312387F82E306CE0BB688A
:10544000E0331B68072B10D1BB6A012B06D1412327
:1054500087F82F30322387F82E305DE0412387F81C
:105460002F30332387F82E3056E0BB68E0331B68BB
:10547000082B10D1BB6A012B06D1412387F82F30AE
:10548000342387F82E3047E0412387F82F30352327
:1054900087F82E3040E0BB68E0331B680A2B10D140
:1054A000BB6A012B06D1412387F82F30362387F8BA
:1054B0002E3031E0412387F82F30372387F82E3004
:1054C0002AE0BB68E0331B680B2B10D1BB6A012BB1
:1054D00006D1412387F82F30382387F82E301BE080
:1054E000412387F82F30392387F82E3014E0BB682A
:1054F000E0331B680C2B0FD1BB6A012B06D1422372
:1055000087F82F30302387F82E3005E0422387F8C4
:105510002F30312387F82E30BB68A8331B68274A09
:1055200082FB03129210DB17D31A7B627B6A092B72
:1055300001DD09237B627B6A002B01DA00237B6299
:105540007B681433D3ED007A9FED1D7A67EE877A7E
:10555000F0EEE77AB0EE670A15F040FFF0EE407A21
:10556000FDEEE77A17EE903ABB617B681833D3ED16
:10557000007A9FED147A67EE877AF0EEE77AB0EE64
:10558000670A15F02BFFF0EE407AFDEEE77A17EE92
:10559000903A7B61FB69DBB21B01DAB27B6ADBB25A
:1055A0001344FB7497F82F2097F82E300649F868BB
:1055B00013F052FA00BF3037BD4680BD676666669D
:1055C00000401C460050C347E8BC010884B080B5C9
:1055D00084B000AF786007F11C0080E80E004FF443
:1055E0007A73FB607868FAF7F3FD03469AB207F125
:1055F0001C00FB6879680CF063FB00BF1037BD46E8
:10560000BDE8804004B0704780B487B000AFF86058
:10561000B9607A607B687B6100233B6107E0BA6810
:105620003B69134430221A703B6901333B613A698C
:105630007B689A42F3D37B69013B7B61FB6803F093
:105640000F02B9687B690B4407498A5C1A70FB68D2
:105650001B09FB60FB68002BEDD100BF00BF1C37AE
:10566000BD465DF8047B7047A8BE010880B596B0C2
:1056700006AFF860B9607A603B607B68D0331B6826
:10568000012B48D1F868FFF799F90346032B37D06F
:10569000032B47DC012B02D0022B26D042E07B6893
:1056A00090331B68002B38D17B68A0331B68DAB2BB
:1056B0001E4B1A707B68A8331B68DAB21C4B1A7039
:1056C00007F11003049307F11C03039307F1280368
:1056D000029307F1340301933B6D0093BB6C7A682E
:1056E000B9683868FCF794F817E07B6890331B685A
:1056F000002B14D00022F96C7868FCF7F7FB0EE061
:105700007B6890331B68002B0BD00122F96C786802
:10571000FCF7ECFB05E000BF04E000BF02E000BFC7
:1057200000E000BF00BF4037BD4680BD0D0C00202B
:105730000C0C002080B582B000AF786039603B6807
:10574000AC331B68012B12D13B68A8331B68632B59
:1057500006DD3B68002264210020FEF799FF29E066
:105760003B68002200216420FEF792FF22E0786867
:10577000FFF724F90346012B02D0022B0DD019E0CC
:105780003B68C03318683B68C43319683B68C8334A
:105790001A683B68FEF77CFF0CE03B68B43318687E
:1057A0003B68B83319683B68BC331A683B68FEF73E
:1057B0006FFF00BF00BF0837BD4680BD80B582B017
:1057C00000AF786039607868FFF7F8F80346012B7E
:1057D00040F0B5803B68AC331B68012B04D03B68BC
:1057E000B0331B68012B1CD13B68A8331B68632BAB
:1057F00017DC3B68B43332221A603B68B8330022AE
:105800001A603B68BC3300221A603B68C033322206
:105810001A603B68C43300221A603B68C833002218
:105820001A603B68AC331B68012B04D03B68B03373
:105830001B68012B1CD13B68A8331B68642B17D154
:105840003B68B43300221A603B68B83332221A60D6
:105850003B68BC3300221A603B68C03300221A60E8
:105860003B68C43332221A603B68C83300221A6096
:105870003B68AC331B68002B63D13B68B0331B68BB
:10588000002B5ED13B68A8331B68312B17DD3B68CA
:10589000B43300221A603B68B83332221A603B6886
:1058A000BC3300221A603B68C03300221A603B6898
:1058B000C43300221A603B68C83300221A603B6878
:1058C000A8331B68312B1CDC3B68A8331B68132BE7
:1058D00017DD3B68B4337F221A603B68B8330A2275
:1058E0001A603B68BC3300221A603B68C033002258
:1058F0001A603B68C43300221A603B68C833002238
:105900001A603B68A8331B68132B1ADC3B68B4335E
:1059100064221A603B68B83300221A603B68BC33CB
:1059200000221A603B68C03300221A603B68C4330F
:1059300000221A603B68C83300221A6001E000BFF1
:1059400000E000BF00BF0837BD4680BD80B584B011
:1059500000AF78600023FB600023BB607B68EC3302
:105960001B68002B0FD17B68EC3301221A6007F112
:10597000080107F10C037A681846FDF7C1F87B6847
:10598000EC3300221A607B68B033FA681A607B68D7
:10599000AC33BA681A6000BF1037BD4680BD80B511
:1059A00084B000AF786007F10C007B680122012110
:1059B000FDF7E2F87B68A833FA681A6000BF103779
:1059C000BD4680BD80B584B000AF78600023FB6029
:1059D0000123BB607B6858331B681E2B05DCA34B7F
:1059E0001B68A34A934240F23C816420FDF777F89C
:1059F0000120FCF77FFD0023FB600FE00A2006F08A
:105A000063F9FEF7EFF80346012B02D10123BB60D7
:105A100001E00023BB60FB680133FB60FB68312BB6
:105A200007DCBB68012BE9D0904B1B68904A93427E
:105A3000E4D8BB68012B04D08C4B1B688C4A934282
:105A400002D90220FCF756FD0023FB600FE00A207C
:105A500006F03AF9FEF7C6F80346012B02D10123FE
:105A6000BB6001E00023BB60FB680133FB60FB68A7
:105A7000312B07DCBB68002BE9D17C4B1B687C4ACF
:105A80009342E4D8BB68012B04D0784B1B68784A5A
:105A9000934202D90320FCF72DFD0023FB600FE0A9
:105AA0000A2006F011F9FEF79DF80346012B02D1FA
:105AB0000123BB6001E00023BB60FB680133FB6096
:105AC000FB68312B07DCBB68012BE9D0674B1B68F7
:105AD000674A9342E4D8BB68012B04D0634B1B6830
