:020000040800F2
:100000000000012035A30008D19A0008DF9A0008FB
:10001000E59A0008EB9A0008F19A00080000000039
:10002000000000000000000000000000F79A000837
:10003000059B000800000000139B0008219B00089E
:1000400085A3000885A3000885A3000885A30008F0
:1000500085A3000885A3000885A3000885A30008E0
:1000600085A3000885A3000885A3000885A30008D0
:1000700085A300082D9B000885A30008419B00086C
:10008000559B000885A3000885A3000885A30008E8
:1000900085A3000885A3000885A3000885A30008A0
:1000A00085A30008699B000885A3000885A30008B4
:1000B00085A30008000000000000000085A30008E0
:1000C00085A3000885A3000885A3000885A3000870
:1000D00085A300087D9B0008919B0008A59B000854
:1000E00085A3000885A300080000000000000000B0
:1000F0000000000000000000000000000000000000
:100100000000000085A300080000000085A300088F
:10011000000000000000000085A30008B99B000853
:1001200085A3000885A3000885A3000885A300080F
:1001300085A300080000000000000000000000008F
:1001400085A3000885A3000885A30008CD9B0008AF
:1001500085A3000885A3000885A3000885A30008DF
:1001600085A3000885A3000885A3000800000000FF
:1001700085A3000885A3000885A3000800000000EF
:0C01800085A3000885A3000885A30008E3
:1001900010B5054C237833B9044B13B10448AFF3C1
:1001A00000800123237010BD940A0020000000008D
:1001B0005CAB010808B5034B1BB103490348AFF31F
:1001C000008008BD00000000980A00205CAB010818
:1001D000034613F8012B002AFBD1181A0138704787
:1001E00001F0FF01102A2BDB10F0070F08D010F8E8
:1001F000013B013A8B422DD010F0070F42B3F6D1EC
:10020000F0B441EA012141EA014122F007047FF004
:1002100000070023F0E80256083C85EA010586EA5B
:10022000010685FA47F5A3FA87F586FA47F6A5FA97
:1002300087F68EB9EED1F0BC01F0FF0102F00702A3
:1002400032B110F8013B013A83EA010313B1F8D14E
:100250000020704701387047002D06BF354603382F
:10026000073815F0010F07D1013015F4807F02BF68
:10027000013015F4C03F0130F0BC0138704700BFB9
:1002800081F0004102E000BF83F0004330B54FEA47
:1002900041044FEA430594EA050F08BF90EA020FB4
:1002A0001FBF54EA000C55EA020C7FEA645C7FEA47
:1002B000655C00F0E2804FEA5454D4EB5555B8BF6A
:1002C0006D420CDD2C4480EA020281EA030382EADB
:1002D000000083EA010180EA020281EA0303362D6D
:1002E00088BF30BD11F0004F4FEA01314FF4801C40
:1002F0004CEA113102D0404261EB410113F0004F52
:100300004FEA03334CEA133302D0524263EB430308
:1003100094EA050F00F0A780A4F10104D5F1200EA6
:100320000DDB02FA0EFC22FA05F2801841F1000101
:1003300003FA0EF2801843FA05F359410EE0A5F1D5
:1003400020050EF1200E012A03FA0EFC28BF4CF006
:10035000020C43FA05F3C01851EBE37101F00045BC
:1003600007D54FF0000EDCF1000C7EEB00006EEBC9
:100370000101B1F5801F1BD3B1F5001F0CD3490853
:100380005FEA30004FEA3C0C04F101044FEA4452AA
:1003900012F5800F80F09A80BCF1004F08BF5FEA31
:1003A000500C50F1000041EB045141EA050130BD11
:1003B0005FEA4C0C404141EB0101013C28BFB1F523
:1003C000801FE9D291F0000F04BF01460020B1FA6E
:1003D00081F308BF2033A3F10B03B3F120020CDA41
:1003E0000C3208DD02F1140CC2F10C0201FA0CF01F
:1003F00021FA02F10CE002F11402D8BFC2F1200C84
:1004000001FA02F120FA0CFCDCBF41EA0C01904039
:10041000E41AA2BF01EB0451294330BD6FEA040482
:100420001F3C1CDA0C340EDC04F11404C4F120026D
:1004300020FA04F001FA02F340EA030021FA04F37F
:1004400045EA030130BDC4F10C04C4F1200220FAD6
:1004500002F001FA04F340EA0300294630BD21FA14
:1004600004F0294630BD94F0000F83F4801306BFDA
:1004700081F480110134013D4EE77FEA645C18BFCE
:100480007FEA655C29D094EA050F08BF90EA020F65
:1004900005D054EA000C04BF1946104630BD91EA5D
:1004A000030F1EBF0021002030BD5FEA545C05D160
:1004B0004000494128BF41F0004130BD14F580049F
:1004C0003CBF01F5801130BD01F0004545F0FE4113
:1004D00041F470014FF0000030BD7FEA645C1ABF48
:1004E000194610467FEA655C1CBF0B46024650EA7F
:1004F000013406BF52EA033591EA030F41F40021AB
:1005000030BD00BF90F0000F04BF0021704730B530
:100510004FF4806404F132044FF000054FF0000105
:1005200050E700BF90F0000F04BF0021704730B5C6
:100530004FF4806404F1320410F0004548BF40429B
:100540004FF000013EE700BF42004FEAE2014FEAF0
:1005500031014FEA02701FBF12F07F4393F07F4FCB
:1005600081F06051704732F07F4208BF704793F0CE
:100570007F4F04BF41F40021704730B54FF46074E1
:1005800001F0004521F000411CE700BF50EA0102E4
:1005900008BF704730B54FF000050AE050EA01028D
:1005A00008BF704730B511F0004502D5404261EBFD
:1005B00041014FF4806404F132045FEA915C3FF43E
:1005C000D8AE4FF003025FEADC0C18BF03325FEADB
:1005D000DC0C18BF033202EBDC02C2F1200300FA8C
:1005E00003FC20FA02F001FA03FE40EA0E0021FAB1
:1005F00002F11444BDE600BF70B54FF0FF0C4CF49F
:10060000E06C1CEA11541DBF1CEA135594EA0C0F50
:1006100095EA0C0F00F0DEF82C4481EA030621EA8B
:100620004C5123EA4C5350EA013518BF52EA0335C6
:1006300041F4801143F4801338D0A0FB02CE4FF078
:100640000005E1FB02E506F00042E0FB03E54FF0A8
:100650000006E1FB03569CF0000F18BF4EF0010EA0
:10066000A4F1FF04B6F5007F64F5407404D25FEA9C
:100670004E0E6D4146EB060642EAC62141EA55514F
:100680004FEAC52040EA5E504FEACE2EB4F1FD0C91
:1006900088BFBCF5E06F1ED8BEF1004F08BF5FEA0F
:1006A000500E50F1000041EB045170BD06F00046C1
:1006B00046EA010140EA020081EA0301B4EB5C046E
:1006C000C2BFD4EB0C0541EA045170BD41F4801166
:1006D0004FF0000E013C00F3AB8014F1360FDEBF8B
:1006E000002001F0004170BDC4F10004203C35DA67
:1006F0000C341BDC04F11404C4F1200500FA05F3EA
:1007000020FA04F001FA05F240EA020001F000428A
:1007100021F0004110EBD37021FA04F642EB060100
:100720005EEA430E08BF20EAD37070BDC4F10C042A
:10073000C4F1200500FA04F320FA05F001FA04F2EE
:1007400040EA020001F0004110EBD37041F10001DA
:100750005EEA430E08BF20EAD37070BDC4F12005E5
:1007600000FA05F24EEA020E20FA04F301FA05F24D
:1007700043EA020321FA04F001F0004121FA04F2F5
:1007800020EA020000EBD3705EEA430E08BF20EAC5
:10079000D37070BD94F0000F0FD101F000464000FF
:1007A00041EB010111F4801F08BF013CF7D041EA81
:1007B000060195F0000F18BF704703F00046520085
:1007C00043EB030313F4801F08BF013DF7D043EA56
:1007D0000603704794EA0C0F0CEA135518BF95EA0C
:1007E0000C0F0CD050EA410618BF52EA4306D1D193
:1007F00081EA030101F000414FF0000070BD50EAB2
:10080000410606BF1046194652EA430619D094EA3B
:100810000C0F02D150EA013613D195EA0C0F05D125
:1008200052EA03361CBF104619460AD181EA030179
:1008300001F0004141F0FE4141F470014FF0000031
:1008400070BD41F0FE4141F4780170BD70B54FF0CC
:10085000FF0C4CF4E06C1CEA11541DBF1CEA13554C
:1008600094EA0C0F95EA0C0F00F0A7F8A4EB05042E
:1008700081EA030E52EA03354FEA013100F0888025
:100880004FEA03334FF0805545EA131343EA1263EE
:100890004FEA022245EA111545EA10654FEA0026A3
:1008A0000EF000419D4208BF964244F1FD0404F55C
:1008B000407402D25B084FEA3202B61A65EB0305B8
:1008C0005B084FEA32024FF480104FF4002CB6EB75
:1008D000020E75EB030E22BFB61A754640EA0C00F5
:1008E0005B084FEA3202B6EB020E75EB030E22BF35
:1008F000B61A754640EA5C005B084FEA3202B6EB76
:10090000020E75EB030E22BFB61A754640EA9C0034
:100910005B084FEA3202B6EB020E75EB030E22BF04
:10092000B61A754640EADC0055EA060E18D04FEAC2
:10093000051545EA16754FEA06164FEAC30343EA62
:1009400052734FEAC2025FEA1C1CC0D111F4801F2F
:100950000BD141EA00014FF000004FF0004CB6E728
:1009600011F4801F04BF01430020B4F1FD0C88BFC7
:10097000BCF5E06F3FF6AFAEB5EB030C04BFB6EBD2
:10098000020C5FEA500C50F1000041EB045170BDC5
:100990000EF0004E4EEA113114EB5C04C2BFD4EBF2
:1009A0000C0541EA045170BD41F480114FF0000E76
:1009B000013C90E645EA060E8DE60CEA135594EAF2
:1009C0000C0F08BF95EA0C0F3FF43BAF94EA0C0FF5
:1009D0000AD150EA01347FF434AF95EA0C0F7FF46A
:1009E00025AF104619462CE795EA0C0F06D152EABE
:1009F00003353FF4FDAE1046194622E750EA4106A2
:100A000018BF52EA43067FF4C5AE50EA41047FF4B2
:100A10000DAF52EA43057FF4EBAE12E74FF0FF3C17
:100A200006E000BF4FF0010C02E000BF4FF0010CE8
:100A30004DF804CD4FEA410C7FEA6C5C4FEA430C61
:100A400018BF7FEA6C5C1BD001B050EA410C0CBFB0
:100A500052EA430C91EA030F02BF90EA020F002012
:100A6000704710F1000F91EA030F58BF994208BF79
:100A700090422CBFD8176FEAE37040F00100704736
:100A80004FEA410C7FEA6C5C02D150EA013C07D18D
:100A90004FEA430C7FEA6C5CD6D152EA033CD3D0D8
:100AA0005DF8040B704700BF8446104662468C46D2
:100AB0001946634600E000BF01B5FFF7B7FF002805
:100AC00048BF10F1000F01BD4DF808EDFFF7F4FF2E
:100AD0000CBF012000205DF808FB00BF4DF808EDB9
:100AE000FFF7EAFF34BF012000205DF808FB00BFDC
:100AF0004DF808EDFFF7E0FF94BF012000205DF8FE
:100B000008FB00BF4DF808EDFFF7CEFF94BF0120B2
:100B100000205DF808FB00BF4DF808EDFFF7C4FFAB
:100B200034BF012000205DF808FB00BF4FEA410CF4
:100B30007FEA6C5C02D150EA013C0AD14FEA430CD7
:100B40007FEA6C5C02D152EA033C02D14FF0000014
:100B500070474FF0010070474FEA410212F5001252
:100B600015D211D56FF47873B3EB625212D94FEAF4
:100B7000C12343F0004343EA505311F0004F23FADE
:100B800002F018BF404270474FF00000704750EA33
:100B9000013005D111F0004008BF6FF000407047F0
:100BA0004FF00000704700BF4A0011D212F500124A
:100BB00011D20DD56FF47873B3EB62520ED44FEAB5
:100BC000C12343F0004343EA505323FA02F0704735
:100BD0004FF00000704750EA013002D14FF0FF3073
:100BE00070474FF0000070474FEA4102B2F1E04316
:100BF00024BFB3F5001CDCF1FE5C0DD901F0004C04
:100C00004FEAC0024CEA5070B2F1004F40EB830053
:100C100008BF20F00100704711F0804F21D113F17F
:100C20003872BCBF01F00040704741F480114FEAB8
:100C30005252C2F11802C2F1200C10FA0CF320FA41
:100C400002F018BF40F001004FEAC1234FEAD3235E
:100C500003FA0CFC40EA0C0023FA02F34FEA4303C8
:100C6000CCE77FEA625307D150EA01331EBF4FF051
:100C7000FE4040F44000704701F0004040F0FE406C
:100C800040F40000704700BF53B94AB9002908BFBB
:100C900000281CBF4FF0FF314FF0FF3000F06EB95D
:100CA000ADF1080C6DE904CE00F006F8DDF804E0C3
:100CB000DDE9022304B070472DE9F047089D0446A2
:100CC0008C46002B40F083808A42174647D9B2FAFF
:100CD00082F242B1C2F1200024FA00F09140974024
:100CE00040EA010C94404FEA1748230CBCFBF8F68D
:100CF0001FFA87FE08FB16C143EA014306FB0EF10B
:100D0000994209D9FB1806F1FF3080F01981994208
:100D100040F21681023E3B445B1AA4B2B3FBF8F0EA
:100D200008FB103344EA034400FB0EFEA64509D934
:100D30003C1900F1FF3380F00581A64540F20281A5
:100D400002383C4440EA0640A4EB0E0400261DB1E4
:100D5000D4400023C5E900433146BDE8F08702B91D
:100D6000FFDEB2FA82F2002A50D1CB1B4FEA174EB7
:100D70001FFA87F80126B3FBFEFC210C0EFB1C3387
:100D800041EA034108FB0CF38B4207D979180CF1B7
:100D9000FF3002D28B4200F2E9808446C91AA3B226
:100DA000B1FBFEF00EFB101143EA014408FB00F812
:100DB000A04507D93C1900F1FF3302D2A04500F24B
:100DC000D9801846A4EB080440EA0C40BFE78B42E8
:100DD00009D9002D00F0B1800026C5E90001304698
:100DE0003146BDE8F087B3FA83F6002E4AD18B4234
:100DF00002D3824200F2B880841A61EB0301012021
:100E00008C46002DA8D0C5E9004CA5E7C2F120030F
:100E100020FA03F6974001FA02F04FEA174ED94044
:100E20003043030CB1FBFEF61FFA87F80EFB1611D8
:100E300043EA014306FB08F1994204FA02F409D996
:100E4000FB1806F1FF3C80F08D80994240F28A80C9
:100E5000023E3B445B1A81B2B3FBFEF00EFB103343
:100E600041EA034100FB08F38B4207D9791800F1EE
:100E7000FF3C73D28B4271D902383944CB1A40EA15
:100E8000064678E7C6F1200C03FA06F422FA0CF3C2
:100E90001C4320FA0CF701FA06F34FEA144E21FA2C
:100EA0000CF11F433B0CB1FBFEF91FFA84F80EFB5B
:100EB000191143EA014109FB08FA8A4502FA06F2D0
:100EC00000FA06F308D9611809F1FF3048D28A45C3
:100ED00046D9A9F102092144A1EB0A01BFB2B1FB35
:100EE000FEF00EFB101147EA014700FB08F8B84579
:100EF00007D9E71900F1FF312ED2B8452CD90238B5
:100F0000274440EA0940A7EB0807A0FB02894F45A8
:100F1000C64649461AD317D05DB1B3EB0E0267EB54
:100F2000010707FA0CFCF2404CEA0202F740C5E95F
:100F3000002700263146BDE8F0872E4628460BE7FD
:100F40000646E9E61846FDE64345E5D2B8EB020E53
:100F500069EB04010138DFE70846D2E760468DE718
:100F60008146B9E7664675E730464AE7ACF1020CC0
:100F7000394413E702383C4424E700BF704700BF00
:100F800080B584B000AF78600B46FB704FF40770FB
:100F900016F082FCF860FB68002B05D17B6800220C
:100FA000C3F8BC22022366E07B68FA68C3F8BC225F
:100FB0007B681B7C002B19D14FF400730222812126
:100FC000786816F06BFA7B6801221A874FF4007379
:100FD00002220121786816F061FA7B680122A3F8E9
:100FE00078217B681022A3F84E2016E040230222CD
:100FF0008121786816F052FA7B6801221A87402313
:1010000002220121786816F049FA7B680122A3F8D0
:1010100078217B681022A3F84E2008230322822126
:10102000786816F03BFA7B680122A3F84C207B68B5
:10103000D3F8C0321B689847FB680022C3F814221B
:10104000FB680022C3F818227B681B7C002B09D1A7
:10105000FB68D3F804224FF400730121786816F07E
:1010600099FB07E0FB68D3F804224023012178684C
:1010700016F090FB002318461037BD4680BD80B5A2
:1010800082B000AF78600B46FB708121786816F063
:1010900043FA7B6800221A870121786816F03CFA2F
:1010A0007B680022A3F878218221786816F034FA50
:1010B0007B680022A3F84C207B680022A3F84E2016
:1010C0007B68D3F8BC32002B0ED07B68D3F8C032DB
:1010D0005B6898477B68D3F8BC32184616F0EAFB89
:1010E0007B680022C3F8BC22002318460837BD469F
:1010F00080BD000080B586B000AF786039607B6845
:10110000D3F8BC323B6100237B7300237B81002337
:10111000FB753B69002B01D10323AFE03B681B78D3
:1011200003F06003002B3FD0202B40F09F803B68F2
:10113000DB88002B2ED03B681B785BB2002B16DAC5
:101140007B68D3F8C0329B683A68507839693A684E
:10115000D28898473B68DB88072B28BF0723FB8191
:101160003B69FA891946786815F005FD85E03B680A
:101170005A783B6983F800223B68DB88DAB23B6926
:1011800083F8012239693B68DB881A46786815F0D4
:101190001EFD72E07B68D3F8C0329B683A685078D5
:1011A00000223968984768E03B685B780B2B52D87F
:1011B00001A252F823F000BFE911000865120008EF
:1011C000571200085712000857120008571200085B
:1011D000571200085712000857120008571200084B
:1011E000131200083D1200087B6893F89C32DBB2B2
:1011F000032B07D107F10A0302221946786815F07C
:10120000BAFC32E03968786815F044FC0323FB75BA
:101210002BE07B6893F89C32DBB2032B07D107F1FC
:101220000D0301221946786815F0A5FC1DE0396808
:10123000786815F02FFC0323FB7516E07B6893F8A4
:101240009C32DBB2032B0FD03968786815F022FC92
:101250000323FB7508E03968786815F01BFC03234D
:10126000FB7502E000BF08E000BF06E0396878685F
:1012700015F010FC0323FB7500BFFB7D18461837E3
:10128000BD4680BD80B584B000AF78600B46FB7072
:101290007B68D3F8C432FB607B68D3F8BC32002B88
:1012A00001D103234FE07B68D3F8BC32BB60FA78EE
:1012B000796813469B0013449B000B4418331B684A
:1012C000002B29D0FA78796813469B0013449B00C1
:1012D0000B4418331A68F978F8680B469B000B44E6
:1012E000DB00034438331B68B2FBF3F103FB01F36B
:1012F000D31A002B10D1FA78796813469B00134457
:101300009B000B44183300221A60F9780023002256
:10131000786816F007FA15E0BB680022C3F81422BB
:101320007B68D3F8C0321B69002B0BD07B68D3F8E5
:10133000C0321B69BA68D2F80802BA6802F50471B3
:10134000FA789847002318461037BD4680BD80B50F
:1013500084B000AF78600B46FB707B68D3F8BC327A
:10136000FB607B68D3F8BC32002B01D1032315E06E
:10137000FB781946786816F045FA0246FB68C3F810
:101380000C227B68D3F8C032DB68FA68D2F804021A
:10139000FA6802F503721146984700231846103781
:1013A000BD4680BD80B584B000AF78607B68D3F85F
:1013B000BC32FB60FB68002B01D103231BE07B6880
:1013C000D3F8C032002B15D0FB6893F80032FF2B06
:1013D00010D07B68D3F8C0329B68FA6892F800029C
:1013E000F968FA6892F8012292B29847FB68FF22E6
:1013F00083F80022002318461037BD4680BD000048
:1014000080B483B000AF78607B6843221A80034BBE
:1014100018460C37BD465DF8047B70478C000020F1
:1014200080B483B000AF78607B6843221A80034B9E
:1014300018460C37BD465DF8047B70474800002015
:1014400080B483B000AF78607B6843221A80034B7E
:1014500018460C37BD465DF8047B7047D00000206D
:1014600080B483B000AF78607B680A221A80034B97
:1014700018460C37BD465DF8047B7047000000201D
:1014800080B483B000AF786039603B68002B01D135
:10149000032304E07B683A68C3F8C022002318469F
:1014A0000C37BD465DF8047B704780B487B000AF51
:1014B000F860B9607A60FB68D3F8BC327B617B6905
:1014C000002B01D1032308E07B69BA68C3F8082226
:1014D0007B697A68C3F81022002318461C37BD4682
:1014E0005DF8047B704780B485B000AF78603960E8
:1014F0007B68D3F8BC32FB60FB68002B01D103236F
:1015000004E0FB683A68C3F8042200231846143745
:10151000BD465DF8047B704780B584B000AF78604D
:101520007B68D3F8BC32BB600123FB737B68D3F8C4
:10153000BC32002B01D103231AE0BB68D3F814326C
:10154000002B14D1BB680122C3F81422BB68D3F866
:1015500010227B68DA62BB68D3F80822BB68D3F834
:1015600010328121786816F0DDF80023FB73FB7BD5
:1015700018461037BD4680BD80B584B000AF786096
:101580007B68D3F8BC32FB607B68D3F8BC32002B9D
:1015900001D1032316E07B681B7C002B09D1FB687B
:1015A000D3F804224FF400730121786816F0F2F8A2
:1015B00007E0FB68D3F8042240230121786816F085
:1015C000E9F8002318461037BD4680BD80B500AF4E
:1015D000002205490548FFF768FF05490348FFF762
:1015E00082FF0023184680BDEC100020E03500206B
:1015F0001415002080B400AF00231846BD465DF8E6
:10160000047B704780B483B000AF03463960FB7140
:101610001346BB80FB79232B4AD801A252F823F052
:10162000B1160008B1160008B1160008B11600087E
:10163000B1160008B1160008B1160008B11600086E
:10164000B1160008B1160008B1160008B11600085E
:10165000B1160008B1160008B1160008B11600084E
:10166000B1160008B1160008B1160008B11600083E
:10167000B1160008B1160008B1160008B11600082E
:10168000B1160008B1160008B1160008B11600081E
:10169000B1160008B1160008B1160008B11600080E
:1016A000B1160008B1160008B1160008B1160008FE
:1016B00000BF002318460C37BD465DF8047B704719
:1016C00080B584B000AF7860396079680F48FFF763
:1016D0000AFF0E48FFF750FF402200210C4816F089
:1016E00035F93B681B68FB73FB7B1A467968084831
:1016F00016F01EF9FB7B1A460021786816F026F9D1
:10170000002318461037BD4680BD00BFE0350020DD
:10171000D414002080B584B000AF78600B467B8085
:101720000023FB730D4BD3F8BC32BB60BB68D3F80E
:101730001432002B01D001230BE07B881A46796814
:101740000648FFF7B2FE0548FFF7E6FE0346FB73C7
:10175000FB7B18461037BD4680BD00BFE03500203A
:1017600080B487B000AFF860B9601346FB71002306
:10177000FB7597F9173018461C37BD465DF8047B9A
:101780007047000080B582B000AF0346FB710E4B7E
:101790000E4A0F490F4805F069FB0E4806F07EFF20
:1017A00000210C4806F089FF0A4805F039FBFB7957
:1017B000002B01D000F07CFA064805F0EFFA00BFDC
:1017C0000837BD4680BD00BF4925000889240008B0
:1017D000E8C50108C426002080B500AF084B094ABF
:1017E00009490A4805F042FB084806F057FF002166
:1017F000064806F062FF054805F012FB00BF80BDF9
:101800004925000889240008E8C50108C4260020ED
:1018100080B5B8B000AF78613961FA60BB60AD4A9D
:1018200007F1D80392E80300186004331970AA4A3C
:1018300007F1D4031268114619800233120C1A7092
:10184000A64A07F1CC0392E803001860043319702C
:10185000A34BC7F8C830A34BC7F8C430A24A07F15E
:10186000BC0392E803001860043319809F4BC7F84B
:10187000B8300023C7F8983007F19C0300221A60A3
:101880005A609A60DA601A615A611A830023BB6752
:1018900007F17C0300221A605A609A60DA601A61CC
:1018A0005A611A830023BB6507F15C0300221A60AA
:1018B0005A609A60DA601A615A611A830023BB6326
:1018C00007F13C0300221A605A609A60DA601A61DC
:1018D0005A611A8300233B630023BB8607F19803F8
:1018E0008349184616F032FD07F19803D7F8EC103B
:1018F000184616F02BFD07F1D80207F198031146A0
:10190000184616F023FD3B6920331B68012B08D1D4
:1019100007F1BC0207F198031146184616F016FDB0
:101920000CE03B691C331B68012B07D107F1CC028B
:1019300007F198031146184616F008FD07F17803E1
:101940006C49184616F002FD07F17803D7F8F0103D
:10195000184616F0FBFC07F1D40207F17803114694
:10196000184616F0F3FC3B6924331B68012B07D1A2
:1019700007F1C80207F178031146184616F0E6FC95
:1019800007F158035C49184616F0E0FC07F15803CC
:10199000D7F8F410184616F0D9FC07F1D80207F171
:1019A00058031146184616F0D1FC3B692C331B68CE
:1019B000012B08D107F1BC0207F158031146184664
:1019C00016F0C4FC0CE03B6928331B68012B07D1DF
:1019D00007F1CC0207F158031146184616F0B6FC81
:1019E00007F138034549184616F0B0FC07F13803F3
:1019F000D7F8F810184616F0A9FC07F1D40207F141
:101A000038031146184616F0A1FC3B6930331B68B9
:101A1000012B07D107F1C40207F13803114618461C
:101A200016F094FC7B691033D3ED007AFCEEE77A74
:101A3000C7ED017A3B79DBB20A33DAB2304B1A7068
:101A40002F4B1B781A4607F130032E49184616F023
:101A50005DFC07F1B80207F130031146184616F095
:101A600075FC294805F09AF92849274805F094FFA4
:101A7000274B1B78642B05D1264B08222D212248A9
:101A800005F0E8FE244B1B78002B06D1234B1B7876
:101A9000FA68B968184600F049F8214B1B78002213
:101AA0006C21184600F0D2FD1E49174805F074FF5E
:101AB0001D4B1B781946F86800F076FA124805F0BD
:101AC00081F90346002BCFD100BF00BFE037BD46F0
:101AD00080BD00BF84AB01088CAB010890AB01084E
:101AE000203C3C00203E3E0098AB010820644200B0
:101AF000540700205C070020640700206C070020CA
:101B0000830B002078AB0108C4260020ACB101088B
:101B1000980B00207CAB0108B00A0020810B00204C
:101B2000800B0020A8B90108820B002080B58EB080
:101B300002AF0346B9607A60FB730023FB627B68E7
:101B400004331B68012B0AD17B6803F580731A6884
:101B500007F114034A49184616F0D8FB01E02E237A
:101B6000BB82BB6808331B68002B02D10023FB62D9
:101B700065E008F071FC0246BB6808331B68D31AA5
:101B8000404AA2FB03239B0B0133FB62FB6AB3F5C4
:101B9000F07F09D907F118033B4A126811461980F2
:101BA0000233120C1A7031E0FB6A3B2B1AD9FB6A24
:101BB000364AA2FB03235A0907F118033449184691
:101BC00016F0A4FB07F118031846FEF701FB0346C5
:101BD0001A4607F1180313442E491A460B461B8870
:101BE000138013E007F11803FA6A2949184616F022
:101BF0008DFB07F118031846FEF7EAFA03461A466A
:101C000007F118031344244A106818602349244834
:101C100005F0C2FE07F120032249184616F076FBB4
:101C200007F1180207F120031146184616F08EFB43
:101C300007F1200308220021194805F00BFEFB6A7A
:101C4000002B0DD0FB6A012B0AD8174B01930C23F4
:101C500000930C2300225A21114804F0D1FF0AE01E
:101C6000124B01930C2300930C2300225A210C48A1
:101C700004F0C6FF00BF00BF3037BD4680BD00BFC7
:101C8000A4AB010873B2E745A8AB0108898888882E
:101C9000ACAB0108B0AB0108B4AB0108ACB10108B2
:101CA000C4260020B8AB01083C0700202407002010
:101CB00080B586B000AF144A3B1D92E8030018605F
:101CC0000433198002330A0C1A7007F10B03002247
:101CD0001A605A609A601A730C4805F05FF80C4954
:101CE0000A4805F059FE3B1D14223221074805F031
:101CF000B1FD064805F066F80346002BF3D100BF9E
:101D000000BF1837BD4680BDDCAB0108C4260020EB
:101D100024B5010890B58BB002AFF860B9607A6065
:101D2000FB6890331B68002B00F0DF80714805F0E2
:101D300035F87B68002B0AD16F4B01932023009369
:101D40002023002205216B4804F05AFF09E06B4B69
:101D5000019320230093202300220521654804F0ED
:101D60004FFF6749634805F017FEBB681C6808F021
:101D700073FB0346E31A03F5EE432433FB61FB696F
:101D8000604AA2FB03239B09FB6107F11003FA6978
:101D90005D49184616F0BAFA2D23BB6100237B611A
:101DA000BB69D9B2594B0D22524805F053FD07F1DA
:101DB0001003192250214F4805F04CFDFB68903369
:101DC0001B680D2B06D1BB69D9B2514B0D22494876
:101DD00005F040FDFB6890331B68012B06D1BB6901
:101DE000D9B24C4B0D22434805F034FDFB689033CB
:101DF0001B68022B06D1BB69D9B2474B0D223D4867
:101E000005F028FDFB6890331B68032B06D1BB69E6
:101E1000D9B2424B0D22374805F01CFDFB689033C8
:101E20001B68072B05D13E4B0D223221314805F0AE
:101E300011FDFB6890331B68082B0BD1384B0D222A
:101E400032212C4805F006FD364B1E22642129481C
:101E500005F000FDFB6890331B68092B0BD1324B5A
:101E60000D223221234805F0F5FC304B1E2264215F
:101E7000204805F0EFFCFB6890331B680A2B0BD160
:101E80002B4B0D2232211B4805F0E4FC294B1E226E
:101E90006421184805F0DEFCFB6890331B680B2BAF
:101EA0000BD1234B0D223221124805F0D3FC1D4BE0
:101EB0001E2264210F4805F0CDFCFB6890331B689F
:101EC0000C2B0BD11C4B0D2232210A4805F0C2FC11
:101ED0001A4B1E226421074805F0BCFC054804F09B
:101EE00071FF0346002B7FF424AF00BF2437BD46AB
:101EF00090BD00BFC426002028010020A8010020BA
:101F0000A8B90108D34D6210ACAB0108F0AB0108D1
:101F1000F8AB010808AC010814AC010824AC0108B6
:101F200030AC010834AC01083CAC010844AC0108F9
:101F300048AC01084CAC010850AC010858AC010891
:101F400080B582B002AF134804F028FF124B019312
:101F5000202300932023002205210E4804F050FE88
:101F60000E490C4805F018FD0D4B0D223221094891
:101F700005F070FC0B4B1E223221064805F06AFC6E
:101F8000044804F01FFF0346002BDFD100BF00BF51
:101F9000BD4680BDC426002028010020A8B9010844
:101FA0005CAC0108F0AB010880B59EB000AF786072
:101FB0000B46FB706549664805F0EEFC654B1B78E7
:101FC000012B00F0BE807B68AC331B68012B13D162
:101FD000614B1E2201215E4805F03CFC07F1240301
:101FE0005E49184616F092F907F1240312220121E6
:101FF000574805F02FFCA4E07B68A8331B680E2B24
:1020000015DC7B68A8331B68052B10DD08F024FA6B
:102010000246534B5B69D31A42F20F72934206D8C1
:10202000504B1E2202214A4805F014FC89E07B68CF
:10203000A8331B68042B10DC08F00EFA0246484B4C
:102040005B69D31A42F20F72934206D8464B1E22A6
:1020500002213F4805F0FEFB73E0444B1B78012B47
:102060003AD1434B1B78012B08D1424B1A6807F138
:102070005C034149184616F049F908E03D4B1A68DF
:102080003E4B1B6807F15C003D4916F03FF907F134
:102090005C03142200212E4805F0DCFB344B1B7836
:1020A000022B08D1374B1A6807F15C0336491846F2
:1020B00016F02CF908E0334B1A68344B1B6807F113
:1020C0005C00334916F022F907F15C031E2200215F
:1020D0001F4805F0BFFB34E07B68A0331B68012B71
:1020E00006D12C4B1E220221194805F0B3FB28E033
:1020F0007B6804331B68012B04D07B68F0331B68BA
:10210000012B06D1244B1E220221114805F0A2FB0F
:1021100017E07B6804331B68002B0BD17B688C3382
:102120001B68002B06D11D4B1E220221084805F01A
:1021300091FB06E01A4B1E220221054805F08AFB9E
:10214000FFE700BF7837BD4680BD00BFA8B90108D2
:10215000C4260020B00A002064AC010878AC010855
:102160007828002088AC010898AC0108990B002061
:102170007E0B0020700B0020B0AC01086C0B00201F
:10218000C8AC0108780B0020DCAC0108740B0020FF
:10219000F4AC010808AD01081CAD010830AD010820
:1021A00038AD010880B584B002AF0346FB71FB79FE
:1021B000013B072B00F2288101A252F823F000BF57
:1021C000E12100082922000871220008B922000834
:1021D000012300084923000891230008CD230008AB
:1021E0008B4804F0DBFD8B4B0193202300932023CD
:1021F00000220021864804F003FD8749844805F049
:10220000CBFB864B0C222D21814805F023FB844B10
:102210001C2232217E4805F01DFB7D4804F0D2FDD2
:102220000346002BDFD1EFE0794804F0B7FD7D4B8A
:10223000019320230093202300220021744804F0FE
:10224000DFFC7549724805F0A7FB744B0C222D2169
:102250006F4805F0FFFA724B1C2232216C4805F0E2
:10226000F9FA6B4804F0AEFD0346002BDFD1CBE05A
:10227000674804F093FD6C4B0193202300932023C7
:1022800000220021624804F0BBFC6349604805F06D
:1022900083FB624B0C222D215D4805F0DBFA634B7A
:1022A0001C2232215A4805F0D5FA594804F08AFD1B
:1022B0000346002BDFD1A7E0554804F06FFD5C4BCF
:1022C000019320230093202300220021504804F092
:1022D00097FC51494E4805F05FFB504B0C222D21D5
:1022E0004B4805F0B7FA514B1C223221484805F003
:1022F000B1FA474804F066FD0346002BDFD183E0C6
:10230000434804F04BFD4B4B0193202300932023C3
:10231000002200213E4804F073FC3F493C4805F090
:102320003BFB3E4B0C222D21394805F093FA424BE2
:102330001C223221364805F08DFA354804F042FD62
:102340000346002BDFD15FE0314804F027FD3B4B13
:102350000193202300932023002200212C4804F025
:102360004FFC2D492A4805F017FB2C4B0C222D2140
:10237000274805F06FFA304B1C223221244805F023
:1023800069FA234804F01EFD0346002BDFD13BE031
:102390001F4804F003FD2A4B0193202300932023C0
:1023A000002200211A4804F02BFC1B49184805F0B4
:1023B000F3FA1A4B14222821154805F04BFA144859
:1023C00004F000FD0346002BE5D11DE0104804F0A9
:1023D000E5FC1C4B019320230093202300220021C5
:1023E0000B4804F00DFC0C49094805F0D5FA0B4BDD
:1023F00014222821064805F02DFA054804F0E2FCD5
:102400000346002BE5D100BF00BF0837BD4680BDA5
:10241000C426002028020020A8B9010840AD010808
:102420004CAD0108A80200202803002058AD010887
:10243000A80300202804002064AD0108A80400209F
:1024400028050020A805002080B582B000AF786084
:102450000B4804F0A3FC0B49094805F09DFA7B6882
:102460000F220021064805F0F5F9054804F0AAFC02
:102470000346002BEFD100BF00BF0837BD4680BD2B
:10248000C426002094BD010880B588B002AFF86072
:102490007B600B46FB721346BB72FB7A143B0C2B22
:1024A00044D801A252F823F0312500082D25000858
:1024B0002D250008DD2400080D250008152500083D
:1024C0002D2500082D2500082D2500082D250008A4
:1024D0002D2500082D250008312500087B687B612B
:1024E00010E0164B1B785A1CD1B2144A11701A46D0
:1024F0007B691978124B99547B6901337B61BB7AF4
:10250000013BBB72BB7A002BEBD112E00B4B0022DC
:102510001A700EE0094B1B789BB24FF47A7200924E
:10252000074A782107480AF0C9FA02E0002301E0CF
:1025300000BF012318461837BD4680BDB10A0020F0
:10254000B40A0020601D002080B584B000AFF860A0
:102550007B600B46FB721346BB72FB7A283B252B34
:1025600067D801A252F823F00126000809260008C6
:102570003326000833260008332600083D260008CD
:1025800033260008332600083326000833260008C7
:1025900033260008332600083326000833260008B7
:1025A00033260008332600083326000833260008A7
:1025B0003326000833260008332600083326000897
:1025C0003326000833260008332600083326000887
:1025D0003326000833260008332600083326000877
:1025E0003326000833260008332600083326000867
:1025F0003326000833260008132600082326000887
:10260000012007F035FF1AE0BB7A184607F030FFCB
:1026100015E0BB7A1A464FF400510B480AF0A6F9B0
:102620000DE0BB7A1A464FF4804107480AF09EF944
:1026300005E0FB68012283F8282000E000BF0123A9
:1026400018461037BD4680BD0004004880B584B0F0
:1026500002AF0346FB710B46BB7113467B71FB79DE
:102660000A2B0AD8B979374B01930C230093142312
:102670000022354804F0C4FA5FE0FB790A2B0DD93B
:10268000FB791D2B0AD8B979304B01930C230093A9
:10269000142300222C4804F0B3FA4EE0FB791D2BE2
:1026A0000DD9FB79312B0AD8B979294B01930C2329
:1026B000009314230022244804F0A2FA3DE0FB79A1
:1026C000312B0DD9FB79452B0AD8B979214B0193D0
:1026D0000C230093142300221B4804F091FA2CE0F1
:1026E000FB79452B0DD9FB79592B0AD8B9791A4BAF
:1026F00001930C23009314230022134804F080FA62
:102700001BE0FB79592B0DD9FB79642B0AD8B979D9
:10271000124B01930C230093142300220A4804F067
:102720006FFA0AE0B9790E4B01930C23009314233E
:102730000022054804F064FAFFE700BF0837BD46F1
:1027400080BD00BF28060020C42600204C060020C3
:102750007006002094060020B8060020DC06002049
:102760000007002080B582B000AF7860012000F043
:10277000A1FE786807F07CFE002000F09BFE00BF01
:102780000837BD4680BD000080B58AB004AFF86050
:10279000B9607A600023FB75164B1B78002B10D1B3
:1027A000642302930123019307F11703009301238C
:1027B00001228E2110480AF075FA03461A460D4B85
:1027C0001A70FB7D03F01003002B00DA0F331B118E
:1027D0001A46FB681A60FB7D03F00803002B00DA41
:1027E0000733DB101A46BB681A6000BF1837BD46B6
:1027F00080BD00BF690B0020AC1D00200000000060
:1028000080B592B004AFF860B9607A603B603B6815
:10281000EC331B68002B40F0388100237B750023CC
:102820003B753B68EC3301221A609D4B1B78002BF3
:1028300040F08180642302930223019307F1140383
:102840000093012319226C2196480AF02BFA0346C3
:102850001A46934B1A707B7D3B633B6B1B023B63B9
:10286000386BFDF74FFE4FF000028F4BFDF7EEFF88
:1028700002460B4610461946FEF796F903463B639F
:10288000386BFDF73FFE4FF00002884BFDF7B4FEBA
:1028900002460B4610461946FEF75EF90346FB62F8
:1028A000FB6A40F6E342934219DDFB6A41F2030200
:1028B000934211DCFB6AA3F6E4433B633B6B642267
:1028C00002FB03F33B633B6B794AA2FB03231B0A26
:1028D0003B633B6B7B630CE064237B6309E0FB6A37
:1028E00040F61B42934202DCFF237B6301E001239D
:1028F0007B63FB6A40F6D762934205DC3B6803F5D5
:10290000A47301221A6004E03B6803F5A47300225B
:102910001A60FB681B687A6B9A4208DBBB68012B64
:1029200005D07B68012B02D07B6BFF2B08D1FB68A5
:102930007A6B1A6004E03B68D3F8A820FB681A6041
:102940003B68EC3300221A6000237B857B7D9BB2C1
:102950001A461202D31A9AB23B7D9BB213447B856E
:102960007B8D1846FDF7DEFD4FF00002514BFDF761
:1029700043FE02460B46104619464FF000024E4BEE
:10298000FDF764FF02460B4610461946FEF72CF988
:1029900003467B6200237B847B7D9BB21A46120236
:1029A000D31A9AB23B7D9BB213447B8400233B84B1
:1029B0000023FB830023BB837B7DBB83BB8B1B027C
:1029C000BB833B7D9AB2BB8B1344BB83BB8BFB8326
:1029D000B7F91E301846FDF7A5FD2FA3D3E9002354
:1029E000FDF70AFE02460B46104619464FF000025C
:1029F000314BFDF72BFF02460B4610461946FEF7FA
:102A0000ABF80346FB83B7F91E30002BB8BF5B421F
:102A10009AB23B6803F5B4731A6000237B837B7D15
:102A20007B833B7D3B833B8BFB830023FB827B7D56
:102A30009BB21A461202D31A9AB23B7D9BB2134440
:102A4000FB82FB8A1D4AA2FB03235B09FB82FB8AF4
:102A50001A4AA2FB03235B09FB820023FB827B7DD6
:102A60009BB21A461202D31A9AB23B7D9BB2134410
:102A7000FB82FB8A114AA2FB03235B09FB82FB8AD0
:102A80000E4AA2FB03235B09FB8200BF3837BD4619
:102A900080BD00BFAFF300800000000000886340ED
:102AA000690B0020AC1D0020000030400000F43F06
:102AB0001F85EB5100407F4000408F408988888807
:102AC00080B500AF00224FF48061002000F03EF896
:102AD0000346184680BD000080B588B000AF0346AD
:102AE000FB7109F0CBFA0123BB617F237B610023DB
:102AF000FB6001233B6107F11C0207F10C03114647
:102B0000184609F0A1FB0346002B15D109F0D8FAAD
:102B1000FB69B3F1FF3F01D0002310E0FB7983F0A4
:102B20000103DBB2002B05D04FF48062FF21064881
:102B300014F00CFF012302E009F0C2FA002318464A
:102B40002037BD4680BD00BFFC18002080B487B090
:102B500000AFF860B9607A60FA68BB681344B3F5F7
:102B6000006F01D900232BE0FB687B6121E07B68CB
:102B7000002B0BD07B6903F1006303F57E331B78D8
:102B8000DAB27B681A707B6801337B607B69B3F5CE
:102B9000806F0BD27B6903F1006303F57E331B78F2
:102BA000D9B20A4A7B6913440A461A707B69013319
:102BB0007B61BA68FB6813447A699A42D7D30123D0
:102BC00018461C37BD465DF8047B7047FC18002092
:102BD0002DE9F04F91B000AFF862B9627A62FA6AFB
:102BE000BB6A1344B3F5006F01D90023C2E07B6ACE
:102BF000002B01D10023BDE009F040FA0023FB6364
:102C0000B0E07A6AFB6B13441B78DAB24FF0000332
:102C1000C7E90C23FB6B5A1C7B6A13441B781B020D
:102C200018464FEAE071D7E90C23141843EB01056D
:102C3000C7E90C45FB6B9A1C7B6A13441B781B0489
:102C400018464FEAE071D7E90C2312EB000843EB7A
:102C50000109C7E90C89FB6BDA1C7B6A13441B78FA
:102C60001B0618464FEAE071D7E90C2312EB000A65
:102C700043EB010BC7E90CABFB6B1A1D7B6A1344DA
:102C80001B78DAB24FF000034FF000004FF0000164
:102C900011000020D7E90C231618BE614B41FB61DF
:102CA000D7E90623C7E90C23FB6B5A1D7B6A134443
:102CB0001B78DAB24FF000034FF000004FF0000134
:102CC00011020020D7E90C2316183E614B417B61AD
:102CD000D7E90423C7E90C23FB6B9A1D7B6A1344D5
:102CE0001B78DAB24FF000034FF000004FF0000104
:102CF00011040020D7E90C231618BE604B41FB607D
:102D0000D7E90223C7E90C23FB6BDA1D7B6A134466
:102D10001B78DAB24FF000034FF000004FF00001D3
:102D200011060020D7E90C2316183E604B417B604A
:102D3000D7E90023C7E90C23FA6BFB6A134403F1BC
:102D4000006101F57E31D7E90C23002009F02AF952
:102D50000346002B03D009F0B3F900230AE0FB6B14
:102D60000833FB63FA6BBB6A9A42FFF44AAF09F07F
:102D7000A7F9012318464437BD46BDE8F08F00008F
:102D800080B584B000AFF860B9607A60FA68BB685B
:102D90001344B3F5806F01D900230DE07B68002B4D
:102DA00001D1002308E0FB68054A1344BA6879683A
:102DB000184614F0BDFD012318461037BD4680BDEE
:102DC000FC18002080B500AF0120FFF785FE034608
:102DD00083F00103DBB2002B01D0002306E0044A9C
:102DE0004FF480610020FFF7F3FE0346184680BDD4
:102DF000FC18002080B485B000AF78600B467B8063
:102E00000023FB81134A7B8813800FE0114B1B8842
:102E10001A467B6813441B789AB2FB891344FB81E2
:102E20000C4B1B8801339AB20A4B1A80094B1B8842
:102E30001A467B880A339A42E8DDFB89064AA2FBE0
:102E40000323DB08FB81FB8918461437BD465DF878
:102E5000047B7047900B0020A38B2EBA80B586B000
:102E600000AF7860396007F0F7FAF8600023FB8262
:102E700000237B7551E0FB8A5B007A6813441B8852
:102E8000982B47D801237B75FB8A7B820CE07B8AD9
:102E90005B007A6813441B88992B02D900237B7549
:102EA00007E07B8A01337B827A8AFB8A02339A426B
:102EB000EDDD7B7D012B16D1FB8A3B820EE03B8A48
:102EC0005B007A6813441B88CE2B02D901237B75E3
:102ED00009E000237B753B8A01333B823A8AFB8AF7
:102EE0003A339A42EBDD7B7D012B13D1FB8A6D33A4
:102EF0009BB219463868FFF77DFF03467B817B89CB
:102F00008C2B05D87B89712B02D901237B750BE0B3
:102F100000237B75FB8A0133FB82FB8AB3F58D7F2F
:102F200002D87B7D002BA6D07B7D18461837BD4686
:102F300080BD80B586B000AF786000237B61002340
:102F40003B610123FB6007F1100107F114037A686C
:102F50001846FFF719FC07F10C007B6801220121DC
:102F6000FFF74EFCFB68FF2B06D17B686422002133
:102F7000002000F0DFFD2CE03B69012B02D07B69D3
:102F8000012B09D1FB68632B06DC7B680022002142
:102F9000322000F0CFFD1CE03B69012B02D07B69A1
:102FA000012B09D1FB68642B06D17B68002200212C
:102FB000002000F0BFFD0CE03B69002B09D17B69CC
:102FC000002B06D17B6800220021002000F0B2FD1A
:102FD000FFE700BF1837BD4680BD80B485B000AFA5
:102FE000BA607B600346FB730B46BB81FB7B8C2B7B
:102FF00023D8FB7B712B20D97B6828331B68012BDE
:103000001BD1BB6808331B68002B16D1BB68343357
:103010001B68002B11D17B6844331A6801321A6097
:103020007B6844331A687B6838331B689A420DDB2F
:103030007B682C3301221A6008E07B682C33002265
:103040001A607B68443300221A6000BF00BF143747
:10305000BD465DF8047B704780B582B000AF034683
:10306000FB7110E000F058FA0346012B09D14FF430
:103070007A72FA21012006F0A7FCFB79013BFB7173
:1030800001E0002303E0FB79002BEBD1012318467C
:103090000837BD4680BD0000B0B588B000AF6B46B4
:1030A0001D46584B1C782346013B7B61E0B24FF034
:1030B00000014FF000024FF00003CB0043EA5073D1
:1030C000C200E0B24FF000014FF000024FF00003E9
:1030D000CB0043EA5073C20023460733DB08DB0012
:1030E000ADEB030D6B4600333B610023FB76FFF72E
:1030F000E7FC21463B691A460020FFF727FD002325
:10310000FB610BE03A69FB6913441B78FF2B02D18A
:10311000FB7E0133FB76FB690133FB612246FB69D1
:103120009A42EFD2FB7E002B67D0374B01221A70F8
:10313000354B02225A70344B03229A70324B0422D0
:10314000DA70314B05221A712F4B06225A712E4B21
:1031500007229A712C4B0822DA712B4B09221A7222
:10316000294B63225A72284B0B229A72264B0C224F
:10317000DA72254B0D221A73234B0E225A73224BFF
:103180000F229A73204B1B783B701F4B5B787B7030
:103190001D4B9B78BB701C4BDB78FB701A4B1B796B
:1031A0003B71194B5B797B71174B9B79BB71164B4C
:1031B000DB79FB71144B1B7A3B72134B5B7A7B728E
:1031C000114B9B7ABB72104BDB7AFB720E4B1B7B55
:1031D0003B730D4B5B7B7B730B4B9B7BBB733B460A
:1031E0001A460F210020FFF7CBFDFFF7EBFD4FF450
:1031F0007A72C821032006F0E7FBAD4600BF2037F6
:10320000BD46B0BD78070020DC100020B0B582B00C
:1032100000AF6B461D46364B1C782346013B7B6056
:10322000E0B24FF000014FF000024FF00003CB007E
:1032300043EA5073C200E0B24FF000014FF00002C9
:103240004FF00003CB0043EA5073C200234607331C
:10325000DB08DB00ADEB030D6B4600333B60FFF793
:103260002FFC21463B681A460020FFF76FFC3B68A5
:103270001A78204B1A703B685A781E4B5A703B687C
:103280009A781C4B9A703B68DA781A4BDA703B6874
:103290001A79184B1A713B685A79164B5A713B6868
:1032A0009A79144B9A713B68DA79124BDA713B6860
:1032B0001A7A104B1A723B685A7A0E4B5A723B6854
:1032C0009A7A0C4B9A723B68DA7A0A4BDA723B684C
:1032D0001A7B084B1A733B685A7B064B5A733B6840
:1032E0009A7B044B9A73AD4600BF0837BD46B0BD0C
:1032F00078070020CC10002080B582B000AF786045
:103300007B68012B05D101222021064809F02EFB04
:1033100004E000222021034809F028FB00BF083701
:10332000BD4680BD0004004880B582B000AF786023
:103330007B68012B05D101221021064809F016FBFC
:1033400004E000221021034809F010FB00BF0837F9
:10335000BD4680BD0004004880B582B000AF7860F3
:103360007B68012B05D101220821064809F0FEFAED
:1033700004E000220821034809F0F8FA00BF0837EA
:10338000BD4680BD0004004880B582B000AF7860C3
:103390007B68012B07D101224FF480714FF09040E0
:1033A00009F0E4FA06E000224FF480714FF09040FB
:1033B00009F0DCFA00BF0837BD4680BD80B582B099
:1033C00000AF78607B68012B06D101224FF40041E9
:1033D000064809F0CBFA05E000224FF4004103480B
:1033E00009F0C4FA00BF0837BD4680BD000400489C
:1033F00080B582B000AF78607B68012B06D10122D6
:103400004FF48051064809F0B1FA05E000224FF46C
:103410008051034809F0AAFA00BF0837BD4680BDB5
:103420000004004880B582B000AF78607B68012B53
:1034300005D101220421064809F098FA04E000228F
:103440000421034809F092FA00BF0837BD4680BD49
:103450000004004880B582B000AF78607B68012B23
:1034600005D101220221064809F080FA04E0002279
:103470000221034809F07AFA00BF0837BD4680BD33
:103480000004004880B582B000AF78607B68012BF3
:1034900005D101220121064809F068FA04E0002262
:1034A0000121034809F062FA00BF0837BD4680BD1C
:1034B0000004004880B582B000AF78607B68012BC3
:1034C00006D1012208214FF0904009F04FFA05E0A3
:1034D000002208214FF0904009F048FA00BF083759
:1034E000BD4680BD80B582B000AF78607B68012B9F
:1034F00006D101224FF40051064809F037FA05E0E1
:1035000000224FF40051034809F030FA00BF083799
:10351000BD4680BD0008004880B582B000AF0023E2
:103520007B604FF48071064809F008FA0346002BCF
:1035300001D101237B607B6818460837BD4680BDFA
:103540000004004880B582B000AF00237B604FF4D8
:103550000071064809F0F2F90346002B01D101235E
:103560007B607B6818460837BD4680BD0004004874
:1035700080B500AF002102480CF0ECFF00BF80BD19
:10358000E032002080B500AF002102480DF0C0F805
:1035900000BF80BDE032002080B586B000AF0120C2
:1035A000FFF758FF012006F063FF114A07F10C03F3
:1035B00007CA83E807000F4A3B1D92E8030083E82F
:1035C000030007F10C030C2219460B480EF066F8B5
:1035D000142006F04DFF3B1D0822194606480EF048
:1035E0005DF8142006F044FF00BF1837BD4680BDCB
:1035F00070AD01087CAD01088C34002080B485B02A
:1036000000AF78600B46FB700023FB730023BB7395
:103610000223BB600DE0BB687A6813441A78FB7B19
:103620001344FB73BA7BFB7B1344BB73BB6801334E
:10363000BB60FB78023BBA689A42ECDBBB687A68F5
:103640001344FA7B1A70BB680133BB60BB687A68AD
:103650001344BA7B1A7000BF1437BD465DF8047B73
:103660007047000090B5BBB000AF664A07F1DC03BD
:1036700007CA83E80700644A07F1D40392E803000D
:1036800083E80300614B07F1C4040FCB84E80F000B
:103690005F4B07F1B4040FCB84E80F005D4B07F1DB
:1036A000A4040FCB84E80F005B4B07F194040FCB0D
:1036B00084E80F00594B07F184040FCB84E80F0016
:1036C000574B07F174040FCB84E80F00554B07F1FB
:1036D00064040FCB84E80F00534B07F154040FCB65
:1036E00084E80F00514B07F144040FCB84E80F002E
:1036F0004F4A3B4611464422184614F019F93B46FE
:1037000044211846FFF77AFF07F1540310211846A9
:10371000FFF774FF0120FFF79DFE012006F0A8FED1
:1037200007F1DC030C22194642480DF0B7FF642074
:1037300006F09EFE07F1D403082219463D480DF01D
:10374000ADFF642006F094FE07F1C4031022194671
:1037500038480DF0A3FF1E2006F08AFE07F1B403DF
:103760001022194633480DF099FF1E2006F080FE06
:1037700007F1A403102219462E480DF08FFF1E20DA
:1037800006F076FE07F194031022194629480DF041
:1037900085FF1E2006F06CFE07F1840310221946F7
:1037A00024480DF07BFF1E2006F062FE07F1640343
:1037B000102219461F480DF071FF1E2006F058FE1A
:1037C00007F17403102219461A480DF067FFC8204C
:1037D00006F04EFE3B464422194616480DF05EFFA9
:1037E000C82006F045FE07F144031022194611488F
:1037F0000DF054FF1E2006F03BFE00BFEC37BD4627
:1038000090BD00BF84AD01087CAD010890AD0108FA
:10381000A0AD0108B0AD0108C0AD0108D0AD0108F0
:10382000E0AD0108F0AD010800AE010810AE0108DE
:1038300020AE01088C34002080B584B002AF0F4B5D
:1038400000221A7020233B717F237B713A1D1423C1
:103850000093022332210A4809F030F923233B71F7
:1038600018237B713A1D142300930223322104484C
:1038700009F024F900BF0837BD4680BD980B002031
:10388000AC1D002080B586B004AF78603A4B1B7841
:10389000002B33D17B6801330A220292012201926C
:1038A0000093012329223321344809F0FBF9034610
:1038B0001A46314B1A707B6803330A2202920122A6
:1038C0000192009301232B2233212C4809F0EAF9BD
:1038D00003461A46284B1A707B6805330A22029267
:1038E00001220192009301232D223321234809F064
:1038F000D9F903461A46204B1A7005E0012006F05C
:10390000B7FD1D4B00221A701D4B1B78C72B2CD8FE
:103910001C4B1B78632B28D8194B1B780133DAB268
:10392000174B1A707B681B78002B1ED17B68013304
:103930001B78002B19D17B6802331B78002B14D124
:103940007B6803331B78002B0FD17B6804331B7813
:10395000002B0AD17B6805331B78002B05D1094B5E
:103960001B780133DAB2074B1A70786800F00CF854
:1039700000BF0837BD4680BD690B0020AC1D00208C
:10398000D60A0020980B002080B582B000AF786086
:103990007B6801331B785BB207EE903AB8EEE77AAA
:1039A000DFED406AC7EE267A3F4BC3ED007A7B68B5
:1039B00003331B785BB207EE903AB8EEE77ADFED9F
:1039C000396AC7EE267A384BC3ED017A7B68053336
:1039D0001B785BB207EE903AB8EEE77ADFED316A1A
:1039E000C7EE267A304BC3ED027A2F4BD3ED017A26
:1039F000B1EE007A77EE677A9FED2C7A67EE877AE0
:103A0000FCEEE77A17EE903A9BB2DB089AB2284BAD
:103A10001A80254B93ED007A234BD3ED007A27EEE5
:103A2000277A214BD3ED016A1F4BD3ED017A66EE65
:103A3000A77A37EE277A1C4BD3ED026A1A4BD3EDE7
:103A4000027A66EEA77A77EE277A17EE900AFCF7ED
:103A50007BFD02460B4643EC102B16F097FF53EC10
:103A6000102B10461946FDF7BFF803460E4AD360E7
:103A70000D4BD3ED037AB1EE007A77EE877A9FEDA6
:103A80000B7A27EE877AF2EE006AC7EE267AFCEE12
:103A9000E77A17EE903A9AB2064B1A8000BF0837C1
:103AA000BD4680BD00000042401F002000007F4353
:103AB000C02600204C25002080B586B002AF78607B
:103AC0007B68EC331B68002B2ED17B68EC33012222
:103AD0001A600120FFF7D6FC20233B7340237B7341
:103AE0006023BB7307F10C020A23009303239A217E
:103AF0000F4808F0E3FF80233B73A0237B73C023B0
:103B0000BB73012006F0B4FC07F10C020A230093FA
:103B100003239A21064808F0D1FF0020FFF7B2FCEA
:103B20007B68EC3300221A6000BF1037BD4680BDB1
:103B3000AC1D002080B588B002AFF860B9607A6033
:103B40003B603B68EC331B68002B37D13B68EC33A0
:103B500001221A600120FFF795FC20233B754023CA
:103B60007B756023BB753A7DFB68002B00DA073359
:103B7000DB10DBB21344DBB23B757A7DBB68002BF4
:103B800000DA0733DB10DBB21344DBB27B75BA7D9E
:103B90007B68002B00DA0733DB10DBB21344DBB2A7
:103BA000BB7507F114020A23009303239A210548E9
:103BB00008F084FF3B68EC3300221A6000BF18371E
:103BC000BD4680BDAC1D002080B582B000AF002393
:103BD0007B60FFF7A1FC0346002B0AD10120FFF711
:103BE000A3FB0020FFF7B8FB01237B60642006F0F5
:103BF0003FFC7B6818460837BD4680BD80B500AFE6
:103C00000120FFF7F5FB0120FFF76CFC0020FFF718
:103C1000EFFB012006F02CFC0120FFF763FC0120E4
:103C200006F026FC00BF80BD80B500AF0120FFF785
:103C3000DFFB0020FFF756FC00BF80BD80B483B0DF
:103C400000AF786039607B6801221A607B680433BA
:103C50003A681A607B68083301221A607B680C336B
:103C600000221A607B68103300221A6000BF0C37F4
:103C7000BD465DF8047B704780B584B000AF7860C6
:103C80000023FB607B681B68012B3ED106F0E4FB40
:103C9000B8607B6808331A687B680C331B689A42EB
:103CA0002AD17B6810331B68BA68D21A7B68083344
:103CB0001B6804339B0079680B441B689A4224D329
:103CC0007B6808331B68FB607B6808331A687B6875
:103CD000083301321A607B6808331A687B68043342
:103CE0001B689A4211D97B68083301221A607B68ED
:103CF0000C3300221A6008E07B681033BA681A603F
:103D00007B680C337A6892681A60FB681846103733
:103D1000BD4680BD80B500AF0120FFF783FB0320C7
:103D200006F0A6FB0020FFF77DFB00BF80BD000072
:103D300090B5A1B01EAF78600A4C684604F10C0340
:103D40007822194613F0F4FD94E80E00064800F0BE
:103D50002DFA4FF4FA6006F08BFB00BF0C37BD461E
:103D600090BD00BF1035002064AE010880B400AFE4
:103D700000BFBD465DF8047B704780B400AF00BF54
:103D8000BD465DF8047B704780B48DB000AF7860AD
:103D900000BF3437BD465DF8047B704780B400AF88
:103DA00000BFBD465DF8047B704780B491B000AFA2
:103DB0007860396000BF4437BD465DF8047B7047CA
:103DC000F0B5ADB00EAF78633963FA62BB624FF005
:103DD000FF333B670023FB6600237B660023BB6643
:103DE00000233B660023FB65002387F85B30FB6AFA
:103DF0001833D3ED007AF5EEC07AF1EE10FA01DD5A
:103E000001233B673B6BE0331B68012B10D13B6FF9
:103E1000012B06D1302387F87730302387F87630AE
:103E2000CBE0312387F87730302387F87630C4E051
:103E30003B6BE0331B680D2B10D13B6F012B06D180
:103E4000322387F87730302387F87630B5E0332394
:103E500087F87730302387F87630AEE03B6BE0337D
:103E60001B68062B10D13B6F012B06D1342387F83A
:103E70007730302387F876309FE0352387F8773026
:103E8000302387F8763098E03B6BE0331B68022BD9
:103E900010D13B6F012B06D1382387F877303023C0
:103EA00087F8763089E0392387F87730302387F830
:103EB000763082E03B6BE0331B68092B10D13B6FFF
:103EC000012B06D1412387F87730302387F87630ED
:103ED00073E0412387F87730312387F876306CE040
:103EE0003B6BE0331B68072B10D13B6F012B06D1D6
:103EF000412387F87730322387F876305DE041231D
:103F000087F87730332387F8763056E03B6BE03321
:103F10001B68082B10D13B6F012B06D1412387F87A
:103F20007730342387F8763047E0412387F87730BD
:103F3000352387F8763040E03B6BE0331B680A2B73
:103F400010D13B6F012B06D1412387F87730362300
:103F500087F8763031E0412387F87730372387F8C8
:103F600076302AE03B6BE0331B680B2B10D13B6FA4
:103F7000012B06D1412387F87730382387F8763034
:103F80001BE0412387F87730392387F8763014E037
:103F90003B6BE0331B680C2B0FD13B6F012B06D121
:103FA000422387F87730302387F8763005E04223C4
:103FB00087F87730312387F876303B6BA8331B685E
:103FC000754A82FB03129210DB17D31ABB66BB6ED5
:103FD000092B01DD0923BB66BB6E002B01DA002330
:103FE000BB66FB6A1433D3ED007A9FED6C7A67EE03
:103FF000877AF0EEE77AB0EE670A16F0A1FCF0EEF1
:10400000407AFDEEE77A17EE903A3B66FB6A18338A
:10401000D3ED007A9FED627A67EE877AF0EEE77A69
:10402000B0EE670A16F08CFCF0EE407AFDEEE77A0F
:1040300017EE903AFB657B6EDBB21B01DAB2BB6E0A
:10404000DBB2134487F85B3006F006FA0246BB6A1F
:1040500008331B68D31A534AA2FB03239B0B01337B
:10406000FB66BB6A08331B68002B01D10023FB668B
:10407000FB6EB3F5F07F02DD40F6FF73FB663B6E2F
:1040800007F154010522184600F0AEF8FB6D07F168
:104090004C010522184600F0A7F8FB6E07F1380125
:1040A0000322184600F0A0F897F8543087F84430FF
:1040B00097F8553087F8453097F8563087F84630EE
:1040C00097F8573087F8473097F8583087F84830D6
:1040D00097F84C3087F83C3097F84D3087F83D30F2
:1040E00097F84E3087F83E3097F84F3087F83F30DA
:1040F00097F8503087F8403097F8771097F87600A7
:1041000097F844301D4697F845301E4697F84630DC
:104110007B6297F847303B6297F84830FB6197F82D
:104120003C30BB6197F83D307B6197F83E303B6196
:1041300097F83F30FB6097F84030BB6097F8383015
:104140007B6097F839301C4697F83A301A463B6B3B
:1041500003F58A731B680D930C920B947A680A928C
:10416000BA680992FA6808923A6907927A690692DF
:10417000BA690592FA6904923A6A03927B6A0293D9
:104180000196009503460A460749786B14F0BEF87D
:1041900000BF7C37BD46F0BD6766666600401C46C2
:1041A0000050C34773B2E745C0AF010884B080B583
:1041B00084B000AF786007F11C0080E80E004FF477
:1041C0007A73FB607868FCF703F803469AB207F14C
:1041D0001C00FB6879680DF0CDF900BF1037BD46B3
:1041E000BDE8804004B0704780B487B000AFF8608D
:1041F000B9607A607B687B6100233B6107E0BA6845
:104200003B69134430221A703B6901333B613A69C0
:104210007B689A42F3D37B69013B7B61FB6803F0C7
:104220000F02B9687B690B4407498A5C1A70FB6806
:104230001B09FB60FB68002BEDD100BF00BF1C37E2
:10424000BD465DF8047B704798B1010880B596B013
:1042500006AFF860B9607A603B607B68D0331B685A
:10426000012B48D1F868FFF707FD0346032B37D031
:10427000032B47DC012B02D0022B26D042E07B68C7
:1042800090331B68002B38D17B68A0331B68DAB2EF
:104290001E4B1A707B68A8331B68DAB21C4B1A706D
:1042A00007F11003049307F11C03039307F128039C
:1042B000029307F1340301933B6D0093BB6C7A6862
:1042C000B9683868FDF7A4FA17E07B6890331B687B
:1042D000002B14D00022F96C7868FDF71BFD0EE06E
:1042E0007B6890331B68002B0BD00122F96C786837
:1042F000FDF710FD05E000BF04E000BF02E000BFD5
:1043000000E000BF00BF4037BD4680BD810B0020EC
:10431000800B002080B582B000AF786039603B68C8
:10432000AC331B68012B12D13B68A8331B68632B8D
:1043300006DD3B68002264210020FFF7FBFB29E03B
:104340003B68002200216420FFF7F4FB22E078683C
:10435000FFF792FC0346012B02D0022B0DD019E08F
:104360003B68C03318683B68C43319683B68C8337E
:104370001A683B68FFF7DEFB0CE03B68B433186853
:104380003B68B83319683B68BC331A683B68FFF771
:10439000D1FB00BF00BF0837BD4680BD80B582B0ED
:1043A00000AF786039607868FFF766FC0346012B40
:1043B00040F0B5803B68AC331B68012B04D03B68F0
:1043C000B0331B68012B1CD13B68A8331B68632BDF
:1043D00017DC3B68B43332221A603B68B8330022E2
:1043E0001A603B68BC3300221A603B68C03332223B
:1043F0001A603B68C43300221A603B68C83300224D
:104400001A603B68AC331B68012B04D03B68B033A7
:104410001B68012B1CD13B68A8331B68642B17D188
:104420003B68B43300221A603B68B83332221A600A
:104430003B68BC3300221A603B68C03300221A601C
:104440003B68C43332221A603B68C83300221A60CA
:104450003B68AC331B68002B63D13B68B0331B68EF
:10446000002B5ED13B68A8331B68312B17DD3B68FE
:10447000B43300221A603B68B83332221A603B68BA
:10448000BC3300221A603B68C03300221A603B68CC
:10449000C43300221A603B68C83300221A603B68AC
:1044A000A8331B68312B1CDC3B68A8331B68132B1B
:1044B00017DD3B68B4337F221A603B68B8330A22A9
:1044C0001A603B68BC3300221A603B68C03300228C
:1044D0001A603B68C43300221A603B68C83300226C
:1044E0001A603B68A8331B68132B1ADC3B68B43393
:1044F00064221A603B68B83300221A603B68BC3300
:1045000000221A603B68C03300221A603B68C43343
:1045100000221A603B68C83300221A6001E000BF25
:1045200000E000BF00BF0837BD4680BD80B584B045
:1045300000AF78600023FB600023BB607B68EC3336
:104540001B68002B0FD17B68EC3301221A6007F146
:10455000080107F10C037A681846FEF715F97B6825
:10456000EC3300221A607B68B033FA681A607B680B
:10457000AC33BA681A6000BF1037BD4680BD80B545
:1045800084B000AF786007F10C007B680122012144
:10459000FEF736F97B68A833FA681A6000BF103757
:1045A000BD4680BD80B584B000AF78600023FB605D
:1045B0000123BB607B6858331B681E2B05DCA34BB3
:1045C0001B68A34A934240F23C816420FEF7CAF87C
:1045D0000120FDF7E7FD0023FB600FE00A2005F056
:1045E00047FFFEF799FF0346012B02D10123BB6071
:1045F00001E00023BB60FB680133FB60FB68312BEB
:1046000007DCBB68012BE9D0904B1B68904A9342B2
:10461000E4D8BB68012B04D08C4B1B688C4A9342B6
:1046200002D90220FDF7BEFD0023FB600FE00A2047
:1046300005F01EFFFEF770FF0346012B02D1012398
:10464000BB6001E00023BB60FB680133FB60FB68DB
:10465000312B07DCBB68002BE9D17C4B1B687C4A03
:104660009342E4D8BB68012B04D0784B1B68784A8E
:10467000934202D90320FDF795FD0023FB600FE074
:104680000A2005F0F5FEFEF747FF0346012B02D195
:104690000123BB6001E00023BB60FB680133FB60CA
:1046A000FB68312B07DCBB68012BE9D0674B1B682B
:1046B000674A9342E4D8BB68012B04D0634B1B6864
:1046C000634A934202D90420FDF76CFD0023FB608E
:1046D0000FE00A2005F0CCFEFEF71EFF0346012B7B
:1046E00002D10123BB6001E00023BB60FB68013302
:1046F000FB60FB68312B07DCBB68012BE9D0534B17
:104700001B68534A9342E4D8BB68012B04D04F4B3B
:104710001B684F4A934202D90520FDF743FD002351
:10472000FB600FE00A2005F0A3FEFEF7F5FE03464E
:10473000012B02D10123BB6001E00023BB60FB68B9
:104740000133FB60FB68312B07DCBB68012BE9D030
:104750003E4B1B683E4A9342E4D8BB68012B04D011
:104760003A4B1B683A4A934202D90620FDF71AFDDC
:104770000023FB600FE00A2005F07AFEFEF7CCFE76
:104780000346012B02D10123BB6001E00023BB6083
:10479000FB680133FB60FB68312B07DCBB68012B36
:1047A000E9D02A4B1B682A4A9342E4D8BB68012B04
:1047B00004D0264B1B68264A934202D90720FDF7F6
:1047C000F1FC0023FB6007E00A2005F051FEFB68C6
:1047D0000133FB600123BB60FB68312B07DCBB6846
:1047E000012BF1D0194B1B68194A9342ECD8BB68D6
:1047F000012B04D0154B1B68154A934221D9082080
:10480000FDF7D0FC6420FDF7ADFF4FF4FA7005F022
:104810002FFE7868FFF750F90E48FDF715FE7B680C
:10482000CC3301221A604FF4FA6005F021FE01201A
:10483000FEF77AFD0020FEF78FFD4FF47A7005F049
:1048400017FE00BF1037BD4680BD00BF640B0020BF
:10485000A086010008B0010880B584B000AF786080
:1048600039600023FB603B6828331B68002B4AD16A
:104870007B6834331B68002B45D17B6808331B6889
:10488000002B40D13B6878331B68012B12D13B6869
:10489000783300221A600023FB722A492A48FEF767
:1048A000DDFA0346FB72FB7A012B03D13B68283308
:1048B00001221A603B687C331B68012B12D1002354
:1048C000BB7222492248FEF7C9FA0346BB72BB7A83
:1048D000012B03D13B68283301221A603B687C33EB
:1048E00000221A60FB68012B0DD10023FB607B685E
:1048F000343301221A603B682C3300221A603B6873
:10490000283300221A603B6828331B68012B15D11D
:104910007B6834331B68002B10D13B682C331B6839
:10492000012B0BD17B68343301221A603B682C3396
:1049300000221A603B68283300221A6000BF10373B
:10494000BD4680BD40310020A4280020642F0020F7
:104950002C22002090B587B000AFF860B9607A6073
:104960003B6005F079FD3861BB681B68002B40F0A7
:10497000FE80FB6804331B68012B04D1BB689033B5
:1049800001221A60F3E0FB6834331B68012B13D15A
:1049900005F062FD02467B6808331B68D31A4EF6A9
:1049A0006022934208D9BB6890330D221A607B685D
:1049B00008333A691A60DAE0FB6808331B68012B98
:1049C00013D105F049FD02467B6808331B68D31AF2
:1049D0004EF66022934208D9BB68903302221A60D7
:1049E0007B6808333A691A60C1E0FB6830331B68A2
:1049F000012B13D105F030FD02467B6808331B689C
:104A0000D31A4EF66022934208D9BB6890330C2229
:104A10001A607B6808333A691A60A8E0FB6824339F
:104A20001B68012B13D105F017FD02467B68083384
:104A30001B68D31A4EF66022934208D9BB689033A4
:104A400009221A607B6808333A691A608FE0FB68B4
:104A500028331B68012B13D105F0FEFC02467B684E
:104A600008331B68D31A4EF66022934208D9BB68FC
:104A700090330A221A607B6808333A691A6076E03C
:104A8000FB681C331B68012B13D105F0E5FC0246C3
:104A90007B6808331B68D31A4EF66022934208D90C
:104AA000BB68903307221A607B6808333A691A6042
:104AB0005DE0FB682C331B68012B13D105F0CCFCA7
:104AC00002467B6808331B68D31A4EF66022934275
:104AD00008D9BB6890330B221A607B6808333A69A7
:104AE0001A6044E0FB6820331B68012B13D105F0EA
:104AF000B3FC02467B6808331B68D31A4EF660226B
:104B0000934208D9BB68903308221A607B68083347
:104B10003A691A602BE0FB680C331B68012B04D147
:104B2000BB68903303221A6021E0FB6810331B68D6
:104B3000012B04D1BB68903304221A6017E0FB6894
:104B400014331B68012B04D1BB68903305221A6013
:104B50000DE0FB6818331B68012B04D1BB68903350
:104B600006221A6003E0BB68903300221A60BB681B
:104B700090331B68002B77D0BB681B68002B73D168
:104B800005F06AFC02467B681A60BB6801221A6065
:104B9000BB68043301221A60FB6834331B68012BA5
:104BA00027D0FB6808331B68012B22D0FB68043335
:104BB0001B68012B1DD0FB6830331B68012B18D0FC
:104BC000FB6824331B68012B13D0FB682C331B6854
:104BD000012B0ED0FB6820331B68012B09D0FB682A
:104BE00010331B68012B04D0FB6814331B68002BA7
:104BF00013D0BB68083301221A60BB680C33012252
:104C00001A60BB68103301221A604FF4FA73032252
:104C10005A495B480CF0AEFC26E0FB6828331B6861
:104C2000012B0ED0FB681C331B68012B09D0FB68DD
:104C30000C331B68012B04D0FB6818331B68002B56
:104C400012D0BB68143301221A60BB6818330122EA
:104C50001A60BB681C3301221A604FF4FA730322F6
:104C6000464947480CF086FC00237B6108E07B69DD
:104C70009B00FA68134400221A607B6901337B6150
:104C80007B690D2BF3DDBB681B68012B72D1BB6800
:104C900020331B68012B37D1BB6800221A60BB6828
:104CA0003C3300221A60BB68403300221A60BB68A4
:104CB000203300221A60BB68903300221A604FF440
:104CC000FA7303222F492E480CF054FC7B6803F141
:104CD000080405F0C1FB034623603B6804332A4AFD
:104CE0001A603B6808334FF000021A603B680C33CF
:104CF0004FF000021A603B684FF000021A603B68F8
:104D000010334FF000021A6005F0A6FB02467B68E4
:104D10001B68D31A47F2305293422BD9BB683C33FD
:104D200000221A60BB6803F5867301221A60BB6813
:104D3000E033BA68D2F890201A60BB684033002292
:104D40001A60BB6800221A60BB68203300221A6018
:104D5000BB68903300221A604FF4FA7303220949AA
:104D600007480CF007FC7B6803F1080405F074FBAE
:104D70000346236000BF1C37BD4690BD0CB0010840
:104D80000834002018B001080000A84180B582B0A6
:104D900000AF786039607B6850331B68012B04D00A
:104DA0007B6890331B68002B16D07B685033002241
:104DB0001A6005F051FB03465A1E3B681A607B6877
:104DC000D0331B68002B07D1FEF718FFFCF704FD5A
:104DD0007B68D03301221A6005F03EFB02463B6837
:104DE0001B68D31A44F62062934205D9FEF71CFFD4
:104DF0007B68D03300221A6000BF0837BD4680BDF3
:104E00002DE9B04388B000AFF860B9607A603B60CC
:104E10004FF00003FB614FF00003BB61BB6804333C
:104E20001B68012B40F08082FB6806331B782C2B1B
:104E300040F07A82FB6810331B782C2B40F0748290
:104E4000FB681B331B782C2B40F06E82FB681D33F4
:104E50001B782C2B40F06882FB6829331B782C2BA5
:104E600040F06282FB682B331B782C2B40F05C8275
:104E7000FB6811331B78A3F1300213469B001344E7
:104E80005B001A46FB6812331B78303B134418460C
:104E9000FBF748FB04460D46FB6813331B78303B99
:104EA0001846FBF73FFBECA3D3E90023FBF7A4FB79
:104EB00002460B4690469946FB6814331B78303BFC
:104EC0001846FBF72FFBE6A3D3E90023FBF794FB7F
:104ED00002460B4640464946FBF7D8F902460B46C8
:104EE00090469946FB6816331B78303B1846FBF713
:104EF00019FBDDA3D3E90023FBF77EFB02460B463B
:104F000040464946FBF7C2F902460B469046994691
:104F1000FB6817331B78303B1846FBF703FB4FF059
:104F20000002D34BFBF768FB02460B46404649465E
:104F3000FBF7ACF902460B4690469946FB681833DE
:104F40001B78303B1846FBF7EDFA4FF00002C94BD7
:104F5000FBF752FB02460B4640464946FBF796F9E3
:104F600002460B4690469946FB6819331B78A3F11D
:104F7000300213469B0013445B001846FBF7D2FA3D
:104F800002460B4640464946FBF780F902460B466F
:104F900090469946FB681A331B781846FBF7C2FA0D
:104FA00002460B4640464946FBF770F902460B465F
:104FB000104619464FF00002AF4BFBF765F9024669
:104FC0000B4610461946A2A3D3E90023FBF714FBB6
:104FD00002460B46104619464FF00002A74BFBF75E
:104FE00035FC02460B4620462946FBF74FF90246A0
:104FF0000B4610461946FBF7F7FD0346FB61FB68BD
:105000001E331B78303B1846FBF78CFA4FF000023A
:10501000984BFBF7F1FA02460B4614461D46FB6817
:105020001F331B78A3F1300213469B0013445B002F
:105030001846FBF777FA02460B4620462946FBF74F
:1050400025F902460B4614461D46FB6820331B78A3
:10505000303B1846FBF766FA02460B4620462946C7
:10506000FBF714F902460B4614461D46FB68213334
:105070001B78303B1846FBF755FA77A3D3E900239A
:10508000FBF7BAFA02460B4690469946FB68223374
:105090001B78303B1846FBF745FA71A3D3E9002390
:1050A000FBF7AAFA02460B4640464946FBF7EEF8E4
:1050B00002460B4690469946FB6824331B78303BEA
:1050C0001846FBF72FFA68A3D3E90023FBF794FAFD
:1050D00002460B4640464946FBF7D8F802460B46C7
:1050E00090469946FB6825331B78303B1846FBF702
:1050F00019FA4FF000025E4BFBF77EFA02460B46B0
:1051000040464946FBF7C2F802460B469046994690
:10511000FB6826331B78303B1846FBF703FA4FF049
:105120000002544BFBF768FA02460B4640464946DC
:10513000FBF7ACF802460B4690469946FB682733CE
:105140001B78A3F1300213469B0013445B00184602
:10515000FBF7E8F902460B4640464946FBF796F84E
:1051600002460B4690469946FB6828331B78184642
:10517000FBF7D8F902460B4640464946FBF786F84E
:1051800002460B46104619464FF000023A4BFBF719
:105190007BF802460B46104619462DA3D3E900239F
:1051A000FBF72AFA02460B46104619464FF000025A
:1051B000324BFBF74BFB02460B4620462946FBF7DA
:1051C00065F802460B4610461946FBF70DFD0346EF
:1051D000BB61FB681C331B78532B05D1D7ED077AD5
:1051E000F1EE677AC7ED077AFB682A331B78572BF5
:1051F00005D1D7ED067AF1EE677AC7ED067AD7EDDD
:10520000077A9FED1F7AF4EEC77AF1EE10FA00DC10
:105210008AE0D7ED077A9FED1B7AF4EEC77AF1EEBC
:1052200010FA00D480E0D7ED067ABAEE047AF4EEF4
:10523000C77AF1EE10FA00DC76E0D7ED067AB2EE2E
:10524000047AF4EEC77AF1EE10FA1DD46CE000BFD8
:10525000F168E388B5F8E43E0000000080842E4148
:1052600000000000006AF840000000000088C34011
:1052700000408F40000059400000484000004E4070
:1052800000000C420000704200237B61FB682E335B
:105290001B782F2B21D9FB682E331B78392B1CD878
:1052A000FB682F331B782F2B17D9FB682F331B7804
:1052B000392B12D8FB682E331B78A3F1300213462A
:1052C0009B0013445B001A46FB682F331B781A447B
:1052D000BB6803F58073303A1A607B6803F10804F9
:1052E00005F0BAF8034623603B681433FA691A6084
:1052F0003B681833BA691A60BB68A03301221A6090
:10530000BB68E4331B68002B0ED17B681C1D05F0C5
:10531000A3F803462360BB68E43301221A60BB682C
:1053200003F5827301221A6000BF2037BD46BDE835
:10533000B08300BF80B58EB000AFF860B9607A600E
:105340003B60FB6803F5B2731B68012B77D105F056
:1053500083F80346184612F06BFF12F097FF0246DF
:10536000394B83FB02135911D317CB1A622101FB6E
:1053700003F3D31AFA6802F58A7201331360FCF75B
:10538000DFFDFB68503301221A60FEF7FBF80020B6
:10539000FEF790F8FB68002200210020FEF7CAFB10
:1053A00007F110007B68BA68F968FEF709FD07F19C
:1053B00010031846FEF7E8FCF868FEF7B9FC41F266
:1053C000883005F055F8214808F02BF841F2883074
:1053D00005F04EF81D4808F024F8F868FEF7A8FC20
:1053E000FEF7DCFC194808F01CF807F11003F96817
:1053F0001846FEF7DAFC41F2883005F039F8134818
:1054000008F00FF841F2883005F032F80F4808F044
:1054100008F8FB6803F5B27300221A60FB6803F515
:105420008A7300221A60FB6803F5867300221A60F3
:10543000F868FEF77DFCFEF7B1FCFEF797FC00BFB5
:105440003837BD4680BD00BF9D829753F81D0020B0
:1054500080B582B000AF78603960FEF75DF8034632
:10546000012B2AD17B681B68002B03D17B68F033AA
:1054700001221A607B68503301221A607B68543322
:1054800001221A607B6858331A6801321A607B68FF
:1054900058331B68C82B18DD7B681B68012B07D1AC
:1054A0007B68203301221A607B683C3300221A603B
:1054B0007B68603300221A6007E07B685433002267
:1054C0001A607B68583300221A60FEF73BF80346E7
:1054D000012B40D17B68F03301221A607B68503386
:1054E00001221A607B685C3301221A607B6860339A
:1054F0001A6801321A607B6860331B68012B36DD45
:105500007B681B68012B10D17B6864331B68012BFF
:105510000BD17B68203301221A607B683C33002268
:105520001A607B68603300221A607B6860331B68F6
:10553000642B1CDD7B681B68002B18D13B6804338F
:1055400001221A607B68603300221A607B68643332
:1055500000221A600BE07B68643301221A607B68CA
:105560005C3300221A607B68603300221A607B681B
:105570004C3300221A607B6854331B68012B04D023
:105580007B685C331B68012B1BD17B68AC331B68C9
:10559000002B05D17B68002200213220FEF7CAFAD9
:1055A0007B68AC331B68012B17D17B6854331B68B5
:1055B000012B12D17B68002200213220FEF7BAFABB
:1055C0000BE07B68AC331B68002B07D17B680022A3
:1055D00000210020FEF7AEFA00E000BF00BF083750
:1055E000BD4680BD80B582B000AF786039607B6811
:1055F0001B68012B6ED17B6808331B68012B2FD1F0
:105600007B680C331B68012B2AD17B6810331B6825
:10561000012B25D13B681B68012B05D17B68C82273
:10562000C821FA20FEF786FA3B681B680A2B0AD1CC
:105630007B68002200210020FEF77CFAFDF7A2FF24
:105640000020FDF737FF3B681B68642B02D13B68E5
:1056500000221A603B681B685A1C3B681A6039E0DC
:105660007B6814331B68012B34D17B6818331B68AB
:10567000012B2FD17B681C331B68012B2AD13B687F
:105680001B68012B0AD17B68C822C821FA20FEF7CB
:1056900051FAFDF76DFF0120FDF70CFF3B681B6819
:1056A0000A2B0AD17B68002200210020FEF742FA73
:1056B000FDF768FF0020FDF7FDFE3B681B68B3F5B2
:1056C0007A7F02D13B6800221A603B681B685A1C33
:1056D0003B681A607B6848331B68012B2AD17B68C2
:1056E0001B68002B26D17B68002200210020FEF7DA
:1056F00021FAFDF747FF0020FDF7DCFE7B68483309
:1057000000221A607B68683300221A607B686C3361
:1057100000221A607B68703300221A607B68743341
:1057200001221A607B68783300221A607B687C3320
:1057300000221A607B6848331B68002B1FD17B68EE
:105740001B68012B1BD17B68483301221A607B68E0
:10575000683300221A607B686C3300221A607B6811
:10576000703300221A607B68743301221A607B68F0
:10577000783300221A607B687C3300221A6000BFF5
:105780000837BD4680BD000080B487B000AFF86028
:10579000B96011461A460B46FB8013467B713B6A83
:1057A00068331B68C72B19DC3B6A74331B68002BFA
:1057B00014D03B6A68331B685B00FA681344FA88AC
:1057C0001A803B6A68331B681A46BB6813447A79AF
:1057D0001A703B6A68331A6801321A603B6A683390
:1057E0001B68C82B0CD13B6A74331B68002B07D095
:1057F0003B6A703301221A603B6A743300221A60DC
:105800003B6A70331B68002B6FD03B6A68331B68A0
:10581000C72B6ADD3B6A68331B68B3F5C87F64DA5F
:105820003B6A6C331B68002B5FDB3B6A6C331B6885
:10583000C72B5ADC3B6A68331B685B00FA68134469
:10584000FA881A803B6A68331B681A46BB6813449F
:105850007A791A703B6A68331B685B00FA681A44ED
:105860003B6A6C331B6811885B4A22F813103B6A51
:1058700068331B681A46BB681A443B6A6C331B6862
:105880001178564AD1543B6A6C331A6801321A6057
:105890003B6A68331A6801321A603B6A68331B68D6
:1058A000B3F5C87F21D10023FB8212E0FB8A5B00A5
:1058B000FA681A44FB8A1188494A22F81310FB8AB5
:1058C000BA681A44FB8A1178464AD154FB8A0133DC
:1058D000FB82FB8AB3F5C87FE8D33B6A68330022BA
:1058E0001A603B6A783301221A603B6A70331B6886
:1058F000002B6AD03B6A68331B68002B65DB3B6A70
:1059000068331B68C72B60DC3B6A6C331B68C72B92
:105910005BDD3B6A6C331B68B3F5C87F55DA3B6AC5
:105920006C331B682C49FA8821F813203B6A6C33CE
:105930001B682A497A79CA543B6A6C331A683B6AF5
:1059400068331B685B00F9680B44234931F8122067
:105950001A803B6A6C331A683B6A68331B681946C5
:10596000BB680B441D498A5C1A703B6A6C331A6829
:1059700001321A603B6A68331A6801321A603B6A66
:105980006C331B68B3F5C87F1FD10023FB8210E086
:10599000FA8AFB8A104931F81210114A22F81310C2
:1059A000FA8AFB8A0D49895C0E4AD154FB8A01337D
:1059B000FB82FB8AB3F5C87FEAD33B6A6C330022D3
:1059C0001A603B6A7C3301221A6000BF1C37BD4657
:1059D0005DF8047B704700BF2C220020642F00205C
:1059E000A42800204031002080B584B000AF554B82
:1059F0001B782B2B40F0DB80524B5B78532B40F015
:105A0000D680504B9B78462B40F0D1804D4BDB78B5
:105A10003A2B40F0CC804B4B1B79202B40F0C780B9
:105A2000484B5B79532B02D1464B9B794E2B454B10
:105A30005B79522B40F0BB80424B9B79432B40F06B
:105A4000B680404BDB79562B40F0B1803D4B1B7A42
:105A5000422B40F0AC803B4B5B7A492B40F0A78057
:105A6000384B9B7A4E2B40F0A280364B1B7B312B60
:105A700040F09D80334B5B7B322B40F09880314B64
:105A80009B7B332B40F093802E4BDB7B342B40F001
:105A90008E800023FB730023BB730AE0BB7B294A83
:105AA000D35C2C2B02D1FB7B0133FB73BB7B01331B
:105AB000BB73FB7B012B02D8BB7BC82BEED9BB7B16
:105AC000204AD35C2D2B72D16420FCF74BFE1E4B79
:105AD0001B78042B0AD104F0BFFC03461B4AD36099
