:020000040800F2
:100000000000012099A20008719900087F9900085A
:10001000859900088B99000891990008000000005C
:100020000000000000000000000000009799000898
:10003000A599000800000000B3990008C1990008C4
:10004000E9A20008E9A20008E9A20008E9A2000864
:10005000E9A20008E9A20008E9A20008E9A2000854
:10006000E9A20008E9A20008E9A20008E9A2000844
:10007000E9A20008CD990008E9A20008E19900086A
:10008000F5990008E9A20008E9A20008E9A2000821
:10009000E9A20008E9A20008E9A20008E9A2000814
:1000A000E9A20008099A0008E9A20008E9A20008EC
:1000B000E9A200080000000000000000E9A200081A
:1000C000E9A20008E9A20008E9A20008E9A20008E4
:1000D000E9A200081D9A0008319A0008459A000814
:1000E000E9A20008E9A200080000000000000000EA
:1000F0000000000000000000000000000000000000
:1001000000000000E9A2000800000000E9A20008C9
:100110000000000000000000E9A20008599A000851
:10012000E9A20008E9A20008E9A20008E9A2000883
:10013000E9A200080000000000000000000000002C
:10014000E9A20008E9A20008E9A200086D9A0008E7
:10015000E9A20008E9A20008E9A20008E9A2000853
:10016000E9A20008E9A20008E9A2000800000000D6
:10017000E9A20008E9A20008E9A2000800000000C6
:0C018000E9A20008E9A20008E9A20008BA
:1001900010B5054C237833B9044B13B10448AFF3C1
:1001A00000800123237010BD940A0020000000008D
:1001B000B499010808B5034B1BB103490348AFF3D9
:1001C000008008BD00000000980A0020B4990108D2
:1001D000034613F8012B002AFBD1181A0138704787
:1001E00001F0FF01102A2BDB10F0070F08D010F8E8
:1001F000013B013A8B422DD010F0070F42B3F6D1EC
:10020000F0B441EA012141EA014122F007047FF004
:1002100000070023F0E80256083C85EA010586EA5B
:10022000010685FA47F5A3FA87F586FA47F6A5FA97
:1002300087F68EB9EED1F0BC01F0FF0102F00702A3
:1002400032B110F8013B013A83EA010313B1F8D14E
:100250000020704701387047002D06BF354603382F
:10026000073815F0010F07D1013015F4807F02BF68
:10027000013015F4C03F0130F0BC0138704700BFB9
:1002800081F0004102E000BF83F0004330B54FEA47
:1002900041044FEA430594EA050F08BF90EA020FB4
:1002A0001FBF54EA000C55EA020C7FEA645C7FEA47
:1002B000655C00F0E2804FEA5454D4EB5555B8BF6A
:1002C0006D420CDD2C4480EA020281EA030382EADB
:1002D000000083EA010180EA020281EA0303362D6D
:1002E00088BF30BD11F0004F4FEA01314FF4801C40
:1002F0004CEA113102D0404261EB410113F0004F52
:100300004FEA03334CEA133302D0524263EB430308
:1003100094EA050F00F0A780A4F10104D5F1200EA6
:100320000DDB02FA0EFC22FA05F2801841F1000101
:1003300003FA0EF2801843FA05F359410EE0A5F1D5
:1003400020050EF1200E012A03FA0EFC28BF4CF006
:10035000020C43FA05F3C01851EBE37101F00045BC
:1003600007D54FF0000EDCF1000C7EEB00006EEBC9
:100370000101B1F5801F1BD3B1F5001F0CD3490853
:100380005FEA30004FEA3C0C04F101044FEA4452AA
:1003900012F5800F80F09A80BCF1004F08BF5FEA31
:1003A000500C50F1000041EB045141EA050130BD11
:1003B0005FEA4C0C404141EB0101013C28BFB1F523
:1003C000801FE9D291F0000F04BF01460020B1FA6E
:1003D00081F308BF2033A3F10B03B3F120020CDA41
:1003E0000C3208DD02F1140CC2F10C0201FA0CF01F
:1003F00021FA02F10CE002F11402D8BFC2F1200C84
:1004000001FA02F120FA0CFCDCBF41EA0C01904039
:10041000E41AA2BF01EB0451294330BD6FEA040482
:100420001F3C1CDA0C340EDC04F11404C4F120026D
:1004300020FA04F001FA02F340EA030021FA04F37F
:1004400045EA030130BDC4F10C04C4F1200220FAD6
:1004500002F001FA04F340EA0300294630BD21FA14
:1004600004F0294630BD94F0000F83F4801306BFDA
:1004700081F480110134013D4EE77FEA645C18BFCE
:100480007FEA655C29D094EA050F08BF90EA020F65
:1004900005D054EA000C04BF1946104630BD91EA5D
:1004A000030F1EBF0021002030BD5FEA545C05D160
:1004B0004000494128BF41F0004130BD14F580049F
:1004C0003CBF01F5801130BD01F0004545F0FE4113
:1004D00041F470014FF0000030BD7FEA645C1ABF48
:1004E000194610467FEA655C1CBF0B46024650EA7F
:1004F000013406BF52EA033591EA030F41F40021AB
:1005000030BD00BF90F0000F04BF0021704730B530
:100510004FF4806404F132044FF000054FF0000105
:1005200050E700BF90F0000F04BF0021704730B5C6
:100530004FF4806404F1320410F0004548BF40429B
:100540004FF000013EE700BF42004FEAE2014FEAF0
:1005500031014FEA02701FBF12F07F4393F07F4FCB
:1005600081F06051704732F07F4208BF704793F0CE
:100570007F4F04BF41F40021704730B54FF46074E1
:1005800001F0004521F000411CE700BF50EA0102E4
:1005900008BF704730B54FF000050AE050EA01028D
:1005A00008BF704730B511F0004502D5404261EBFD
:1005B00041014FF4806404F132045FEA915C3FF43E
:1005C000D8AE4FF003025FEADC0C18BF03325FEADB
:1005D000DC0C18BF033202EBDC02C2F1200300FA8C
:1005E00003FC20FA02F001FA03FE40EA0E0021FAB1
:1005F00002F11444BDE600BF70B54FF0FF0C4CF49F
:10060000E06C1CEA11541DBF1CEA135594EA0C0F50
:1006100095EA0C0F00F0DEF82C4481EA030621EA8B
:100620004C5123EA4C5350EA013518BF52EA0335C6
:1006300041F4801143F4801338D0A0FB02CE4FF078
:100640000005E1FB02E506F00042E0FB03E54FF0A8
:100650000006E1FB03569CF0000F18BF4EF0010EA0
:10066000A4F1FF04B6F5007F64F5407404D25FEA9C
:100670004E0E6D4146EB060642EAC62141EA55514F
:100680004FEAC52040EA5E504FEACE2EB4F1FD0C91
:1006900088BFBCF5E06F1ED8BEF1004F08BF5FEA0F
:1006A000500E50F1000041EB045170BD06F00046C1
:1006B00046EA010140EA020081EA0301B4EB5C046E
:1006C000C2BFD4EB0C0541EA045170BD41F4801166
:1006D0004FF0000E013C00F3AB8014F1360FDEBF8B
:1006E000002001F0004170BDC4F10004203C35DA67
:1006F0000C341BDC04F11404C4F1200500FA05F3EA
:1007000020FA04F001FA05F240EA020001F000428A
:1007100021F0004110EBD37021FA04F642EB060100
:100720005EEA430E08BF20EAD37070BDC4F10C042A
:10073000C4F1200500FA04F320FA05F001FA04F2EE
:1007400040EA020001F0004110EBD37041F10001DA
:100750005EEA430E08BF20EAD37070BDC4F12005E5
:1007600000FA05F24EEA020E20FA04F301FA05F24D
:1007700043EA020321FA04F001F0004121FA04F2F5
:1007800020EA020000EBD3705EEA430E08BF20EAC5
:10079000D37070BD94F0000F0FD101F000464000FF
:1007A00041EB010111F4801F08BF013CF7D041EA81
:1007B000060195F0000F18BF704703F00046520085
:1007C00043EB030313F4801F08BF013DF7D043EA56
:1007D0000603704794EA0C0F0CEA135518BF95EA0C
:1007E0000C0F0CD050EA410618BF52EA4306D1D193
:1007F00081EA030101F000414FF0000070BD50EAB2
:10080000410606BF1046194652EA430619D094EA3B
:100810000C0F02D150EA013613D195EA0C0F05D125
:1008200052EA03361CBF104619460AD181EA030179
:1008300001F0004141F0FE4141F470014FF0000031
:1008400070BD41F0FE4141F4780170BD70B54FF0CC
:10085000FF0C4CF4E06C1CEA11541DBF1CEA13554C
:1008600094EA0C0F95EA0C0F00F0A7F8A4EB05042E
:1008700081EA030E52EA03354FEA013100F0888025
:100880004FEA03334FF0805545EA131343EA1263EE
:100890004FEA022245EA111545EA10654FEA0026A3
:1008A0000EF000419D4208BF964244F1FD0404F55C
:1008B000407402D25B084FEA3202B61A65EB0305B8
:1008C0005B084FEA32024FF480104FF4002CB6EB75
:1008D000020E75EB030E22BFB61A754640EA0C00F5
:1008E0005B084FEA3202B6EB020E75EB030E22BF35
:1008F000B61A754640EA5C005B084FEA3202B6EB76
:10090000020E75EB030E22BFB61A754640EA9C0034
:100910005B084FEA3202B6EB020E75EB030E22BF04
:10092000B61A754640EADC0055EA060E18D04FEAC2
:10093000051545EA16754FEA06164FEAC30343EA62
:1009400052734FEAC2025FEA1C1CC0D111F4801F2F
:100950000BD141EA00014FF000004FF0004CB6E728
:1009600011F4801F04BF01430020B4F1FD0C88BFC7
:10097000BCF5E06F3FF6AFAEB5EB030C04BFB6EBD2
:10098000020C5FEA500C50F1000041EB045170BDC5
:100990000EF0004E4EEA113114EB5C04C2BFD4EBF2
:1009A0000C0541EA045170BD41F480114FF0000E76
:1009B000013C90E645EA060E8DE60CEA135594EAF2
:1009C0000C0F08BF95EA0C0F3FF43BAF94EA0C0FF5
:1009D0000AD150EA01347FF434AF95EA0C0F7FF46A
:1009E00025AF104619462CE795EA0C0F06D152EABE
:1009F00003353FF4FDAE1046194622E750EA4106A2
:100A000018BF52EA43067FF4C5AE50EA41047FF4B2
:100A10000DAF52EA43057FF4EBAE12E74FF0FF3C17
:100A200006E000BF4FF0010C02E000BF4FF0010CE8
:100A30004DF804CD4FEA410C7FEA6C5C4FEA430C61
:100A400018BF7FEA6C5C1BD001B050EA410C0CBFB0
:100A500052EA430C91EA030F02BF90EA020F002012
:100A6000704710F1000F91EA030F58BF994208BF79
:100A700090422CBFD8176FEAE37040F00100704736
:100A80004FEA410C7FEA6C5C02D150EA013C07D18D
:100A90004FEA430C7FEA6C5CD6D152EA033CD3D0D8
:100AA0005DF8040B704700BF8446104662468C46D2
:100AB0001946634600E000BF01B5FFF7B7FF002805
:100AC00048BF10F1000F01BD4DF808EDFFF7F4FF2E
:100AD0000CBF012000205DF808FB00BF4DF808EDB9
:100AE000FFF7EAFF34BF012000205DF808FB00BFDC
:100AF0004DF808EDFFF7E0FF94BF012000205DF8FE
:100B000008FB00BF4DF808EDFFF7CEFF94BF0120B2
:100B100000205DF808FB00BF4DF808EDFFF7C4FFAB
:100B200034BF012000205DF808FB00BF4FEA410CF4
:100B30007FEA6C5C02D150EA013C0AD14FEA430CD7
:100B40007FEA6C5C02D152EA033C02D14FF0000014
:100B500070474FF0010070474FEA410212F5001252
:100B600015D211D56FF47873B3EB625212D94FEAF4
:100B7000C12343F0004343EA505311F0004F23FADE
:100B800002F018BF404270474FF00000704750EA33
:100B9000013005D111F0004008BF6FF000407047F0
:100BA0004FF00000704700BF4A0011D212F500124A
:100BB00011D20DD56FF47873B3EB62520ED44FEAB5
:100BC000C12343F0004343EA505323FA02F0704735
:100BD0004FF00000704750EA013002D14FF0FF3073
:100BE00070474FF0000070474FEA4102B2F1E04316
:100BF00024BFB3F5001CDCF1FE5C0DD901F0004C04
:100C00004FEAC0024CEA5070B2F1004F40EB830053
:100C100008BF20F00100704711F0804F21D113F17F
:100C20003872BCBF01F00040704741F480114FEAB8
:100C30005252C2F11802C2F1200C10FA0CF320FA41
:100C400002F018BF40F001004FEAC1234FEAD3235E
:100C500003FA0CFC40EA0C0023FA02F34FEA4303C8
:100C6000CCE77FEA625307D150EA01331EBF4FF051
:100C7000FE4040F44000704701F0004040F0FE406C
:100C800040F40000704700BF53B94AB9002908BFBB
:100C900000281CBF4FF0FF314FF0FF3000F06EB95D
:100CA000ADF1080C6DE904CE00F006F8DDF804E0C3
:100CB000DDE9022304B070472DE9F047089D0446A2
:100CC0008C46002B40F083808A42174647D9B2FAFF
:100CD00082F242B1C2F1200024FA00F09140974024
:100CE00040EA010C94404FEA1748230CBCFBF8F68D
:100CF0001FFA87FE08FB16C143EA014306FB0EF10B
:100D0000994209D9FB1806F1FF3080F01981994208
:100D100040F21681023E3B445B1AA4B2B3FBF8F0EA
:100D200008FB103344EA034400FB0EFEA64509D934
:100D30003C1900F1FF3380F00581A64540F20281A5
:100D400002383C4440EA0640A4EB0E0400261DB1E4
:100D5000D4400023C5E900433146BDE8F08702B91D
:100D6000FFDEB2FA82F2002A50D1CB1B4FEA174EB7
:100D70001FFA87F80126B3FBFEFC210C0EFB1C3387
:100D800041EA034108FB0CF38B4207D979180CF1B7
:100D9000FF3002D28B4200F2E9808446C91AA3B226
:100DA000B1FBFEF00EFB101143EA014408FB00F812
:100DB000A04507D93C1900F1FF3302D2A04500F24B
:100DC000D9801846A4EB080440EA0C40BFE78B42E8
:100DD00009D9002D00F0B1800026C5E90001304698
:100DE0003146BDE8F087B3FA83F6002E4AD18B4234
:100DF00002D3824200F2B880841A61EB0301012021
:100E00008C46002DA8D0C5E9004CA5E7C2F120030F
:100E100020FA03F6974001FA02F04FEA174ED94044
:100E20003043030CB1FBFEF61FFA87F80EFB1611D8
:100E300043EA014306FB08F1994204FA02F409D996
:100E4000FB1806F1FF3C80F08D80994240F28A80C9
:100E5000023E3B445B1A81B2B3FBFEF00EFB103343
:100E600041EA034100FB08F38B4207D9791800F1EE
:100E7000FF3C73D28B4271D902383944CB1A40EA15
:100E8000064678E7C6F1200C03FA06F422FA0CF3C2
:100E90001C4320FA0CF701FA06F34FEA144E21FA2C
:100EA0000CF11F433B0CB1FBFEF91FFA84F80EFB5B
:100EB000191143EA014109FB08FA8A4502FA06F2D0
:100EC00000FA06F308D9611809F1FF3048D28A45C3
:100ED00046D9A9F102092144A1EB0A01BFB2B1FB35
:100EE000FEF00EFB101147EA014700FB08F8B84579
:100EF00007D9E71900F1FF312ED2B8452CD90238B5
:100F0000274440EA0940A7EB0807A0FB02894F45A8
:100F1000C64649461AD317D05DB1B3EB0E0267EB54
:100F2000010707FA0CFCF2404CEA0202F740C5E95F
:100F3000002700263146BDE8F0872E4628460BE7FD
:100F40000646E9E61846FDE64345E5D2B8EB020E53
:100F500069EB04010138DFE70846D2E760468DE718
:100F60008146B9E7664675E730464AE7ACF1020CC0
:100F7000394413E702383C4424E700BF704700BF00
:100F800080B584B000AF78600B46FB704FF40770FB
:100F900015F0AEFBF860FB68002B05D17B680022E2
:100FA000C3F8BC22022366E07B68FA68C3F8BC225F
:100FB0007B681B7C002B19D14FF400730222812126
:100FC000786815F097F97B6801221A874FF400734F
:100FD00002220121786815F08DF97B680122A3F8BF
:100FE00078217B681022A3F84E2016E040230222CD
:100FF0008121786815F07EF97B6801221A874023E9
:1010000002220121786815F075F97B680122A3F8A6
:1010100078217B681022A3F84E2008230322822126
:10102000786815F067F97B680122A3F84C207B688B
:10103000D3F8C0321B689847FB680022C3F814221B
:10104000FB680022C3F818227B681B7C002B09D1A7
:10105000FB68D3F804224FF400730121786815F07F
:10106000C5FA07E0FB68D3F8042240230121786821
:1010700015F0BCFA002318461037BD4680BD80B578
:1010800082B000AF78600B46FB708121786815F064
:101090006FF97B6800221A870121786815F068F9DA
:1010A0007B680022A3F878218221786815F060F926
:1010B0007B680022A3F84C207B680022A3F84E2016
:1010C0007B68D3F8BC32002B0ED07B68D3F8C032DB
:1010D0005B6898477B68D3F8BC32184615F016FB5E
:1010E0007B680022C3F8BC22002318460837BD469F
:1010F00080BD000080B586B000AF786039607B6845
:10110000D3F8BC323B6100237B7300237B81002337
:10111000FB753B69002B01D10323AFE03B681B78D3
:1011200003F06003002B3FD0202B40F09F803B68F2
:10113000DB88002B2ED03B681B785BB2002B16DAC5
:101140007B68D3F8C0329B683A68507839693A684E
:10115000D28898473B68DB88072B28BF0723FB8191
:101160003B69FA891946786814F031FC85E03B68E0
:101170005A783B6983F800223B68DB88DAB23B6926
:1011800083F8012239693B68DB881A46786814F0D5
:101190004AFC72E07B68D3F8C0329B683A685078AA
:1011A00000223968984768E03B685B780B2B52D87F
:1011B00001A252F823F000BFE911000865120008EF
:1011C000571200085712000857120008571200085B
:1011D000571200085712000857120008571200084B
:1011E000131200083D1200087B6893F89C32DBB2B2
:1011F000032B07D107F10A0302221946786814F07D
:10120000E6FB32E03968786814F070FB0323FB7565
:101210002BE07B6893F89C32DBB2032B07D107F1FC
:101220000D0301221946786814F0D1FB1DE03968DE
:10123000786814F05BFB0323FB7516E07B6893F87A
:101240009C32DBB2032B0FD03968786814F04EFB68
:101250000323FB7508E03968786814F047FB032323
:10126000FB7502E000BF08E000BF06E0396878685F
:1012700014F03CFB0323FB7500BFFB7D18461837B9
:10128000BD4680BD80B584B000AF78600B46FB7072
:101290007B68D3F8C432FB607B68D3F8BC32002B88
:1012A00001D103234FE07B68D3F8BC32BB60FA78EE
:1012B000796813469B0013449B000B4418331B684A
:1012C000002B29D0FA78796813469B0013449B00C1
:1012D0000B4418331A68F978F8680B469B000B44E6
:1012E000DB00034438331B68B2FBF3F103FB01F36B
:1012F000D31A002B10D1FA78796813469B00134457
:101300009B000B44183300221A60F9780023002256
:10131000786815F033F915E0BB680022C3F8142291
:101320007B68D3F8C0321B69002B0BD07B68D3F8E5
:10133000C0321B69BA68D2F80802BA6802F50471B3
:10134000FA789847002318461037BD4680BD80B50F
:1013500084B000AF78600B46FB707B68D3F8BC327A
:10136000FB607B68D3F8BC32002B01D1032315E06E
:10137000FB781946786815F071F90246FB68C3F8E6
:101380000C227B68D3F8C032DB68FA68D2F804021A
:10139000FA6802F503721146984700231846103781
:1013A000BD4680BD80B584B000AF78607B68D3F85F
:1013B000BC32FB60FB68002B01D103231BE07B6880
:1013C000D3F8C032002B15D0FB6893F80032FF2B06
:1013D00010D07B68D3F8C0329B68FA6892F800029C
:1013E000F968FA6892F8012292B29847FB68FF22E6
:1013F00083F80022002318461037BD4680BD000048
:1014000080B483B000AF78607B6843221A80034BBE
:1014100018460C37BD465DF8047B70478C000020F1
:1014200080B483B000AF78607B6843221A80034B9E
:1014300018460C37BD465DF8047B70474800002015
:1014400080B483B000AF78607B6843221A80034B7E
:1014500018460C37BD465DF8047B7047D00000206D
:1014600080B483B000AF78607B680A221A80034B97
:1014700018460C37BD465DF8047B7047000000201D
:1014800080B483B000AF786039603B68002B01D135
:10149000032304E07B683A68C3F8C022002318469F
:1014A0000C37BD465DF8047B704780B487B000AF51
:1014B000F860B9607A60FB68D3F8BC327B617B6905
:1014C000002B01D1032308E07B69BA68C3F8082226
:1014D0007B697A68C3F81022002318461C37BD4682
:1014E0005DF8047B704780B485B000AF78603960E8
:1014F0007B68D3F8BC32FB60FB68002B01D103236F
:1015000004E0FB683A68C3F8042200231846143745
:10151000BD465DF8047B704780B584B000AF78604D
:101520007B68D3F8BC32BB600123FB737B68D3F8C4
:10153000BC32002B01D103231AE0BB68D3F814326C
:10154000002B14D1BB680122C3F81422BB68D3F866
:1015500010227B68DA62BB68D3F80822BB68D3F834
:1015600010328121786815F009F80023FB73FB7BAA
:1015700018461037BD4680BD80B584B000AF786096
:101580007B68D3F8BC32FB607B68D3F8BC32002B9D
:1015900001D1032316E07B681B7C002B09D1FB687B
:1015A000D3F804224FF400730121786815F01EF877
:1015B00007E0FB68D3F8042240230121786815F086
:1015C00015F8002318461037BD4680BD80B500AF22
:1015D000002205490548FFF768FF05490348FFF762
:1015E00082FF0023184680BDD41000204C35002017
:1015F000FC14002080B400AF00231846BD465DF8FF
:10160000047B704780B483B000AF03463960FB7140
:101610001346BB80FB79232B4AD801A252F823F052
:10162000B1160008B1160008B1160008B11600087E
:10163000B1160008B1160008B1160008B11600086E
:10164000B1160008B1160008B1160008B11600085E
:10165000B1160008B1160008B1160008B11600084E
:10166000B1160008B1160008B1160008B11600083E
:10167000B1160008B1160008B1160008B11600082E
:10168000B1160008B1160008B1160008B11600081E
:10169000B1160008B1160008B1160008B11600080E
:1016A000B1160008B1160008B1160008B1160008FE
:1016B00000BF002318460C37BD465DF8047B704719
:1016C00080B584B000AF7860396079680F48FFF763
:1016D0000AFF0E48FFF750FF402200210C4815F08A
:1016E00061F83B681B68FB73FB7B1A467968084806
:1016F00015F04AF8FB7B1A460021786815F052F87D
:10170000002318461037BD4680BD00BF4C35002071
:10171000BC14002080B584B000AF78600B467B809D
:101720000023FB730D4BD3F8BC32BB60BB68D3F80E
:101730001432002B01D001230BE07B881A46796814
:101740000648FFF7B2FE0548FFF7E6FE0346FB73C7
:10175000FB7B18461037BD4680BD00BF4C350020CE
:1017600080B487B000AFF860B9601346FB71002306
:10177000FB7597F9173018461C37BD465DF8047B9A
:101780007047000080B582B000AF0346FB710E4B7E
:101790000E4A0F490F4805F05DFB0E4806F072FF38
:1017A00000210C4806F07DFF0A4805F02DFBFB796F
:1017B000002B01D000F0A0FA064805F0E3FA00BFC4
:1017C0000837BD4680BD00BF2925000869240008F0
:1017D000C0B401084826002080B500AF084B094A74
:1017E00009490A4805F036FB084806F04BFF00217E
:1017F000064806F056FF054805F006FB00BF80BD11
:101800002925000869240008C0B4010848260020E2
:1018100080B5B8B000AF78613961FA60BB60BE4A8C
:1018200007F1D80392E80300186004331970BB4A2B
:1018300007F1D4031268114619800233120C1A7092
:10184000B74A07F1CC0392E803001860043319701B
:10185000B44BC7F8C830B44BC7F8C430B34A07F12B
:10186000BC0392E80300186004331980B04BC7F83A
:10187000B8300023C7F8983007F19C0300221A60A3
:101880005A609A60DA601A615A611A830023BB6752
:1018900007F17C0300221A605A609A60DA601A61CC
:1018A0005A611A830023BB6507F15C0300221A60AA
:1018B0005A609A60DA601A615A611A830023BB6326
:1018C00007F13C0300221A605A609A60DA601A61DC
:1018D0005A611A8300233B630023BB8607F19803F8
:1018E0009449184615F05EFC07F19803D7F8EC1000
:1018F000184615F057FC07F1D80207F19803114676
:10190000184615F04FFC3B6920331B68012B08D1AA
:1019100007F1BC0207F198031146184615F042FC86
:101920000CE03B691C331B68012B07D107F1CC028B
:1019300007F198031146184615F034FC07F17803B7
:101940007D49184615F02EFC07F17803D7F8F01002
:10195000184615F027FC07F1D40207F17803114669
:10196000184615F01FFC3B6924331B68012B07D177
:1019700007F1C80207F178031146184615F012FC6A
:1019800007F158036D49184615F00CFC07F1580390
:10199000D7F8F410184615F005FC07F1D80207F146
:1019A00058031146184615F0FDFB3B692C331B68A4
:1019B000012B08D107F1BC0207F158031146184664
:1019C00015F0F0FB0CE03B6928331B68012B07D1B5
:1019D00007F1CC0207F158031146184615F0E2FB57
:1019E00007F138035649184615F0DCFB07F13803B8
:1019F000D7F8F810184615F0D5FB07F1D40207F117
:101A000038031146184615F0CDFB3B6930331B688F
:101A1000012B07D107F1C40207F13803114618461C
:101A200015F0C0FB7B691033D3ED007AFCEEE77A4A
:101A3000C7ED017A3B79DBB20A33DAB2414B1A7057
:101A4000404B1B781A4607F130033F49184615F002
:101A500089FB07F1B80207F130031146184615F06B
:101A6000A1FB3A4805F08EF93949384805F088FF5E
:101A7000384B1B78642B06D1374B08222D21334875
:101A800005F0DCFE09E0FB6803F5B4731A6807F1A2
:101A90001C033249184615F065FB08F08FFC02461E
:101AA000BB680C331B68D31A44F62062934208D8F3
:101AB000BB680C331B68002B03D0294B01221A7022
:101AC00002E0274B00221A70254B1B78002B06D111
:101AD000244B1B78FA68B968184600F04BF8224B83
:101AE0001B7800226C21184600F0A0FD1F49174802
:101AF00005F046FF1E4B1B781946F86800F078FA8F
:101B0000124805F053F90346002BADD100BF00BFCA
:101B1000E037BD4680BD00BFE4990108EC9901089B
:101B2000F0990108203C3C00203E3E00F899010855
:101B300020644200540700205C0700206407002056
:101B40006C0700206D0B0020D0990108482600206A
:101B500084A00108800B0020D4990108DC990108B9
:101B6000B00A00206B0B00206A0B002080A801083F
:101B70006C0B002080B58EB002AF0346B9607A606E
:101B8000FB730023FB627B6804331B68012B0AD1C3
:101B90007B6803F580731A6807F114034A491846F5
:101BA00015F0E0FA01E02E23BB82BB6808331B6806
:101BB000002B02D10023FB6265E008F0FFFB024628
:101BC000BB6808331B68D31A404AA2FB03239B0B54
:101BD0000133FB62FB6AB3F5F07F09D907F1180303
:101BE0003B4A1268114619800233120C1A7031E018
:101BF000FB6A3B2B1AD9FB6A364AA2FB03235A091C
:101C000007F118033449184615F0ACFA07F1180328
:101C10001846FEF7DDFA03461A4607F11803134487
:101C20002E491A460B461B88138013E007F1180350
:101C3000FA6A2949184615F095FA07F1180318466B
:101C4000FEF7C6FA03461A4607F118031344244A5E
:101C5000106818602349244805F092FE07F120031C
:101C60002249184615F07EFA07F1180207F1200301
:101C70001146184615F096FA07F1200308220021B4
:101C8000194805F0DBFDFB6A002B0DD0FB6A012B28
:101C90000AD8174B01930C2300930C2300225A21DE
:101CA000114804F0A1FF0AE0124B01930C230093AA
:101CB0000C2300225A210C4804F096FF00BF00BFFD
:101CC0003037BD4680BD00BF049A010873B2E745B6
:101CD000089A0108898888880C9A0108109A0108D6
:101CE000149A010884A0010848260020189A0108C7
:101CF0003C0700202407002080B586B000AF144ABE
:101D00003B1D92E8030018600433198002330A0C6B
:101D10001A7007F10B0300221A605A609A601A7356
:101D20000C4805F02FF80C490A4805F029FE3B1D28
:101D300014223221074805F081FD064805F036F8E7
:101D40000346002BF3D100BF00BF1837BD4680BD4E
:101D5000489A010848260020FCA3010890B58BB0E2
:101D600002AFF860B9607A60FB6890331B68002BA3
:101D700000F0DF80714805F005F87B68002B0AD180
:101D80006F4B0193202300932023002205216B48F1
:101D900004F02AFF09E06B4B0193202300932023DA
:101DA00000220521654804F01FFF6749634805F0DC
:101DB000E7FDBB681C6808F001FB0346E31A03F566
:101DC000EE432433FB61FB69604AA2FB03239B09BA
:101DD000FB6107F11003FA695D49184615F0C2F975
:101DE0002D23BB6100237B61BB69D9B2594B0D2206
:101DF000524805F023FD07F11003192250214F48E6
:101E000005F01CFDFB6890331B680D2B06D1BB69E8
:101E1000D9B2514B0D22494805F010FDFB689033B3
:101E20001B68012B06D1BB69D9B24C4B0D2243482C
:101E300005F004FDFB6890331B68022B06D1BB69DB
:101E4000D9B2474B0D223D4805F0F8FCFB689033B2
:101E50001B68032B06D1BB69D9B2424B0D22374810
:101E600005F0ECFCFB6890331B68072B05D13E4B5B
:101E70000D223221314805F0E1FCFB6890331B68EC
:101E8000082B0BD1384B0D2232212C4805F0D6FC03
:101E9000364B1E226421294805F0D0FCFB689033A4
:101EA0001B68092B0BD1324B0D223221234805F040
:101EB000C5FC304B1E226421204805F0BFFCFB68A6
:101EC00090331B680A2B0BD12B4B0D2232211B4860
:101ED00005F0B4FC294B1E226421184805F0AEFC25
:101EE000FB6890331B680B2B0BD1234B0D22322147
:101EF000124805F0A3FC1D4B1E2264210F4805F07B
:101F00009DFCFB6890331B680C2B0BD11C4B0D22E6
:101F100032210A4805F092FC1A4B1E226421074820
:101F200005F08CFC054804F041FF0346002B7FF4CC
:101F300024AF00BF2437BD4690BD00BF4826002017
:101F400028010020A801002080A80108D34D6210BC
:101F50000C9A01085C9A0108649A0108749A0108B5
:101F6000809A0108909A01089C9A0108A09A010899
:101F7000A89A0108B09A0108B49A0108B89A010811
:101F8000BC9A0108C49A010880B582B002AF134818
:101F900004F0F8FE124B019320230093202300222B
:101FA00005210E4804F020FE0E490C4805F0E8FC1F
:101FB0000D4B0D223221094805F040FC0B4B1E222F
:101FC0003221064805F03AFC044804F0EFFE0346CF
:101FD000002BDFD100BF00BFBD4680BD48260020DA
:101FE0002801002080A80108C89A01085C9A01080D
:101FF00080B5A6B000AF78600B46FB7053495448DB
:1020000005F0BEFC534B1B78012B1BD14F495048A8
:1020100005F0B6FC504B142200214D4805F00EFC93
:102020007B6803F59C731A6807F160034B491846F7
:1020300015F098F807F160031E220021444805F0CE
:10204000FDFB7EE07B68AC331B68012B13D1444B56
:102050001E2201213E4805F0F1FB07F144034149EE
:10206000184615F07FF807F1440312220121384881
:1020700005F0E4FB65E07B68A8331B680E2B15DCDC
:102080007B68A8331B68052B10DD08F097F9024622
:10209000354B5B69D31A42F20F72934206D8334B29
:1020A0001E2202212A4805F0C9FB4AE07B68A833BA
:1020B0001B68042B10DC08F081F902462A4B5B698F
:1020C000D31A42F20F72934206D8294B1E220221E4
:1020D0001F4805F0B3FB34E07B68A0331B68012B7D
:1020E00006D1244B1E220221194805F0A7FB28E047
:1020F0007B6804331B68012B04D07B68F0331B68BA
:10210000012B06D11C4B1E220221114805F096FB23
:1021100017E07B6804331B68002B0BD17B688C3382
:102120001B68002B06D1154B1E220221084805F022
:1021300085FB06E0124B1E220221054805F07EFBBE
:10214000FFE700BF9837BD4680BD00BF80A80108EB
:1021500048260020B00A0020D09A0108E49A01081D
:10216000F89A01080C9B0108FC2700201C9B010821
:102170002C9B0108449B0108589B01086C9B01089B
:10218000749B010880B584B002AF0346FB71FB79F4
:10219000013B072B00F2288101A252F823F000BF77
:1021A000C1210008092200085122000899220008D4
:1021B000E12200082923000871230008AD2300084C
:1021C0008B4804F0DFFD8B4B0193202300932023E9
:1021D00000220021864804F007FD8749844805F065
:1021E000CFFB864B0C222D21814805F027FB844B29
:1021F0001C2232217E4805F021FB7D4804F0D6FDEB
:102200000346002BDFD1EFE0794804F0BBFD7D4BA6
:10221000019320230093202300220021744804F01E
:10222000E3FC7549724805F0ABFB744B0C222D2181
:102230006F4805F003FB724B1C2232216C4805F0FD
:10224000FDFA6B4804F0B2FD0346002BDFD1CBE072
:10225000674804F097FD6C4B0193202300932023E3
:1022600000220021624804F0BFFC6349604805F089
:1022700087FB624B0C222D215D4805F0DFFA634B92
:102280001C2232215A4805F0D9FA594804F08EFD33
:102290000346002BDFD1A7E0554804F073FD5C4BEB
:1022A000019320230093202300220021504804F0B2
:1022B0009BFC51494E4805F063FB504B0C222D21ED
:1022C0004B4805F0BBFA514B1C223221484805F01F
:1022D000B5FA474804F06AFD0346002BDFD183E0DE
:1022E000434804F04FFD4B4B0193202300932023E0
:1022F000002200213E4804F077FC3F493C4805F0AD
:102300003FFB3E4B0C222D21394805F097FA424BFA
:102310001C223221364805F091FA354804F046FD7A
:102320000346002BDFD15FE0314804F02BFD3B4B2F
:102330000193202300932023002200212C4804F045
:1023400053FC2D492A4805F01BFB2C4B0C222D2158
:10235000274805F073FA304B1C223221244805F03F
:102360006DFA234804F022FD0346002BDFD13BE049
:102370001F4804F007FD2A4B0193202300932023DC
:10238000002200211A4804F02FFC1B49184805F0D0
:10239000F7FA1A4B14222821154805F04FFA144871
:1023A00004F004FD0346002BE5D11DE0104804F0C5
:1023B000E9FC1C4B019320230093202300220021E1
:1023C0000B4804F011FC0C49094805F0D9FA0B4BF5
:1023D00014222821064805F031FA054804F0E6FCED
:1023E0000346002BE5D100BF00BF0837BD4680BDC6
:1023F000482600202802002080A801087C9B0108B4
:10240000889B0108A802002028030020949B010853
:10241000A803002028040020A09B0108A804002095
:1024200028050020A805002080B582B000AF7860A4
:102430000B4804F0A7FC0B49094805F0A1FA7B689A
:102440000F220021064805F0F9F9054804F0AEFC1A
:102450000346002BEFD100BF00BF0837BD4680BD4B
:10246000482600206CAC010880B588B002AFF86047
:102470007B600B46FB721346BB72FB7A143B0C2B42
:1024800044D801A252F823F0112500080D250008B8
:102490000D250008BD240008ED240008F5240008DF
:1024A0000D2500080D2500080D2500080D25000844
:1024B0000D2500080D250008112500087B687B61AB
:1024C00010E0164B1B785A1CD1B2144A11701A46F0
:1024D0007B691978124B99547B6901337B61BB7A14
:1024E000013BBB72BB7A002BEBD112E00B4B0022FD
:1024F0001A700EE0094B1B789BB24FF47A7200926F
:10250000074A7821074809F09DF802E0002301E01E
:1025100000BF012318461837BD4680BDB10A002010
:10252000B40A0020E41C002080B584B000AFF8603D
:102530007B600B46FB721346BB72FB7A283B252B54
:1025400067D801A252F823F0E1250008E925000828
:102550001326000813260008132600081D2600086D
:102560001326000813260008132600081326000867
:102570001326000813260008132600081326000857
:102580001326000813260008132600081326000847
:102590001326000813260008132600081326000837
:1025A0001326000813260008132600081326000827
:1025B0001326000813260008132600081326000817
:1025C0001326000813260008132600081326000807
:1025D0001326000813260008F32500080326000828
:1025E000012007F0F7FE1AE0BB7A184607F0F2FE6A
:1025F00015E0BB7A1A464FF400510B4808F07AFFF9
:102600000DE0BB7A1A464FF48041074808F072FF8C
:1026100005E0FB68012283F8282000E000BF0123C9
:1026200018461037BD4680BD0004004880B584B010
:1026300002AF0346FB710B46BB7113467B71FB79FE
:102640000A2B0AD8B979374B01930C230093142332
:102650000022354804F0C8FA5FE0FB790A2B0DD957
:10266000FB791D2B0AD8B979304B01930C230093C9
:10267000142300222C4804F0B7FA4EE0FB791D2BFE
:102680000DD9FB79312B0AD8B979294B01930C2349
:10269000009314230022244804F0A6FA3DE0FB79BD
:1026A000312B0DD9FB79452B0AD8B979214B0193F0
:1026B0000C230093142300221B4804F095FA2CE00D
:1026C000FB79452B0DD9FB79592B0AD8B9791A4BCF
:1026D00001930C23009314230022134804F084FA7E
:1026E0001BE0FB79592B0DD9FB79642B0AD8B979FA
:1026F000124B01930C230093142300220A4804F088
:1027000073FA0AE0B9790E4B01930C23009314235A
:102710000022054804F068FAFFE700BF0837BD460D
:1027200080BD00BF28060020482600204C0600205F
:102730007006002094060020B8060020DC06002069
:102740000007002080B582B000AF786000F014FF71
:10275000012000F0B3FE786807F03CFE00F016FFA1
:10276000002000F0ABFE00BF0837BD4680BD80B53D
:1027700082B000AF7860012000F0A0FE786807F01A
:1027800029FE002000F09AFE00BF0837BD4680BD3C
:1027900080B58AB004AFF860B9607A600023FB7539
:1027A000164B1B78002B10D1642302930123019355
:1027B00007F117030093012301228E21104809F02D
:1027C00049F903461A460D4B1A70FB7D03F01003BE
:1027D000002B00DA0F331B111A46FB681A60FB7DD1
:1027E00003F00803002B00DA0733DB101A46BB683E
:1027F0001A6000BF1837BD4680BD00BF680B0020BF
:10280000301D00200000000080B592B004AFF860D9
:10281000B9607A603B603B68EC331B68002B40F08A
:10282000388100237B7500233B753B68EC33012224
:102830001A609D4B1B78002B40F08180642302932B
:102840000223019307F114030093012319226C2141
:10285000964809F0FFF803461A46934B1A707B7DA1
:102860003B633B6B1B023B63386BFDF74BFE4FF04A
:1028700000028F4BFDF7EAFF02460B461046194651
:10288000FEF792F903463B63386BFDF73BFE4FF0D2
:102890000002884BFDF7B0FE02460B461046194673
:1028A000FEF75AF90346FB62FB6A40F6E3429342A5
:1028B00019DDFB6A41F20302934211DCFB6AA3F6C5
:1028C000E4433B633B6B642202FB03F33B633B6BE0
:1028D000794AA2FB03231B0A3B633B6B7B630CE03F
:1028E00064237B6309E0FB6A40F61B42934202DCEF
:1028F000FF237B6301E001237B63FB6A40F6D76221
:10290000934205DC3B6803F5A47301221A6004E0DE
:102910003B6803F5A47300221A60FB681B687A6B9E
:102920009A4208DBBB68012B05D07B68012B02D0E3
:102930007B6BFF2B08D1FB687A6B1A6004E03B6865
:10294000D3F8A820FB681A603B68EC3300221A60B9
:1029500000237B857B7D9BB21A461202D31A9AB262
:102960003B7D9BB213447B857B8D1846FDF7DAFDDA
:102970004FF00002514BFDF73FFE02460B4610465A
:1029800019464FF000024E4BFDF760FF02460B4622
:1029900010461946FEF728F903467B6200237B8424
:1029A0007B7D9BB21A461202D31A9AB23B7D9BB230
:1029B00013447B8400233B840023FB830023BB83DD
:1029C0007B7DBB83BB8B1B02BB833B7D9AB2BB8BE6
:1029D0001344BB83BB8BFB83B7F91E301846FDF74E
:1029E000A1FD2FA3D3E90023FDF706FE02460B4607
:1029F000104619464FF00002314BFDF727FF024603
:102A00000B4610461946FEF7A7F80346FB83B7F9B5
:102A10001E30002BB8BF5B429AB23B6803F5B4731B
:102A20001A6000237B837B7D7B833B7D3B833B8BD9
:102A3000FB830023FB827B7D9BB21A461202D31AD2
:102A40009AB23B7D9BB21344FB82FB8A1D4AA2FBD8
:102A500003235B09FB82FB8A1A4AA2FB03235B095F
:102A6000FB820023FB827B7D9BB21A461202D31AA3
:102A70009AB23B7D9BB21344FB82FB8A114AA2FBB4
:102A800003235B09FB82FB8A0E4AA2FB03235B093B
:102A9000FB8200BF3837BD4680BD00BFAFF300806A
:102AA0000000000000886340680B0020301D0020FB
:102AB000000030400000F43F1F85EB5100407F4094
:102AC00000408F408988888880B500AF00224FF48D
:102AD0008061002000F03EF80346184680BD0000EB
:102AE00080B588B000AF0346FB7108F08BF8012376
:102AF000BB617F237B610023FB6001233B6107F106
:102B00001C0207F10C031146184608F061F9034650
:102B1000002B15D108F098F8FB69B3F1FF3F01D005
:102B2000002310E0FB7983F00103DBB2002B05D01A
:102B30004FF48062FF21064813F034FE012302E0C7
:102B400008F082F8002318462037BD4680BD00BF3C
:102B5000E418002080B487B000AFF860B9607A60F4
:102B6000FA68BB681344B3F5006F01D900232BE06A
:102B7000FB687B6121E07B68002B0BD07B6903F154
:102B8000006303F57E331B78DAB27B681A707B68CA
:102B900001337B607B69B3F5806F0BD27B6903F1F6
:102BA000006303F57E331B78D9B20A4A7B6913446C
:102BB0000A461A707B6901337B61BA68FB6813446B
:102BC0007A699A42D7D3012318461C37BD465DF86F
:102BD000047B7047E41800202DE9F04F91B000AF5E
:102BE000F862B9627A62FA6ABB6A1344B3F5006F9D
:102BF00001D90023C2E07B6A002B01D10023BDE094
:102C000008F000F80023FB63B0E07A6AFB6B134422
:102C10001B78DAB24FF00003C7E90C23FB6B5A1C98
:102C20007B6A13441B781B0218464FEAE071D7E910
:102C30000C23141843EB0105C7E90C45FB6B9A1CE8
:102C40007B6A13441B781B0418464FEAE071D7E9EE
:102C50000C2312EB000843EB0109C7E90C89FB6B5D
:102C6000DA1C7B6A13441B781B0618464FEAE07196
:102C7000D7E90C2312EB000A43EB010BC7E90CABBD
:102C8000FB6B1A1D7B6A13441B78DAB24FF000030A
:102C90004FF000004FF0000111000020D7E90C2395
:102CA0001618BE614B41FB61D7E90623C7E90C2327
:102CB000FB6B5A1D7B6A13441B78DAB24FF000039A
:102CC0004FF000004FF0000111020020D7E90C2363
:102CD00016183E614B417B61D7E90423C7E90C23F9
:102CE000FB6B9A1D7B6A13441B78DAB24FF000032A
:102CF0004FF000004FF0000111040020D7E90C2331
:102D00001618BE604B41FB60D7E90223C7E90C23CC
:102D1000FB6BDA1D7B6A13441B78DAB24FF00003B9
:102D20004FF000004FF0000111060020D7E90C23FE
:102D300016183E604B417B60D7E90023C7E90C239E
:102D4000FA6BFB6A134403F1006101F57E31D7E9A8
:102D50000C23002007F0EAFE0346002B03D007F007
:102D600073FF00230AE0FB6B0833FB63FA6BBB6A5B
:102D70009A42FFF44AAF07F067FF01231846443731
:102D8000BD46BDE8F08F000080B584B000AFF860AC
:102D9000B9607A60FA68BB681344B3F5806F01D9F3
:102DA00000230DE07B68002B01D1002308E0FB68C5
:102DB000054A1344BA687968184613F0E5FC012304
:102DC00018461037BD4680BDE418002080B500AF1E
:102DD0000120FFF785FE034683F00103DBB2002BE1
:102DE00001D0002306E0044A4FF480610020FFF781
:102DF000F3FE0346184680BDE418002080B485B079
:102E000000AF78600B467B800023FB81134A7B88F0
:102E100013800FE0114B1B881A467B6813441B7804
:102E20009AB2FB891344FB810C4B1B8801339AB285
:102E30000A4B1A80094B1B881A467B880A339A4230
:102E4000E8DDFB89064AA2FB0323DB08FB81FB8943
:102E500018461437BD465DF8047B7047780B002098
:102E6000A38B2EBA80B586B000AF7860396007F0CA
:102E7000A5FAF8600023FB8200237B7551E0FB8AF2
:102E80005B007A6813441B88982B47D801237B7515
:102E9000FB8A7B820CE07B8A5B007A6813441B8888
:102EA000992B02D900237B7507E07B8A01337B8253
:102EB0007A8AFB8A02339A42EDDD7B7D012B16D1A3
:102EC000FB8A3B820EE03B8A5B007A6813441B88D6
:102ED000CE2B02D901237B7509E000237B753B8A49
:102EE00001333B823A8AFB8A3A339A42EBDD7B7D9F
:102EF000012B13D1FB8A6D339BB219463868FFF75B
:102F00007DFF03467B817B898C2B05D87B89712BC8
:102F100002D901237B750BE000237B75FB8A01330B
:102F2000FB82FB8AB3F58D7F02D87B7D002BA6D078
:102F30007B7D18461837BD4680BD80B586B000AF92
:102F4000786000237B6100233B610123FB6007F174
:102F5000100107F114037A681846FFF719FC07F10E
:102F60000C007B6801220121FFF74EFCFB68FF2B60
:102F700006D17B6864220021002000F0FDFD2CE0DA
:102F80003B69012B02D07B69012B09D1FB68632BC4
:102F900006DC7B6800220021322000F0EDFD1CE001
:102FA0003B69012B02D07B69012B09D1FB68642BA3
:102FB00006D17B6800220021002000F0DDFD0CE03E
:102FC0003B69002B09D17B69002B06D17B6800226D
:102FD0000021002000F0D0FDFFE700BF1837BD46FC
:102FE00080BD80B485B000AFBA607B600346FB73E0
:102FF0000B46BB81FB7B8C2B23D8FB7B712B20D911
:103000007B6828331B68012B1BD1BB6808331B6806
:10301000002B16D1BB6834331B68002B11D17B68A1
:1030200044331A6801321A607B6844331A687B683B
:1030300038331B689A420DDB7B682C3301221A60FF
:1030400008E07B682C3300221A607B68443300223E
:103050001A6000BF00BF1437BD465DF8047B70479F
:1030600080B582B000AF0346FB7110E000F058FA63
:103070000346012B09D14FF47A72FA21012006F0A0
:10308000F3FBFB79013BFB7101E0002303E0FB79DB
:10309000002BEBD1012318460837BD4680BD000048
:1030A000B0B588B000AF6B461D46584B1C78234620
:1030B000013B7B61E0B24FF000014FF000024FF0A6
:1030C0000003CB0043EA5073C200E0B24FF00001AE
:1030D0004FF000024FF00003CB0043EA5073C200F0
:1030E00023460733DB08DB00ADEB030D6B460033F3
:1030F0003B610023FB76FFF7E7FC21463B691A465C
:103100000020FFF727FD0023FB610BE03A69FB6914
:1031100013441B78FF2B02D1FB7E0133FB76FB6946
:103120000133FB612246FB699A42EFD2FB7E002B02
:1031300067D0374B01221A70354B02225A70344B3C
:1031400003229A70324B0422DA70314B05221A7135
:103150002F4B06225A712E4B07229A712C4B0822B4
:10316000DA712B4B09221A72294B63225A72284BAF
:103170000B229A72264B0C22DA72254B0D221A73FF
:10318000234B0E225A73224B0F229A73204B1B782B
:103190003B701F4B5B787B701D4B9B78BB701C4B4F
:1031A000DB78FB701A4B1B793B71194B5B797B7198
:1031B000174B9B79BB71164BDB79FB71144B1B7A58
:1031C0003B72134B5B7A7B72114B9B7ABB72104B39
:1031D000DB7AFB720E4B1B7B3B730D4B5B7B7B7374
:1031E0000B4B9B7BBB733B461A460F210020FFF71E
:1031F000CBFDFFF7EBFD4FF47A72C821032006F0F8
:1032000033FBAD4600BF2037BD46B0BD7807002078
:10321000C4100020B0B582B000AF6B461D46364BDF
:103220001C782346013B7B60E0B24FF000014FF079
:1032300000024FF00003CB0043EA5073C200E0B23B
:103240004FF000014FF000024FF00003CB0043EAC3
:103250005073C20023460733DB08DB00ADEB030DE0
:103260006B4600333B60FFF72FFC21463B681A4654
:103270000020FFF76FFC3B681A78204B1A703B6800
:103280005A781E4B5A703B689A781C4B9A703B6870
:10329000DA781A4BDA703B681A79184B1A713B6866
:1032A0005A79164B5A713B689A79144B9A713B685C
:1032B000DA79124BDA713B681A7A104B1A723B6852
:1032C0005A7A0E4B5A723B689A7A0C4B9A723B6848
:1032D000DA7A0A4BDA723B681A7B084B1A733B683E
:1032E0005A7B064B5A733B689A7B044B9A73AD46E4
:1032F00000BF0837BD46B0BD78070020B4100020DD
:1033000080B582B000AF78607B68012B05D10122C7
:103310002021064808F0EEF804E0002220210348AE
:1033200008F0E8F800BF0837BD4680BD000400483B
:1033300080B582B000AF78607B68012B05D1012297
:103340001021064808F0D6F804E0002210210348B6
:1033500008F0D0F800BF0837BD4680BD0004004823
:1033600080B582B000AF78607B68012B05D1012267
:103370000821064808F0BEF804E0002208210348AE
:1033800008F0B8F800BF0837BD4680BD000400480B
:1033900080B582B000AF78607B68012B07D1012235
:1033A0004FF480714FF0904008F0A4F806E000223E
:1033B0004FF480714FF0904008F09CF800BF083740
:1033C000BD4680BD80B582B000AF78607B68012BC0
:1033D00006D101224FF40041064808F08BF805E0C1
:1033E00000224FF40041034808F084F800BF08377A
:1033F000BD4680BD0004004880B582B000AF786053
:103400007B68012B06D101224FF48051064808F059
:1034100071F805E000224FF48051034808F06AF883
:1034200000BF0837BD4680BD0004004880B582B0AB
:1034300000AF78607B68012B05D10122042106488A
:1034400008F058F804E000220421034808F052F87C
:1034500000BF0837BD4680BD0004004880B582B07B
:1034600000AF78607B68012B05D10122022106485C
:1034700008F040F804E000220221034808F03AF87E
:1034800000BF0837BD4680BD0004004880B582B04B
:1034900000AF78607B68012B05D10122012106482D
:1034A00008F028F804E000220121034808F022F87F
:1034B00000BF0837BD4680BD0004004880B582B01B
:1034C00000AF78607B68012B06D1012208214FF004
:1034D000904008F00FF805E0002208214FF09040DE
:1034E00008F008F800BF0837BD4680BD80B582B03F
:1034F00000AF78607B68012B06D101224FF40051A8
:10350000064807F0F7FF05E000224FF4005103489A
:1035100007F0F0FF00BF0837BD4680BD0008004837
:1035200080B582B000AF00237B604FF48071064805
:1035300007F0C8FF0346002B01D101237B607B68A5
:1035400018460837BD4680BD0004004880B582B0EB
:1035500000AF00237B604FF40071064807F0B2FF14
:103560000346002B01D101237B607B681846083796
:10357000BD4680BD0004004880B500AF0021024870
:103580000BF014FF00BF80BD4C32002080B500AFAF
:10359000002102480BF0E8FF00BF80BD4C32002044
:1035A00080B586B000AF0120FFF758FF012006F07C
:1035B00011FF114A07F10C0307CA83E807000F4AFD
:1035C0003B1D92E8030083E8030007F10C030C2283
:1035D00019460B480CF08EFF142006F0FBFE3B1D35
:1035E0000822194606480CF085FF142006F0F2FE6A
:1035F00000BF1837BD4680BDAC9B0108B89B0108D1
:10360000F833002080B485B000AF78600B46FB70C3
:103610000023FB730023BB730223BB600DE0BB6878
:103620007A6813441A78FB7B1344FB73BA7BFB7BE9
:103630001344BB73BB680133BB60FB78023BBA68C1
:103640009A42ECDBBB687A681344FA7B1A70BB6859
:103650000133BB60BB687A681344BA7B1A7000BF41
:103660001437BD465DF8047B7047000090B5B7B0D5
:1036700000AF634A07F1CC0307CA83E80700614A39
:1036800007F1C40392E8030083E803005E4B07F1EF
:10369000B4040FCB84E80F005C4B07F1A4040FCBFC
:1036A00084E80F005A4B07F194040FCB84E80F0015
:1036B000584B07F184040FCB84E80F00564B07F1F9
:1036C00074040FCB84E80F00544B07F164040FCB54
:1036D00084E80F00524B07F154040FCB84E80F002D
:1036E000504B07F144040FCB84E80F004E4A3B4691
:1036F00011464422184613F047F83B464421184629
:10370000FFF780FF07F1440310211846FFF77AFF07
:103710000120FFF7A3FE012006F05CFE07F1CC03B9
:103720000C22194641480CF0E5FE1E2006F052FE20
:1037300007F1C403082219463C480CF0DBFE1E20AA
:1037400006F048FE07F1B4031022194637480CF082
:10375000D1FE1E2006F03EFE07F1A40310221946FA
:1037600032480CF0C7FE1E2006F034FE07F1940329
:10377000102219462D480CF0BDFE1E2006F02AFE30
:1037800007F184031022194628480CF0B3FE1E20CE
:1037900006F020FE07F174031022194623480CF0AE
:1037A000A9FE1E2006F016FE07F15403102219464A
:1037B0001E480CF09FFE1E2006F00CFE07F164036D
:1037C0001022194619480CF095FE1E2006F002FE44
:1037D0003B464422194615480CF08CFE1E2006F08C
:1037E000F9FD07F144031022194610480CF082FE3F
:1037F0001E2006F0EFFD00BFDC37BD4690BD00BFC8
:10380000C09B0108B89B0108CC9B0108DC9B010808
:10381000EC9B0108FC9B01080C9C01081C9C010806
:103820002C9C01083C9C01084C9C0108F8330020AA
:1038300080B586B004AF224B00221A700023FB71C2
:103840000023BB714FF47A73029301230193BB1DD4
:1038500000930123072298211A4807F0E7FF092364
:10386000BB714FF47A73029301230193BB1D009344
:10387000012308229821134807F0D8FF2323BB71A6
:103880004FF47A73029301230193BB1D009301232C
:10389000202298210B4807F0C9FF0123BB714FF488
:1038A0007A73029301230193BB1D00930123072226
:1038B0009821044807F0BAFF00BF0837BD4680BD15
:1038C000800B0020301D002080B586B004AF7860EA
:1038D0003A4B1B78002B32D10A2302930123019328
:1038E0007B68009301230D229821354808F0B2F837
:1038F00003461A46314B1A707B6802330A22029241
:1039000001220192009301230F2298212C4808F0F4
:10391000A1F803461A46294B1A707B6804330A2221
:10392000029201220192009301231122982124483E
:1039300008F090F803461A46204B1A7005E00A205A
:1039400006F048FD1D4B00221A701E4B1B78C72B3A
:103950002CD81D4B1B78632B28D81A4B1B780133AE
:10396000DAB2184B1A707B681B78002B1ED17B686B
:1039700001331B78002B19D17B6802331B78002B95
:1039800014D17B6803331B78002B0FD17B68043381
:103990001B78002B0AD17B6805331B78002B05D1DF
:1039A000094B1B780133DAB2074B1A70786800F0C4
:1039B0000DF800BF0837BD4680BD00BF680B002072
:1039C000301D0020D60A0020800B002080B582B078
:1039D00000AF78607B681B785BB207EE903AB8EE78
:1039E000E77ADFED416AC7EE267A404BC3ED007AF5
:1039F0007B6802331B785BB207EE903AB8EEE77A49
:103A0000DFED396AC7EE267A384BC3ED017A7B6861
:103A100004331B785BB207EE903AB8EEE77ADFED3D
:103A2000326AC7EE267A314BC3ED027A2F4BD3EDC3
:103A3000007AB1EE007A77EE677A9FED2D7A67EE25
:103A4000877AFCEEE77A17EE903A9BB2DB089AB2DF
:103A5000284B1A80254B93ED007A244BD3ED007A46
:103A600027EE277A214BD3ED016A204BD3ED017A63
:103A700066EEA77A37EE277A1C4BD3ED026A1B4B12
:103A8000D3ED027A66EEA77A77EE277A17EE900AE0
:103A9000FCF75AFD02460B4643EC102B15F0A2FE34
:103AA00053EC102B10461946FDF79EF803460F4ABB
:103AB000D3600E4BD3ED037AB1EE007A77EE877ABE
:103AC0009FED0B7A27EE877AF2EE006AC7EE267A30
:103AD000FCEEE77A17EE903A9AB2074B1A8000BFD5
:103AE0000837BD4680BD00BF00008042C41E0020D4
:103AF00000007F4344260020D024002080B586B0FB
:103B000002AF78607B68EC331B68002B2ED17B689A
:103B1000EC3301221A600120FFF7B8FC20233B732D
:103B200040237B736023BB7307F10C020A230093CD
:103B300003239A210F4807F085FD80233B73A023C0
:103B40007B73C023BB73012006F044FC07F10C0219
:103B50000A23009303239A21064807F073FD0020EF
:103B6000FFF794FC7B68EC3300221A6000BF10372B
:103B7000BD4680BD301D002080B588B002AFF86022
:103B8000B9607A603B603B68EC331B68002B37D12F
:103B90003B68EC3301221A600120FFF777FC2023F9
:103BA0003B7540237B756023BB753A7DFB68002B1A
:103BB00000DA0733DB10DBB21344DBB23B757A7DEE
:103BC000BB68002B00DA0733DB10DBB21344DBB237
:103BD0007B75BA7D7B68002B00DA0733DB10DBB224
:103BE0001344DBB2BB7507F114020A2300930323CD
:103BF0009A21054807F026FD3B68EC3300221A6045
:103C000000BF1837BD4680BD301D002080B582B092
:103C100000AF00237B60FFF783FC0346002B0AD133
:103C20000120FFF785FB0020FFF79AFB01237B6053
:103C3000642006F0CFFB7B6818460837BD4680BD80
:103C400080B500AF0120FFF7D7FB0120FFF74EFC46
:103C50000020FFF7D1FB012006F0BCFB0120FFF79D
:103C600045FC012006F0B6FB00BF80BD80B500AF6B
:103C70000120FFF7C1FB0020FFF738FC00BF80BD2B
:103C800080B483B000AF786039607B6801221A602D
:103C90007B6804333A681A607B68083301221A6033
:103CA0007B680C3300221A607B68103300221A6094
:103CB00000BF0C37BD465DF8047B704780B584B00B
:103CC00000AF78600023FB607B681B68012B3ED14E
:103CD00006F074FBB8607B6808331A687B680C33A5
:103CE0001B689A422AD17B6810331B68BA68D21AC3
:103CF0007B6808331B6804339B0079680B441B689E
:103D00009A4224D37B6808331B68FB607B680833C6
:103D10001A687B68083301321A607B6808331A68B6
:103D20007B6804331B689A4211D97B6808330122EF
:103D30001A607B680C3300221A6008E07B6810333D
:103D4000BA681A607B680C337A6892681A60FB68FC
:103D500018461037BD4680BD80B500AF0120FFF783
:103D600065FB032006F036FB0020FFF75FFB00BF7A
:103D700080BD000090B5A1B01EAF78600A4C6846C7
:103D800004F10C037822194612F0FEFC94E80E00B0
:103D9000064800F09BFA4FF4FA6006F01BFB00BFE8
:103DA0000C37BD4690BD00BF7C340020909C0108BC
:103DB00080B400AF00BFBD465DF8047B704780B49F
:103DC00000AF00BFBD465DF8047B704780B48DB086
:103DD00000AF786000BF3437BD465DF8047B7047A4
:103DE00090B59FB01EAF0A4C684604F10C037822D0
:103DF000194612F0C9FC94E80E00064800F066FA75
:103E00004FF47A7006F0E6FA00BF0437BD4690BD65
:103E10007C340020089D0108B0B5AEB01EAF7860BC
:103E200039607868FCF7D4F90346092B06D807F106
:103E30000C030F49184613F095F906E007F10C033F
:103E40007A680C49184613F08DF90B4C07F10C05F4
:103E5000684604F10C037822194612F095FC94E8A8
:103E60000E00284600F032FA00BF4037BD46B0BD14
:103E7000149D0108349D01087C34002090B5A1B048
:103E80001EAF0346FB714FF4FA7006F0A3FAFB79FC
:103E9000012B0DD10F4C684604F10C037822194612
:103EA00012F072FC94E80E000B4800F00FFA0CE0E0
:103EB000084C684604F10C037822194612F064FCA1
:103EC00094E80E00054800F001FA00BF0C37BD462B
:103ED00090BD00BF7C340020489D0108689D01080A
:103EE000F0B5ADB00EAF78633963FA62BB624FF0E4
:103EF000FF333B670023FB6600237B660023BB6622
:103F000000233B660023FB65002387F85B30FB6AD8
:103F10001833D3ED007AF5EEC07AF1EE10FA01DD38
:103F200001233B673B6BE0331B68012B10D13B6FD8
:103F3000012B06D1302387F87730302387F876308D
:103F4000CBE0312387F87730302387F87630C4E030
:103F50003B6BE0331B680D2B10D13B6F012B06D15F
:103F6000322387F87730302387F87630B5E0332373
:103F700087F87730302387F87630AEE03B6BE0335C
:103F80001B68062B10D13B6F012B06D1342387F819
:103F90007730302387F876309FE0352387F8773005
:103FA000302387F8763098E03B6BE0331B68022BB8
:103FB00010D13B6F012B06D1382387F8773030239F
:103FC00087F8763089E0392387F87730302387F80F
:103FD000763082E03B6BE0331B68092B10D13B6FDE
:103FE000012B06D1412387F87730302387F87630CC
:103FF00073E0412387F87730312387F876306CE01F
:104000003B6BE0331B68072B10D13B6F012B06D1B4
:10401000412387F87730322387F876305DE04123FB
:1040200087F87730332387F8763056E03B6BE03300
:104030001B68082B10D13B6F012B06D1412387F859
:104040007730342387F8763047E0412387F877309C
:10405000352387F8763040E03B6BE0331B680A2B52
:1040600010D13B6F012B06D1412387F877303623DF
:1040700087F8763031E0412387F87730372387F8A7
:1040800076302AE03B6BE0331B680B2B10D13B6F83
:10409000012B06D1412387F87730382387F8763013
:1040A0001BE0412387F87730392387F8763014E016
:1040B0003B6BE0331B680C2B0FD13B6F012B06D100
:1040C000422387F87730302387F8763005E04223A3
:1040D00087F87730312387F876303B6BA8331B683D
:1040E000754A82FB03129210DB17D31ABB66BB6EB4
:1040F000092B01DD0923BB66BB6E002B01DA00230F
:10410000BB66FB6A1433D3ED007A9FED6C7A67EEE1
:10411000877AF0EEE77AB0EE670A15F03DFBF0EE35
:10412000407AFDEEE77A17EE903A3B66FB6A183369
:10413000D3ED007A9FED627A67EE877AF0EEE77A48
:10414000B0EE670A15F028FBF0EE407AFDEEE77A54
:1041500017EE903AFB657B6EDBB21B01DAB2BB6EE9
:10416000DBB2134487F85B3006F028F90246BB6ADD
:1041700008331B68D31A534AA2FB03239B0B01335A
:10418000FB66BB6A08331B68002B01D10023FB666A
:10419000FB6EB3F5F07F02DD40F6FF73FB663B6E0E
:1041A00007F154010522184600F0AEF8FB6D07F147
:1041B0004C010522184600F0A7F8FB6E07F1380104
:1041C0000322184600F0A0F897F8543087F84430DE
:1041D00097F8553087F8453097F8563087F84630CD
:1041E00097F8573087F8473097F8583087F84830B5
:1041F00097F84C3087F83C3097F84D3087F83D30D1
:1042000097F84E3087F83E3097F84F3087F83F30B8
:1042100097F8503087F8403097F8771097F8760085
:1042200097F844301D4697F845301E4697F84630BB
:104230007B6297F847303B6297F84830FB6197F80C
:104240003C30BB6197F83D307B6197F83E303B6175
:1042500097F83F30FB6097F84030BB6097F83830F4
:104260007B6097F839301C4697F83A301A463B6B1A
:1042700003F58A731B680D930C920B947A680A926B
:10428000BA680992FA6808923A6907927A690692BE
:10429000BA690592FA6904923A6A03927B6A0293B8
:1042A0000196009503460A460749786B12F05AFFBB
:1042B00000BF7C37BD46F0BD6766666600401C46A1
:1042C0000050C34773B2E745989E010884B080B59B
:1042D00084B000AF786007F11C0080E80E004FF456
:1042E0007A73FB607868FBF773FF03469AB207F1B5
:1042F0001C00FB6879680CF069F800BF1037BD46F8
:10430000BDE8804004B0704780B487B000AFF8606B
:10431000B9607A607B687B6100233B6107E0BA6823
:104320003B69134430221A703B6901333B613A699F
:104330007B689A42F3D37B69013B7B61FB6803F0A6
:104340000F02B9687B690B4407498A5C1A70FB68E5
:104350001B09FB60FB68002BEDD100BF00BF1C37C1
:10436000BD465DF8047B704770A0010880B596B02B
:1043700006AFF860B9607A603B607B68D0331B6839
:10438000012B48D1F868FFF799FC0346032B37D07F
:10439000032B47DC012B02D0022B26D042E07B68A6
:1043A00090331B68002B38D17B68A0331B68DAB2CE
:1043B0001E4B1A707B68A8331B68DAB21C4B1A704C
:1043C00007F11003049307F11C03039307F128037B
:1043D000029307F1340301933B6D0093BB6C7A6841
:1043E000B9683868FDF714FA17E07B6890331B68EA
:1043F000002B14D00022F96C7868FDF7AFFC0EE0BA
:104400007B6890331B68002B0BD00122F96C786815
:10441000FDF7A4FC05E000BF04E000BF02E000BF20
:1044200000E000BF00BF4037BD4680BD6B0B0020E1
:104430006A0B002080B582B000AF786039603B68BD
:10444000AC331B68012B12D13B68A8331B68632B6C
:1044500006DD3B68002264210020FFF78DFB29E088
:104460003B68002200216420FFF786FB22E0786889
:10447000FFF724FC0346012B02D0022B0DD019E0DC
:104480003B68C03318683B68C43319683B68C8335D
:104490001A683B68FFF770FB0CE03B68B4331868A0
:1044A0003B68B83319683B68BC331A683B68FFF750
:1044B00063FB00BF00BF0837BD4680BD80B582B03A
:1044C00000AF786039607868FFF7F8FB0346012B8E
:1044D00040F0B5803B68AC331B68012B04D03B68CF
:1044E000B0331B68012B1CD13B68A8331B68632BBE
:1044F00017DC3B68B43332221A603B68B8330022C1
:104500001A603B68BC3300221A603B68C033322219
:104510001A603B68C43300221A603B68C83300222B
:104520001A603B68AC331B68012B04D03B68B03386
:104530001B68012B1CD13B68A8331B68642B17D167
:104540003B68B43300221A603B68B83332221A60E9
:104550003B68BC3300221A603B68C03300221A60FB
:104560003B68C43332221A603B68C83300221A60A9
:104570003B68AC331B68002B63D13B68B0331B68CE
:10458000002B5ED13B68A8331B68312B17DD3B68DD
:10459000B43300221A603B68B83332221A603B6899
:1045A000BC3300221A603B68C03300221A603B68AB
:1045B000C43300221A603B68C83300221A603B688B
:1045C000A8331B68312B1CDC3B68A8331B68132BFA
:1045D00017DD3B68B4337F221A603B68B8330A2288
:1045E0001A603B68BC3300221A603B68C03300226B
:1045F0001A603B68C43300221A603B68C83300224B
:104600001A603B68A8331B68132B1ADC3B68B43371
:1046100064221A603B68B83300221A603B68BC33DE
:1046200000221A603B68C03300221A603B68C43322
:1046300000221A603B68C83300221A6001E000BF04
:1046400000E000BF00BF0837BD4680BD80B584B024
:1046500000AF78600023FB600023BB607B68EC3315
:104660001B68002B0FD17B68EC3301221A6007F125
:10467000080107F10C037A681846FEF789F87B6891
:10468000EC3300221A607B68B033FA681A607B68EA
:10469000AC33BA681A6000BF1037BD4680BD80B524
:1046A00084B000AF786007F10C007B680122012123
:1046B000FEF7AAF87B68A833FA681A6000BF1037C3
:1046C000BD4680BD80B584B000AF78600023FB603C
:1046D0000123BB607B6858331B681E2B05DCA34B92
:1046E0001B68A34A934240F23C816420FEF73FF8E6
:1046F0000120FDF747FD0023FB600FE00A2005F0D5
:1047000069FEFEF70DFF0346012B02D10123BB60BA
:1047100001E00023BB60FB680133FB60FB68312BC9
:1047200007DCBB68012BE9D0904B1B68904A934291
:10473000E4D8BB68012B04D08C4B1B688C4A934295
:1047400002D90220FDF71EFD0023FB600FE00A20C6
:1047500005F040FEFEF7E4FE0346012B02D10123E3
:10476000BB6001E00023BB60FB680133FB60FB68BA
:10477000312B07DCBB68002BE9D17C4B1B687C4AE2
:104780009342E4D8BB68012B04D0784B1B68784A6D
:10479000934202D90320FDF7F5FC0023FB600FE0F4
:1047A0000A2005F017FEFEF7BBFE0346012B02D1DF
:1047B0000123BB6001E00023BB60FB680133FB60A9
:1047C000FB68312B07DCBB68012BE9D0674B1B680A
:1047D000674A9342E4D8BB68012B04D0634B1B6843
:1047E000634A934202D90420FDF7CCFC0023FB600E
:1047F0000FE00A2005F0EEFDFEF792FE0346012BC6
:1048000002D10123BB6001E00023BB60FB680133E0
:10481000FB60FB68312B07DCBB68012BE9D0534BF5
:104820001B68534A9342E4D8BB68012B04D04F4B1A
:104830001B684F4A934202D90520FDF7A3FC0023D1
:10484000FB600FE00A2005F0C5FDFEF769FE034698
:10485000012B02D10123BB6001E00023BB60FB6898
:104860000133FB60FB68312B07DCBB68012BE9D00F
:104870003E4B1B683E4A9342E4D8BB68012B04D0F0
:104880003A4B1B683A4A934202D90620FDF77AFC5C
:104890000023FB600FE00A2005F09CFDFEF740FEC0
:1048A0000346012B02D10123BB6001E00023BB6062
:1048B000FB680133FB60FB68312B07DCBB68012B15
:1048C000E9D02A4B1B682A4A9342E4D8BB68012BE3
:1048D00004D0264B1B68264A934202D90720FDF7D5
:1048E00051FC0023FB6007E00A2005F073FDFB6824
:1048F0000133FB600123BB60FB68312B07DCBB6825
:10490000012BF1D0194B1B68194A9342ECD8BB68B4
:10491000012B04D0154B1B68154A934221D908205E
:10492000FDF730FC6420FDF722FF4FF4FA7005F02C
:1049300051FD7868FFF7E2F80E48FDF775FD7B68DA
:10494000CC3301221A604FF4FA6005F043FD0120D8
:10495000FEF7EEFC0020FEF703FD4FF47A7005F041
:1049600039FD00BF1037BD4680BD00BF640B00207D
:10497000A0860100E09E010880B584B000AF786099
:1049800039600023FB603B6828331B68002B4AD149
:104990007B6834331B68002B45D17B6808331B6868
:1049A000002B40D13B6878331B68012B12D13B6848
:1049B000783300221A600023FB722A492A48FEF746
:1049C00051FA0346FB72FB7A012B03D13B68283373
:1049D00001221A603B687C331B68012B12D1002333
:1049E000BB7222492248FEF73DFA0346BB72BB7AEE
:1049F000012B03D13B68283301221A603B687C33CA
:104A000000221A60FB68012B0DD10023FB607B683C
:104A1000343301221A603B682C3300221A603B6851
:104A2000283300221A603B6828331B68012B15D1FC
:104A30007B6834331B68002B10D13B682C331B6818
:104A4000012B0BD17B68343301221A603B682C3375
:104A500000221A603B68283300221A6000BF10371A
:104A6000BD4680BDB830002028280020E82E002058
:104A7000B021002090B587B000AFF860B9607A60CF
:104A80003B6005F09BFC3861BB681B68002B40F065
:104A9000FE80FB6804331B68012B04D1BB68903394
:104AA00001221A60F3E0FB6834331B68012B13D139
:104AB00005F084FC02467B6808331B68D31A4EF667
:104AC0006022934208D9BB6890330D221A607B683C
:104AD00008333A691A60DAE0FB6808331B68012B77
:104AE00013D105F06BFC02467B6808331B68D31AB0
:104AF0004EF66022934208D9BB68903302221A60B6
:104B00007B6808333A691A60C1E0FB6830331B6880
:104B1000012B13D105F052FC02467B6808331B6859
:104B2000D31A4EF66022934208D9BB6890330C2208
:104B30001A607B6808333A691A60A8E0FB6824337E
:104B40001B68012B13D105F039FC02467B68083342
:104B50001B68D31A4EF66022934208D9BB68903383
:104B600009221A607B6808333A691A608FE0FB6893
:104B700028331B68012B13D105F020FC02467B680B
:104B800008331B68D31A4EF66022934208D9BB68DB
:104B900090330A221A607B6808333A691A6076E01B
:104BA000FB681C331B68012B13D105F007FC024680
:104BB0007B6808331B68D31A4EF66022934208D9EB
:104BC000BB68903307221A607B6808333A691A6021
:104BD0005DE0FB682C331B68012B13D105F0EEFB65
:104BE00002467B6808331B68D31A4EF66022934254
:104BF00008D9BB6890330B221A607B6808333A6986
:104C00001A6044E0FB6820331B68012B13D105F0C8
:104C1000D5FB02467B6808331B68D31A4EF6602228
:104C2000934208D9BB68903308221A607B68083326
:104C30003A691A602BE0FB680C331B68012B04D126
:104C4000BB68903303221A6021E0FB6810331B68B5
:104C5000012B04D1BB68903304221A6017E0FB6873
:104C600014331B68012B04D1BB68903305221A60F2
:104C70000DE0FB6818331B68012B04D1BB6890332F
:104C800006221A6003E0BB68903300221A60BB68FA
:104C900090331B68002B77D0BB681B68002B73D147
:104CA00005F08CFB02467B681A60BB6801221A6023
:104CB000BB68043301221A60FB6834331B68012B84
:104CC00027D0FB6808331B68012B22D0FB68043314
:104CD0001B68012B1DD0FB6830331B68012B18D0DB
:104CE000FB6824331B68012B13D0FB682C331B6833
:104CF000012B0ED0FB6820331B68012B09D0FB6809
:104D000010331B68012B04D0FB6814331B68002B85
:104D100013D0BB68083301221A60BB680C33012230
:104D20001A60BB68103301221A604FF4FA73032231
:104D30005C495D480BF04AFB26E0FB6828331B68A2
:104D4000012B0ED0FB681C331B68012B09D0FB68BC
:104D50000C331B68012B04D0FB6818331B68002B35
:104D600012D0BB68143301221A60BB6818330122C9
:104D70001A60BB681C3301221A604FF4FA730322D5
:104D8000484949480BF022FB00237B6108E07B691E
:104D90009B00FA68134400221A607B6901337B612F
:104DA0007B690D2BF3DDBB681B68012B76D1BB68DB
:104DB00020331B68012B37D1BB6800221A60BB6807
:104DC0003C3300221A60BB68403300221A60BB6883
:104DD000203300221A60BB68903300221A604FF41F
:104DE000FA730322314930480BF0F0FA7B6803F183
:104DF000080405F0E3FA034623603B6804332C4AB9
:104E00001A603B6808334FF000021A603B680C33AD
:104E10004FF000021A603B684FF000021A603B68D6
:104E200010334FF000021A6005F0C8FA02467B68A2
:104E30001B68D31A47F2305293422FD9BB683C33D8
:104E400000221A60BB6803F5867301221A60BB68F2
:104E5000243301221A60BB68E033BA68D2F890208C
:104E60001A60BB68403300221A60BB6800221A60D7
:104E7000BB68203300221A60BB68903300221A609E
:104E80004FF4FA730322094907480BF09FFA7B6835
:104E900003F1080405F092FA0346236000BF1C37B3
:104EA000BD4690BDE49E010874330020F09E0108C9
:104EB0000000A84180B582B000AF786039607B689F
:104EC00050331B68012B04D07B6890331B68002B88
:104ED00016D07B68503300221A6005F06FFA034643
:104EE0005A1E3B681A607B68D0331B68002B07D1C1
:104EF000FEF7A6FEFCF770FC7B68D03301221A6037
:104F000005F05CFA02463B681B68D31A44F620623F
:104F1000934205D9FEF7AAFE7B68D03300221A60BF
:104F200000BF0837BD4680BD2DE9B04388B000AF53
:104F3000F860B9607A603B604FF00003FB614FF0AE
:104F40000003BB61BB6804331B68012B40F0808207
:104F5000FB6806331B782C2B40F07A82FB681033F9
:104F60001B782C2B40F07482FB681B331B782C2B96
:104F700040F06E82FB681D331B782C2B40F068825A
:104F8000FB6829331B782C2B40F06282FB682B33A3
:104F90001B782C2B40F05C82FB6811331B78A3F14B
:104FA000300213469B0013445B001A46FB68123321
:104FB0001B78303B13441846FBF7B4FA04460D4601
:104FC000FB6813331B78303B1846FBF7ABFAECA3B6
:104FD000D3E90023FBF710FB02460B4690469946A7
:104FE000FB6814331B78303B1846FBF79BFAE6A3AB
:104FF000D3E90023FBF700FB02460B464046494637
:10500000FBF744F902460B4690469946FB68163377
:105010001B78303B1846FBF785FADDA3D3E9002364
:10502000FBF7EAFA02460B4640464946FBF72EF9E3
:1050300002460B4690469946FB6817331B78303B77
:105040001846FBF76FFA4FF00002D34BFBF7D4FA88
:1050500002460B4640464946FBF718F902460B4606
:1050600090469946FB6818331B78303B1846FBF78F
:1050700059FA4FF00002C94BFBF7BEFA02460B4645
:1050800040464946FBF702F902460B4690469946D0
:10509000FB6819331B78A3F1300213469B001344BD
:1050A0005B001846FBF73EFA02460B46404649466F
:1050B000FBF7ECF802460B4690469946FB681A331C
:1050C0001B781846FBF72EFA02460B464046494627
:1050D000FBF7DCF802460B46104619464FF000027B
:1050E000AF4BFBF7D1F802460B4610461946A2A378
:1050F000D3E90023FBF780FA02460B461046194617
:105100004FF00002A74BFBF7A1FB02460B462046DF
:105110002946FBF7BBF802460B4610461946FBF73B
:1051200063FD0346FB61FB681E331B78303B18466A
:10513000FBF7F8F94FF00002984BFBF75DFA0246D7
:105140000B4614461D46FB681F331B78A3F1300243
:1051500013469B0013445B001846FBF7E3F9024635
:105160000B4620462946FBF791F802460B461446AB
:105170001D46FB6820331B78303B1846FBF7D2F9FD
:1051800002460B4620462946FBF780F802460B46AE
:1051900014461D46FB6821331B78303B1846FBF74D
:1051A000C1F977A3D3E90023FBF726FA02460B46A1
:1051B00090469946FB6822331B78303B1846FBF734
:1051C000B1F971A3D3E90023FBF716FA02460B46A7
:1051D00040464946FBF75AF802460B469046994628
:1051E000FB6824331B78303B1846FBF79BF968A318
:1051F000D3E90023FBF700FA02460B464046494636
:10520000FBF744F802460B4690469946FB68253367
:105210001B78303B1846FBF785F94FF000025E4BD8
:10522000FBF7EAF902460B4640464946FBF72EF8E3
:1052300002460B4690469946FB6826331B78303B66
:105240001846FBF76FF94FF00002544BFBF7D4F907
:1052500002460B4640464946FBF718F802460B4605
:1052600090469946FB6827331B78A3F1300213461A
:105270009B0013445B001846FBF754F902460B46AB
:1052800040464946FBF702F802460B4690469946CF
:10529000FB6828331B781846FBF744F902460B4697
:1052A00040464946FAF7F2FF02460B4610461946B9
:1052B0004FF000023A4BFAF7E7FF02460B46104662
:1052C00019462DA3D3E90023FBF796F902460B46B6
:1052D000104619464FF00002324BFBF7B7FA024670
:1052E0000B4620462946FAF7D1FF02460B461046E8
:1052F0001946FBF779FC0346BB61FB681C331B783E
:10530000532B05D1D7ED077AF1EE677AC7ED077A0F
:10531000FB682A331B78572B05D1D7ED067AF1EEBF
:10532000677AC7ED067AD7ED077A9FED1F7AF4EE1C
:10533000C77AF1EE10FA00DC8AE0D7ED077A9FED2C
:105340001B7AF4EEC77AF1EE10FA00D480E0D7EDC4
:10535000067ABAEE047AF4EEC77AF1EE10FA00DCBF
:1053600076E0D7ED067AB2EE047AF4EEC77AF1EE83
:1053700010FA1DD46CE000BFF168E388B5F8E43E94
:105380000000000080842E4100000000006AF84008
:10539000000000000088C34000408F4000005940DA
:1053A0000000484000004E4000000C4200007042E7
:1053B00000237B61FB682E331B782F2B21D9FB68E0
:1053C0002E331B78392B1CD8FB682F331B782F2BDF
:1053D00017D9FB682F331B78392B12D8FB682E3373
:1053E0001B78A3F1300213469B0013445B001A465E
:1053F000FB682F331B781A44BB6803F58073303A7F
:105400001A607B6803F1080404F0D8FF03462360A8
:105410003B681433FA691A603B681833BA691A603A
:10542000BB68A03301221A60BB68E4331B68002B01
:105430000ED17B681C1D04F0C1FF03462360BB68CE
:10544000E43301221A60BB6803F5827301221A60FB
:1054500000BF2037BD46BDE8B08300BF80B58EB029
:1054600000AFF860B9607A603B60FB6824331B686A
:10547000012B4ED1294806F000FFF868FEF77AFCB0
:10548000FB68503301221A60FCF77EFDFEF7A8FC92
:10549000FEF77CF80020FEF711F8FB6800220021DF
:1054A0000020FEF769FB07F110007B68BA68F96815
:1054B000FEF716FD194806F0E0FE07F11003F96843
:1054C0001846FEF7A9FC41F2883004F083FF134828
:1054D00006F0D3FE41F2883004F07CFF0F4806F05E
:1054E000CCFEFB68243300221A60FB6803F584734A
:1054F00000221A60FB6803F58A7300221A60FB68B9
:1055000003F5867300221A60F868FEF733FCFEF795
:1055100067FC00BF3837BD4680BD00BF7C1D002042
:1055200080B58EB000AFF860B9607A603B60FB6810
:1055300003F5B2731B68012B77D104F03FFF0346DC
:10554000184611F0A1FD11F0CDFD0246394B83FB49
:1055500002135911D317CB1A622101FB03F3D31A9B
:10556000FA6802F58A7201331360FCF70DFDFB68DF
:10557000503301221A60FEF709F80020FDF79EFF64
:10558000FB68002200210020FEF7F6FA07F1100068
:105590007B68BA68F968FEF7A3FC07F110031846A8
:1055A000FEF714FCF868FEF7E5FB41F2883004F0E2
:1055B00011FF214806F061FE41F2883004F00AFF35
:1055C0001D4806F05AFEF868FEF7D4FBFEF708FC0B
:1055D000194806F052FE07F11003F9681846FEF765
:1055E0001BFC41F2883004F0F5FE134806F045FE3E
:1055F00041F2883004F0EEFE0F4806F03EFEFB68F4
:1056000003F5B27300221A60FB6803F58A73002267
:105610001A60FB6803F5867300221A60F868FEF7CB
:10562000A9FBFEF7DDFBFEF7C3FB00BF3837BD4625
:1056300080BD00BF9D8297537C1D002080B582B045
:1056400000AF78603960FDF76BFF0346012B2AD16C
:105650007B681B68002B03D17B68F03301221A6042
:105660007B68503301221A607B68543301221A6030
:105670007B6858331A6801321A607B6858331B689C
:10568000C82B18DD7B681B68012B07D17B68203392
:1056900001221A607B683C3300221A607B68603309
:1056A00000221A6007E07B68543300221A607B688E
:1056B000583300221A60FDF749FF0346012B40D101
:1056C0007B68F03301221A607B68503301221A6034
:1056D0007B685C3301221A607B6860331A68013290
:1056E0001A607B6860331B68012B36DD7B681B68A2
:1056F000012B10D17B6864331B68012B0BD17B68B5
:10570000203301221A607B683C3300221A607B68D8
:10571000603300221A607B6860331B68642B1CDDD9
:105720007B681B68002B18D13B68043301221A6088
:105730007B68603300221A607B68643300221A6041
:105740000BE07B68643301221A607B685C330022C3
:105750001A607B68603300221A607B684C33002239
:105760001A607B6854331B68012B04D07B685C3360
:105770001B68012B1BD17B68AC331B68002B05D148
:105780007B68002200213220FEF7F6F97B68AC33FB
:105790001B68012B17D17B6854331B68012B12D176
:1057A0007B68002200213220FEF7E6F90BE07B68DF
:1057B000AC331B68002B07D17B680022002100203E
:1057C000FEF7DAF900E000BF00BF0837BD4680BD34
:1057D00080B582B000AF786039607B681B68012BB0
:1057E0006ED17B6808331B68012B2FD17B680C338B
:1057F0001B68012B2AD17B6810331B68012B25D134
:105800003B681B68012B05D17B68C822C821FA20A0
:10581000FEF7B2F93B681B680A2B0AD17B680022AD
:1058200000210020FEF7A8F9FDF7B0FE0020FDF7EB
:1058300045FE3B681B68642B02D13B6800221A605E
:105840003B681B685A1C3B681A6039E07B6814335C
:105850001B68012B34D17B6818331B68012B2FD1B7
:105860007B681C331B68012B2AD13B681B68012B0A
:105870000AD17B68C822C821FA20FEF77DF9FDF71E
:105880007BFE0120FDF71AFE3B681B680A2B0AD13C
:105890007B68002200210020FEF76EF9FDF776FEFE
:1058A0000020FDF70BFE3B681B68B3F57A7F02D141
:1058B0003B6800221A603B681B685A1C3B681A60F0
:1058C0007B6848331B68012B2AD17B681B68002B3F
:1058D00026D17B68002200210020FEF74DF9FDF75C
:1058E00055FE0020FDF7EAFD7B68483300221A6070
:1058F0007B68683300221A607B686C3300221A6070
:105900007B68703300221A607B68743301221A604E
:105910007B68783300221A607B687C3300221A602F
:105920007B6848331B68002B1FD17B681B68012BE9
:105930001BD17B68483301221A607B6868330022E0
:105940001A607B686C3300221A607B687033002217
:105950001A607B68743301221A607B6878330022F6
:105960001A607B687C3300221A6000BF0837BD468E
:1059700080BD000080B487B000AFF860B960114608
:105980001A460B46FB8013467B713B6A68331B68E3
:10599000C72B19DC3B6A74331B68002B14D03B6A9D
:1059A00068331B685B00FA681344FA881A803B6A04
:1059B00068331B681A46BB6813447A791A703B6ACD
:1059C00068331A6801321A603B6A68331B68C82B57
:1059D0000CD13B6A74331B68002B07D03B6A7033D1
:1059E00001221A603B6A743300221A603B6A7033EA
:1059F0001B68002B6FD03B6A68331B68C72B6ADDBE
:105A00003B6A68331B68B3F5C87F64DA3B6A6C3362
:105A10001B68002B5FDB3B6A6C331B68C72B5ADCAF
:105A20003B6A68331B685B00FA681344FA881A8083
:105A30003B6A68331B681A46BB6813447A791A704C
:105A40003B6A68331B685B00FA681A443B6A6C3334
:105A50001B6811885B4A22F813103B6A68331B6885
:105A60001A46BB681A443B6A6C331B681178564A65
:105A7000D1543B6A6C331A6801321A603B6A68334E
:105A80001A6801321A603B6A68331B68B3F5C87F35
:105A900021D10023FB8212E0FB8A5B00FA681A44E2
:105AA000FB8A1188494A22F81310FB8ABA681A4403
:105AB000FB8A1178464AD154FB8A0133FB82FB8A68
:105AC000B3F5C87FE8D33B6A683300221A603B6AAB
:105AD000783301221A603B6A70331B68002B6AD04E
